:100000000C9403260C94C4A70C94F5A70C9426A872
:100010000C9432260C9432260C9432260C94322600
:100020000C9432260C9432260C9432260C943226F0
:100030000C9432260C9432260C9432260C943226E0
:100040000C9432260C9432260C9490A60C943226F2
:100050000C94D3AC0C9409AD0C9432260C9432263B
:100060000C9432260C9432260C9485690C9432261A
:100070000C9432260C9432260C9432260C943226A0
:100080000C9432260C9432260C943226DDA5E0A581
:10009000D3A5D7A5F7A5F7A5E4A5E8A5EEA5F2A5F4
:1000A0004F4B2E00496E666F3A2045726173696E40
:1000B00067206D6972726F72656420636F6E666926
:1000C000672E2E2E004F4B2E00496E666F3A20573A
:1000D000726974696E67206D6972726F72656420EF
:1000E000636F6E6669672E2E2E004572726F723ACC
:1000F000204D6972726F72656420636F6E66696706
:1001000075726174696F6E206973206E6F742076EA
:10011000616C69642C2063616E6E6F74207265730C
:10012000746F726520746F206C6173742076616CDB
:10013000696420636F6E66696775726174696F6E5A
:100140002E00496E666F3A20526573746F72656453
:10015000206C6173742076616C696420636F6E66D5
:10016000696775726174696F6E2C2062757420699D
:10017000742773207374696C6C206E6F74207661C1
:100180006C69642E00496E666F3A2053756363652F
:10019000737366756C6C7920726573746F726564C5
:1001A00020746F206C6173742076616C69642063C5
:1001B0006F6E66696775726174696F6E2E00457245
:1001C000726F723A20436F6E666967204D656D6F7E
:1001D0007279206973206E6F7420756E6C6F636B1B
:1001E00065642C2063616C6C65642066726F6D20A1
:1001F0006C696E65206E756D626572200020004925
:100200006E666F3A2043757272656E74206669720D
:100210006D77617265207369676E61747572653A96
:1002200020002C2041637475616C2046696C6573F5
:10023000697A653A20004572726F723A204578708B
:1002400065637465642046696C6573697A653A20F4
:10025000002C2041637475616C20436865636B7387
:10026000756D3A20004572726F723A20457870655C
:100270006374656420436865636B73756D3A200031
:100280004572726F723A20496E746567726974794B
:1002900020436865636B204661696C656421004991
:1002A0006E666F3A20496E7465677269747920438F
:1002B0006865636B205375636365656465642100DD
:1002C0002220746F2049502061646472657373202A
:1002D00000496E666F3A205265736F6C76656420D4
:1002E000220027004572726F723A20436F756C646A
:1002F0006E2774207265736F6C766520270020204E
:10030000205245534F4C56494E4700534F46545781
:1003100041524520414C52454144592020205550DE
:1003200020544F2044415445202020002055504463
:10033000415445204641494C454420202020524507
:10034000545259204C41544552202020004572728D
:100350006F723A204669726D7761726520557064DC
:10036000617465204661696C65642E205472792041
:10037000616761696E206C617465722062792072B8
:100380006573657474696E672E004150504C59490D
:100390004E47205550444154455357414954204FEE
:1003A0004E45204D494E5554452000496E666F3AE2
:1003B000204669726D77617265205570646174655D
:1003C00020436F6D706C6574652E20526573657483
:1003D000696E6720746F206170706C79206368614A
:1003E0006E6765732E00496E666F3A2057726F74A0
:1003F00065204D61676963204E756D6265720022EC
:1004000000496E666F3A20446F776E6C6F61646965
:100410006E672022002020202020504C454153456B
:100420002020202020202020202020574149542017
:100430002020202020002E6865780055504441542B
:100440004520415641494C41424C452020444F579C
:100450004E4C4F4144494E4720202000220020644A
:100460006F776E6C6F6164696E67202200496E66FB
:100470006F3A20417474656D70742023002E636898
:100480006B002020434845434B494E4720464F527E
:100490002020202020205550444154455320202026
:1004A000202000496E666F3A202D2D2D2D2D2D2DEB
:1004B0002D2D2D2D2D2D2D2D2D2D2D2D2D2D2D2D6C
:1004C0002D2D2D2D2D2D2D2D2D2D2D2D2D2D004571
:1004D00072726F723A205570646174652053657250
:1004E00076657220436F6E6E656374696F6E206609
:1004F00061696C656400496E666F3A202D2D2D2D63
:100500002D2D2D2D2D2D2D2D2D2D2D2D2D2D2D2D1B
:100510002D2D2D2D2D2D2D2D2D2D2D2D2D2D2D2D0B
:100520002D000D0A000D0A00486F73743A20002058
:10053000485454502F312E310D0A00474554202F76
:10054000002C002D2D2D002C002D2D2D002C002DEC
:100550002D2D002C002D2D2D002C006373763A20BC
:10056000002C006373763A2054696D657374616D75
:10057000705B6D696C6C697365636F6E64735D2C21
:1005800054656D70657261747572655B646567430F
:100590005D2C48756D69646974795B70657263651B
:1005A0006E745D2C4E4F325B7070625D2C434F5BFE
:1005B00070706D5D002D2D2D2C2D2D2D2C2D2D2DA4
:1005C0002C2D2D2D002C002C002C002C002D2D2D41
:1005D0002C2D2D2D2C2D2D2D2C2D2D2D002C002CAA
:1005E000002C002057492D4649204E4554574F5264
:1005F0004B2020202020204641494C5552452020A8
:10060000202020004572726F723A2057692D46698A
:100610002052652D636F6E6E656374204661696C50
:100620006564203520636F6E7365637574697665E4
:100630002074696D65732E20466F7263696E672042
:100640007265626F6F742E00730020636F6E736546
:100650006375746976652074696D65005761726EA3
:100660003A204661696C656420746F20636F6E6E1A
:1006700065637420746F2057692D4669206E657418
:10068000776F726B200020204D51545420534552F7
:10069000564552202020202020204641494C5552CA
:1006A000452020202020004572726F723A204D5163
:1006B000545420436F6E6E656374204661696C65A7
:1006C00064203520636F6E73656375746976652089
:1006D00074696D65732E20466F7263696E67207250
:1006E00065626F6F742E00730020636F6E736563B5
:1006F00075746976652074696D65005761726E3A2C
:10070000204661696C656420746F20636F6E6E654E
:10071000637420746F204D51545420736572766554
:100720007220004572726F723A204661696C65648E
:1007300020746F207075626C69736820434F2E00BF
:100740004572726F723A204661696C656420746FFD
:10075000207075626C697368204E4F322E004572AE
:10076000726F723A204661696C656420746F207004
:1007700075626C6973682048756D69646974792E57
:10078000004572726F723A204661696C656420742C
:100790006F207075626C6973682054656D70657246
:1007A00061747572652E004572726F723A204661EF
:1007B000696C656420746F207075626C6973682061
:1007C0004865617274626561742E004155544F52E0
:1007D00045534554204641494C45442052455345D4
:1007E0005420524551554952454420004572726F7C
:1007F000723A205761746368646F6720466F726352
:10080000652052657374617274206661696C6564F9
:100810002E204D616E75616C207265736574206960
:10082000732072657175697265642E00496E666F1A
:100830003A205475726E696E67206261636B6C69F1
:10084000676874206F6666202874696D657220651C
:10085000787069726564292E00496E666F3A20547B
:1008600075726E696E67206261636B6C696768742C
:10087000206F6E2E00496E666F3A20417665726178
:10088000676520546F7563682052656164696E679F
:100890003A20004661696C65642E004F4B2E002E95
:1008A0002E2E004D515454207075626C6973686926
:1008B0006E6720746F20746F7069632000466169F1
:1008C0006C65642E004F4B2E00576974686F757409
:1008D0002041757468656E7469636174696F6E2E0A
:1008E0002E2E007573696E672041757468656E748D
:1008F00069636174696F6E2E2E2E00222000496E8E
:10090000666F3A20436F6E6E656374696E6720741C
:100910006F204D5154542042726F6B65722077697D
:10092000746820436C69656E74204944202200225B
:1009300020746F20495020616464726573732000D5
:10094000496E666F3A205265736F6C76656420223B
:100950000027004572726F723A20436F756C646EA7
:100960002774207265736F6C766520270020202025
:100970005245534F4C56494E47005D004572726FC9
:10098000723A204144432052656164204572726F7F
:1009900072205B004F4B2E004572726F723A2046F8
:1009A00061696C656420746F20616371756972653B
:1009B00020495020616464726573732076696120F8
:1009C000444843502E205265626F6F74696E672EE3
:1009D000002052455155455354494E472049502017
:1009E0002000496E666F3A205265717565737420F8
:1009F000444843502E2E2E004572726F723A2043A7
:100A00006F6E6E656374696F6E206D6574686F6478
:100A1000206E6F742063757272656E746C792073CA
:100A20007570706F72746564004F4B2E00496E666E
:100A30006F3A2057616974696E6720666F72205340
:100A40006D617274436F6E66696720746F205265C2
:100A5000636F6E6E6563742E2E2E004F4B2E004515
:100A600072726F723A204661696C656420746F20FF
:100A7000636F6E6E65637420746F2041636365738A
:100A80007320506F696E74207769746820535349DE
:100A9000443A2000434F4E4E454354494E4720545C
:100AA0004F20415000222E2E2E00496E666F3A20B4
:100AB000436F6E6E656374696E6720746F20416367
:100AC0006365737320506F696E7420776974682052
:100AD00053534944202200496E666F3A20444E53D6
:100AE000736572763A2000496E666F3A2044484337
:100AF000507372763A2000496E666F3A20476174EF
:100B0000657761793A2000496E666F3A204E6574C8
:100B10006D61736B3A2000496E666F3A2049502030
:100B2000416464723A20004572726F723A20556EC9
:100B300061626C6520746F20726574726965766598
:100B40002074686520495020416464726573732184
:100B50000052535349203D2000222C2000496E664C
:100B60006F3A20466F756E6420416363657373202E
:100B7000506F696E74202200206E6574776F726BFF
:100B80007300496E666F3A204E6574776F726B2002
:100B90005363616E20666F756E6420004572726FDC
:100BA000723A204E6574776F726B205363616E20CA
:100BB0004661696C656400496E666F3A20426567FC
:100BC000696E6E696E67204E6574776F726B205325
:100BD00063616E2E2E2E00205343414E4E494E47E8
:100BE0002057492D46492020202020202020202049
:100BF000202020202020200020636861726163741F
:100C0000657273206C6F6E672E00202020202020DC
:100C1000206275742077617320004572726F723A9A
:100C20002050726976617465206B6579206D7573EB
:100C3000742062652065786163746C792036342095
:100C400063686172616374657273206C6F6E672C88
:100C500020005D004572726F723A20496E76616CB9
:100C60006964206865782076616C756520666F75AB
:100C70006E64205B002220746F20646563696D617F
:100C80006C206E756D6265722E004572726F723ADD
:100C9000204661696C656420746F20636F6E7665B1
:100CA000727420737472696E672022004572726FCD
:100CB000723A20496E76616C696420706172616D70
:100CC000657465722070726F766964656420746FF4
:100CD00020276261636B75702720636F6D6D616E95
:100CE00064202D2022004572726F723A2055706484
:100CF0006174652066696C656E616D65206D7573E4
:100D000074206265206C657373207468616E203393
:100D100032206368617261637465727320696E204A
:100D20006C656E677468004572726F723A20557018
:100D30006461746520736572766572206E616D659D
:100D4000206D757374206265206C65737320746800
:100D5000616E2033322063686172616374657273FF
:100D600020696E206C656E677468004572726F72E0
:100D70003A20496E76616C696420706172616D65BC
:100D80007465722070726F766964656420746F2078
:100D9000276D717474706F72742720636F6D6D614D
:100DA0006E64202D2022004572726F723A20496EC7
:100DB00076616C696420706172616D657465722022
:100DC00070726F766964656420746F20276D71742A
:100DD00074617574682720636F6D6D616E64202D7A
:100DE0002022004572726F723A204D515454206394
:100DF0006C69656E74204944206D7573742062655A
:100E0000206C657373206265747765656E20312090
:100E1000616E64203233206368617261637465724D
:100E20007320696E206C656E677468004572726F1E
:100E3000723A204D51545420636C69656E74204998
:100E400044206D75737420626567696E20776974DC
:100E5000682061206C6574746572004572726F72EF
:100E60003A204D51545420757365726E616D652042
:100E70006D757374206265206C657373207468618E
:100E80006E2033322063686172616374657273200F
:100E9000696E206C656E677468004572726F723A95
:100EA000204D51545420736572766572206E616DC9
:100EB00065206D757374206265206C657373207492
:100EC00068616E2033322063686172616374657299
:100ED0007320696E206C656E677468004572726F6E
:100EE000723A204D5154542070617373776F72645D
:100EF000206D757374206265206C6573732074684F
:100F0000616E20333220636861726163746572734D
:100F100020696E206C656E677468004572726F722E
:100F20003A20496E76616C696420706172616D650A
:100F30007465722070726F766964656420746F20C6
:100F400027666F7263652720636F6D6D616E642025
:100F50002D202200496E666F3A2045726173696EDA
:100F600067206C61737420666C61736820706167C0
:100F700065004572726F723A20496E76616C6964E1
:100F800020706172616D657465722070726F766930
:100F900064656420746F20277573652720636F6D07
:100FA0006D616E64202D2022004572726F723A20AE
:100FB00073657444434850204661696C6564206FD2
:100FC0006E20434333303030004572726F723A20E6
:100FD00073657453746174696349504164647265E4
:100FE0007373204661696C6564206F6E20434333E0
:100FF000303030005D004572726F723A20495020E7
:1010000041646472657373206D75737420636F6ED1
:101010007461696E20342076616C6964206F63743A
:1010200065747320736570617261746564206279A0
:1010300020272E27205B40706172616D2000220006
:101040004572726F723A2049502061646472657310
:1010500073207061727365206572726F72206F6E9B
:1010600020696E7075742022005D004572726F7287
:101070003A2049502061646472657373206F637411
:10108000657473206D75737420626520696E746574
:101090006765722076616C756573205B4070617264
:1010A000616D200020202020202020004572726FDA
:1010B000723A20546F6F2066657720706172616D9F
:1010C00065746572732070617373656420746F203A
:1010D00073746174696369700020202020202020CF
:1010E000004572726F723A20546F6F206D616E7995
:1010F00020706172616D65746572732070617373C5
:10110000656420746F20737461746963697000276B
:10111000004572726F723A2074656D706572617409
:1011200075726520756E6974206D757374206265C3
:1011300020274327206F72202746272C20627574B2
:101140002072656365697665642027002020202071
:1011500020202076616C6964206F7074696F6E73F3
:10116000206172653A20276E6F726D616C272C20AA
:10117000277A65726F270022004572726F723A20DB
:10118000496E76616C6964206F7065726174696F15
:101190006E616C206D6F646520656E746572656448
:1011A000202D2022002020202020202076616C6924
:1011B00064206F7074696F6E73206172653A2027C6
:1011C0006F70656E272C2027776570272C20277776
:1011D0007061272C20616E642027777061322700B0
:1011E00022004572726F723A20496E76616C6964B2
:1011F000207365637572697479206D6F646520650D
:101200006E7465726564202D2022004572726F72C3
:101210003A204E6574776F726B2070617373776FCD
:101220007264206D757374206265206C6573732021
:101230007468616E20333220636861726163746523
:10124000727320696E206C656E67746800457272F7
:101250006F723A2053534944206D75737420626550
:10126000206C657373207468616E2033322063686C
:10127000617261637465727320696E206C656E675C
:101280007468002020202020202076616C69642072
:101290006F7074696F6E73206172653A202764699C
:1012A00072656374272C2027736D617274636F6E8F
:1012B000666967272C20616E64202770666F64273B
:1012C0000022004572726F723A20496E76616C6935
:1012D0006420636F6E6E656374696F6E206D6574F4
:1012E000686F6420656E7465726564202D2022002D
:1012F0004661696C65642E004F4B2E00496E666F27
:101300003A2044656C657465696E672073746F720A
:1013100065642070726F66696C65732E2E2E0045B1
:1013200072726F723A204D4143206164647265733A
:1013300073206D75737420636F6E7461696E2036EF
:101340002062797465732C20776974682065616305
:10135000682073657061726174656420627920270A
:101360003A27004572726F723A204661696C656473
:1013700020746F207772697465204D414320616449
:10138000647265737320746F2043433330303000D0
:1013900022004572726F723A204D414320616464AD
:1013A00072657373207061727365206572726F72FB
:1013B000206F6E20696E707574202200202020201E
:1013C000202020004572726F723A20546F6F206D9A
:1013D000616E79206F6374657473207061737365D7
:1013E0006420746F207365746D61633A200022007D
:1013F0004572726F723A20556E65787065637465D8
:101400006420706172616D61746572206E616D65DA
:10141000202200202020202020207072696F72205E
:10142000746F20657865637574696E672061202725
:10143000726573746F7265272E004572726F723A0F
:101440002048756D6964697479207265706F727473
:10145000696E67206F6666736574206D757374209E
:101460006265206261636B656420757020200020D6
:101470002020202020207072696F7220746F2065F8
:101480007865637574696E6720612027726573746F
:101490006F7265272E004572726F723A2054656D27
:1014A0007065726174757265207265706F727469AF
:1014B0006E67206F6666736574206D757374206245
:1014C00065206261636B65642075702020002020B8
:1014D00020202020207072696F7220746F20657840
:1014E00065637574696E6720612027726573746F18
:1014F0007265272E004572726F723A20434F206347
:10150000616C6962726174696F6E206D75737420AD
:101510006265206261636B65642075702020002025
:101520002020202020207072696F7220746F206547
:101530007865637574696E672061202772657374BE
:101540006F7265272E004572726F723A204E4F32CD
:101550002063616C6962726174696F6E206D75736E
:1015600074206265206261636B6564207570202061
:1015700000202020202020207072696F7220746F5C
:1015800020657865637574696E67206120277265D0
:1015900073746F7265272E004572726F723A205015
:1015A000726976617465206B6579206D757374203E
:1015B0006265206261636B65642075702020002085
:1015C0002020202020207072696F7220746F2065A7
:1015D0007865637574696E6720612027726573741E
:1015E0006F7265272E004572726F723A204D51540A
:1015F000542050617373776F7264206D757374201B
:101600006265206261636B65642075702020002034
:101610002020202020207072696F7220746F206556
:101620007865637574696E672061202772657374CD
:101630006F7265272E004572726F723A204D4143DA
:101640002061646472657373206D757374206265C4
:10165000206261636B656420757020200022004564
:1016600072726F723A20556E657870656374656446
:10167000205661726961626C65204E616D65202241
:10168000002020434F4E464947204D4F44450049D6
:101690006E666F3A20536176656420636F6E6E6587
:1016A0006374696F6E2064657461696C7320616E28
:1016B0006420636F6E6E656374656420746F20418F
:1016C0005021004572726F723A20536D61727443FB
:1016D0006F6E666967204372656174652046616953
:1016E0006C65642E00202020205354415254494EF2
:1016F00047202020202020534D41525420434F4E5C
:10170000464947202000496E666F3A205761697448
:10171000696E6720666F72206120536D6172744339
:101720006F6E66696720636F6E6E656374696F6E56
:101730002E2E2E004572726F723A20436F756C64C4
:10174000206E6F74207265747269657665204D41F4
:101750004320616464726573732066726F6D204309
:1017600043333030300022004572726F723A205598
:101770006E65787065637465642056617269616234
:101780006C65204E616D65202200202B2D2D2D2DA6
:101790002D2D2D2D2D2D2D2D2D2D2D2D2D2D2D2D79
:1017A0002D2D2D2D2D2D2D2D2D2D2D2D2D2D2D2D69
:1017B0002D2D2D2D2D2D2D2D2D2D2D2D2D2D2D2D59
:1017C0002D2D2D2D2D2D2D2D2D2B00207C2020205D
:1017D000202072756E20276261636B757020616CCA
:1017E0006C27207768656E20796F7520617265209F
:1017F000736174697366696564202020202020204D
:10180000202020202020202020207C00207C206EF2
:101810006F74653A20272A27206E65787420746FCC
:10182000206C6162656C206D65616E732074686503
:101830002073657474696E67206973206E6F7420FD
:101840006261636B65642075702E207C00202B2DF7
:101850002D2D2D2D2D2D2D2D2D2D2D2D2D2D2D2DB8
:101860002D2D2D2D2D2D2D2D2D2D2D2D2D2D2D2DA8
:101870002D2D2D2D2D2D2D2D2D2D2D2D2D2D2D2D98
:101880002D2D2D2D2D2D2D2D2D2D2D2D2B00202BC6
:101890002D2D2D2D2D2D2D2D2D2D2D2D2D2D2D2D78
:1018A0002D2D2D2D2D2D2D2D2D2D2D2D2D2D2D2D68
:1018B0002D2D2D2D2D2D2D2D2D2D2D2D2D2D2D2D58
:1018C0002D2D2D2D2D2D2D2D2D2D2D2D2D2B002084
:1018D0007C2053656E736F722043616C6962726124
:1018E00074696F6E733A2020202020202020202051
:1018F00020202020202020202020202020202020E8
:1019000020202020202020202020202020207C009B
:10191000202B2D2D2D2D2D2D2D2D2D2D2D2D2D2D06
:101920002D2D2D2D2D2D2D2D2D2D2D2D2D2D2D2DE7
:101930002D2D2D2D2D2D2D2D2D2D2D2D2D2D2D2DD7
:101940002D2D2D2D2D2D2D2D2D2D2D2D2D2D2D2BC9
:1019500000202B2D2D2D2D2D2D2D2D2D2D2D2D2DF3
:101960002D2D2D2D2D2D2D2D2D2D2D2D2D2D2D2DA7
:101970002D2D2D2D2D2D2D2D2D2D2D2D2D2D2D2D97
:101980002D2D2D2D2D2D2D2D2D2D2D2D2D2D2D2D87
:101990002B00207C2043726564656E7469616C73F2
:1019A0003A2020202020202020202020202020201D
:1019B0002020202020202020202020202020202027
:1019C0002020202020202020202020202020202017
:1019D000207C00202B2D2D2D2D2D2D2D2D2D2D2D31
:1019E0002D2D2D2D2D2D2D2D2D2D2D2D2D2D2D2D27
:1019F0002D2D2D2D2D2D2D2D2D2D2D2D2D2D2D2D17
:101A00002D2D2D2D2D2D2D2D2D2D2D2D2D2D2D2D06
:101A10002D2D2B00202020204D51545420436C6943
:101A2000656E742049443A2000202020204D5154F6
:101A30005420506F72743A2000202020204D5154C1
:101A400054205365727665723A2000202B2D2D2D7F
:101A50002D2D2D2D2D2D2D2D2D2D2D2D2D2D2D2DB6
:101A60002D2D2D2D2D2D2D2D2D2D2D2D2D2D2D2DA6
:101A70002D2D2D2D2D2D2D2D2D2D2D2D2D2D2D2D96
:101A80002D2D2D2D2D2D2D2D2D2D2B00207C204D60
:101A90005154542053657474696E67733A20202042
:101AA0002020202020202020202020202020202036
:101AB0002020202020202020202020202020202026
:101AC00020202020202020202020207C00202B2DC2
:101AD0002D2D2D2D2D2D2D2D2D2D2D2D2D2D2D2D36
:101AE0002D2D2D2D2D2D2D2D2D2D2D2D2D2D2D2D26
:101AF0002D2D2D2D2D2D2D2D2D2D2D2D2D2D2D2D16
:101B00002D2D2D2D2D2D2D2D2D2D2D2D2B0020204E
:101B100020205570646174652046696C656E616D46
:101B2000653A2000202020205570646174652053A0
:101B300065727665723A2000202020204950204DA1
:101B40006F64653A20002020202053656375726918
:101B50007479204D6F64653A200020202020535373
:101B600049443A2000202020204D6574686F643A73
:101B70002000202B2D2D2D2D2D2D2D2D2D2D2D2DDE
:101B80002D2D2D2D2D2D2D2D2D2D2D2D2D2D2D2D85
:101B90002D2D2D2D2D2D2D2D2D2D2D2D2D2D2D2D75
:101BA0002D2D2D2D2D2D2D2D2D2D2D2D2D2D2D2D65
:101BB0002D2B00207C204E6574776F726B2053654F
:101BC0007474696E67733A20202020202020202022
:101BD0002020202020202020202020202020202005
:101BE00020202020202020202020202020202020F5
:101BF00020207C00202B2D2D2D2D2D2D2D2D2D2D1C
:101C00002D2D2D2D2D2D2D2D2D2D2D2D2D2D2D2D04
:101C10002D2D2D2D2D2D2D2D2D2D2D2D2D2D2D2DF4
:101C20002D2D2D2D2D2D2D2D2D2D2D2D2D2D2D2DE4
:101C30002D2D2D2B002020202054656D70657261A4
:101C40007475726520556E6974733A2000202020E7
:101C5000204F7065726174696F6E616C204D6F64A6
:101C6000653A2000202B2D2D2D2D2D2D2D2D2D2DA8
:101C70002D2D2D2D2D2D2D2D2D2D2D2D2D2D2D2D94
:101C80002D2D2D2D2D2D2D2D2D2D2D2D2D2D2D2D84
:101C90002D2D2D2D2D2D2D2D2D2D2D2D2D2D2D2D74
:101CA0002D2D2D2B00207C20507265666572656E8F
:101CB0006365732F4F7074696F6E733A2020202014
:101CC0002020202020202020202020202020202014
:101CD0002020202020202020202020202020202004
:101CE000202020207C00202B2D2D2D2D2D2D2D2D45
:101CF0002D2D2D2D2D2D2D2D2D2D2D2D2D2D2D2D14
:101D00002D2D2D2D2D2D2D2D2D2D2D2D2D2D2D2D03
:101D10002D2D2D2D2D2D2D2D2D2D2D2D2D2D2D2DF3
:101D20002D2D2D2D2D2B005D0030004572726F7210
:101D30003A20556E6B6E6F776E2074656D706572AC
:101D4000617475726520756E697473205B307800FC
:101D500046616872656E686569740043656C736995
:101D60007573005D0030004572726F723A20556ED7
:101D70006B6E6F776E206F7065726174696F6E61E4
:101D80006C206D6F6465205B3078005A65726F69F6
:101D90006E67004E6F726D616C00202020204D51E7
:101DA00054542041757468656E7469636174696F19
:101DB0006E3A2044697361626C65640020202020C3
:101DC0004D51545420557365726E616D653A200013
:101DD000202020204D5154542041757468656E7444
:101DE00069636174696F6E3A20456E61626C656407
:101DF00000200020002A002020002E002020204467
:101E00004E53205365727665723A202020202020A0
:101E10000020202044656661756C742047617465FC
:101E20007761793A20002020204E65746D61736BD4
:101E30003A2020202020202020200020202049504F
:101E400020416464726573733A20202020202000B2
:101E5000436F6E6669677572656420666F722053A2
:101E600074617469632049503A2000436F6E66695B
:101E7000677572656420666F722044484350005D48
:101E80000030004572726F723A20556E6B6E6F773C
:101E90006E207365637572697479206D6F64652057
:101EA000636F6465205B3078004175746F6D617499
:101EB0006963202D204E6F74205965742044657429
:101EC00065726D696E65640057504132005750412C
:101ED00000574550004F70656E004E6F20535349B8
:101EE000442063757272656E746C7920636F6E66E0
:101EF0006967757265642E005D0030004572726F0F
:101F0000723A20556E6B6E6F776E20636F6E6E65E2
:101F10006374696F6E206D6574686F6420636F64AD
:101F200065205B30780050666F642057692D4669E4
:101F300020436F6E6E656374205B6E6F74206375F3
:101F40007272656E746C7920737570706F727465DF
:101F5000645D00536D61727420436F6E6669672023
:101F6000436F6E6E656374004469726563742043E9
:101F70006F6E6E656374003A003000220045727225
:101F80006F723A205468657265206973206E6F2005
:101F900068656C7020617661696C61626C65206651
:101FA0006F7220636F6D6D616E64202200202020AF
:101FB00020202046202D207265706F727420746579
:101FC0006D706572617475726520696E2046616816
:101FD00072656E68656974002020202020204320EF
:101FE0002D207265706F72742074656D70657261FA
:101FF0007475726520696E2043656C736975730032
:102000002020203C756E69743E206973206F6E65D8
:10201000206F663A0074656D70756E6974203C754A
:102020006E69743E002020202020202020202020C7
:1020300020204E6F74653A20546869732070726F67
:1020400063657373206D61792074616B65207365BE
:10205000766572616C20686F75727320746F20638F
:102060006F6D706C6574652066726F6D20636F6C48
:10207000642073746172742E002020202020207A46
:1020800065726F202D20706572666F726D207365AA
:102090006E736F72207A65726F2D696E6720667538
:1020A0006E6374696F6E2C20616E64207265737547
:1020B0006D65206E6F726D616C206D6F6465207749
:1020C00068656E20636F6D706C6574652E002020EE
:1020D000202020206E6F726D616C202D2070756243
:1020E0006C697368206461746120746F204D515471
:1020F0005420736572766572206F76657220576919
:102100002D4669002020203C6D6F64653E20697378
:10211000206F6E65206F663A006F706D6F6465208A
:102120003C6D6F64653E002020202020206120331C
:10213000322D6279746520283235362D6269742912
:102140002068657861646563696D616C2076616C97
:102150007565206F66207468652070726976617499
:1021600065206B6579002020203C737472696E676E
:102170003E20697320612036342D6368617261638B
:1021800074657220737472696E672072657072650F
:1021900073656E74696E6720006B6579203C73749B
:1021A00072696E673E002020203C6E756D6265721C
:1021B0003E2069732074686520646563696D616C95
:1021C0002076616C7565206F662048756D6964695D
:1021D00074792073656E736F72207265706F72749C
:1021E000696E67206F6666736574205B255D2028C5
:1021F00073756274726163746564290068756D5FDC
:102200006F6666203C6E756D6265723E0020202010
:102210003C6E756D6265723E20697320746865203E
:10222000646563696D616C2076616C7565206F66AD
:102230002054656D70657261747572652073656E8A
:10224000736F72207265706F7274696E67206F664B
:1022500066736574205B646567435D2028737562EF
:1022600074726163746564290074656D705F6F6674
:1022700066203C6E756D6265723E002020203C6ECB
:10228000756D6265723E20697320746865206465AF
:1022900063696D616C2076616C7565206F662043A3
:1022A0004F2073656E736F72206F6666736574205E
:1022B0005B565D00636F5F6F6666203C6E756D6296
:1022C00065723E002020203C6E756D6265723E2076
:1022D00069732074686520646563696D616C20763C
:1022E000616C7565206F6620434F2073656E736F58
:1022F0007220736C6F7065205B70706D2F565D007F
:10230000636F5F736C6F7065203C6E756D62657294
:102310003E002020206E6F74653A20616C736F2040
:10232000736574732074686520434F20736C6F70FD
:1023300065206261736564206F6E20746865207328
:10234000656E7369746976697479002020203C6E2B
:10235000756D6265723E20697320746865206465DE
:1023600063696D616C2076616C7565206F662043D2
:102370004F2073656E7369746976697479205B6E3A
:10238000412F70706D5D00636F5F63616C203C6E08
:10239000756D6265723E002020203C6E756D626531
:1023A000723E2069732074686520646563696D619D
:1023B0006C2076616C7565206F66204E4F322073FD
:1023C000656E736F72206F6666736574205B565D11
:1023D000006E6F325F6F6666203C6E756D6265726F
:1023E0003E002020203C6E756D6265723E20697350
:1023F0002074686520646563696D616C2076616C2A
:102400007565206F66204E4F322073656E736F7254
:1024100020736C6F7065205B7070622F565D006E6C
:102420006F325F736C6F7065203C6E756D626572A4
:102430003E002020206E6F74653A20616C736F201F
:102440007365747320746865204E4F3220736C6F0F
:102450007065206261736564206F6E20746865200A
:1024600073656E7369746976697479002020203C05
:102470006E756D6265723E206973207468652064B4
:102480006563696D616C2076616C7565206F66208F
:102490004E4F322073656E73697469766974792062
:1024A0005B6E412F70706D5D006E6F325F63616CAB
:1024B000203C6E756D6265723E0020202020202039
:1024C000616C6C2020202020202D20646F657320FB
:1024D000616C6C206F66207468652061626F766540
:1024E00000202020202020636F202020202020207A
:1024F0002D206261636B73207570207468652043C2
:102500004F2063616C6962726174696F6E207061E3
:1025100072616D6574657273002020202020206E2A
:102520006F322020202020202D206261636B7320D9
:10253000757020746865204E4F322063616C69624B
:10254000726174696F6E20706172616D657465721D
:1025500073002020202020206B657920202020205F
:10256000202D206261636B73207570207468652074
:102570003235362D62697420707269766174652017
:102580006B6579002020202020206D6163202020B1
:102590002020202D206261636B7320757020746889
:1025A0006520434333303030204D41432061646423
:1025B00072657373002020202020206D7174747068
:1025C000776420202D206261636B73207570207406
:1025D0006865204D5154542070617373776F726435
:1025E000002020203C706172616D3E206973206F75
:1025F0006E65206F663A006261636B7570203C7097
:102600006172616D3E0020202020202020202020AB
:10261000202066726F6D2067657474696E6720662E
:1026200069726D776172652075706461746573207D
:102630006F7665722074686520696E7465726E6568
:10264000742E002020207761726E696E673A2055E3
:1026500073696E67207468697320636F6D6D616E56
:102660006420696E636F72726563746C7920636154
:102670006E2070726576656E7420796F7572206455
:1026800065766963650020202020202020202020FE
:10269000202070726F6261626C79206E6F742062AC
:1026A00065207573696E67207468697320636F6D48
:1026B0006D616E642E002020206E6F74653A2020BC
:1026C0002020556E6C65737320796F75202A7265B2
:1026D000616C6C792A206B6E6F772077686174204B
:1026E000796F7527726520646F696E672C20796F2A
:1026F000752073686F756C64002020203C737472C1
:10270000696E673E206973207468652066696C6530
:102710006E616D6520746F206C6F61642066726FEE
:102720006D207468652055706461746520736572EE
:102730007665722C206578636C7564696E672074A9
:10274000686520657874656E73696F6E2E007570AC
:102750006461746566696C65203C737472696E6748
:102760003E002020202020202020202020206672D3
:102770006F6D2067657474696E67206669726D7726
:102780006172652075706461746573206F7665721F
:102790002074686520696E7465726E65742E002001
:1027A00020207761726E696E673A205573696E6793
:1027B000207468697320636F6D6D616E6420696E4B
:1027C000636F72726563746C792063616E207072DE
:1027D0006576656E7420796F7572206465766963BD
:1027E0006500202020202020202020202020707222
:1027F0006F6261626C79206E6F7420626520757300
:10280000696E67207468697320636F6D6D616E64B3
:102810002E002020206E6F74653A20202020556EF7
:102820006C65737320796F75202A7265616C6C79A1
:102830002A206B6E6F77207768617420796F752717
:10284000726520646F696E672C20796F75207368DC
:102850006F756C64002020203C737472696E673E53
:102860002069732074686520444E53206E616D6545
:10287000206F6620746865205570646174652073EC
:1028800065727665722E0075706461746573727618
:10289000203C737472696E673E002020203C6E7588
:1028A0006D6265723E206973207468652061206ED8
:1028B000756D626572206265747765656E20312082
:1028C000616E6420363535333520696E636C7573FF
:1028D000697665006D717474706F7274203C6E75EA
:1028E0006D6265723E002020203C737472696E67D1
:1028F0003E20697320746865206F6E65206F6620C6
:1029000027656E61626C6527206F7220276469738A
:1029100061626C6527006D71747461757468203C28
:10292000737472696E673E002020202020202020D2
:10293000202020204D7573742062652062657477B5
:1029400065656E203120616E6420323320636861DA
:1029500072616374657273206C6F6E67207065724C
:10296000204D5154542076332E3120737065632EE0
:10297000002020203C737472696E673E20697320CA
:1029800074686520436C69656E74204944207573D2
:10299000656420746F20636F6E6E65637420746F5E
:1029A00020746865204D51545420736572766572A9
:1029B0002E006D7174746964203C737472696E6763
:1029C0003E002020203C737472696E673E2069735C
:1029D0002074686520757365726E616D652075730E
:1029E000656420746F20636F6E6E65637420746F0E
:1029F00020746865204D5154542073657276657259
:102A00002E006D71747475736572203C73747269F5
:102A10006E673E002020203C737472696E673E2012
:102A200069732074686520444E53206E616D652083
:102A30006F6620746865204D51545420736572761A
:102A400065722E006D717474737276203C737472AB
:102A5000696E673E00202020202020746F2074685B
:102A600065204D515454207365727665722E002096
:102A700020203C737472696E673E2069732074680D
:102A8000652070617373776F726420746865206469
:102A900065766963652077696C6C20757365207451
:102AA0006F20636F6E6E65637420006D7174747057
:102AB0007764203C737472696E673E00202020208A
:102AC0002020202020202020202020616E642073E0
:102AD000686F756C6420696E6974696174652066DD
:102AE00069726D77617265207570646174652061CB
:102AF0006674657220636F6E6E656374696E6720BD
:102B0000746F2077692D66692E00202020202020F8
:102B1000202020202020202020636F6E66696775AA
:102B200072657320666F72206E6F726D616C206DBE
:102B30006F64652C20616E6420657869747320630E
:102B40006F6E666967206D6F64652C200020202001
:102B5000202020757064617465202D20696E766177
:102B60006C69646174657320746865206669726D50
:102B700077617265207369676E61747572652C2068
:102B8000002020203C706172616D3E206973206FCF
:102B90006E65206F663A00666F726365203C7061F7
:102BA00072616D3E00202020202020646863702028
:102BB0002D20776970657320746865205374617483
:102BC0006963204950206164647265737320667282
:102BD0006F6D2074686520454550524F4D00202090
:102BE000203C706172616D3E206973206F6E6520BC
:102BF0006F663A00757365203C706172616D3E00CE
:102C00002020206E6F74653A202020546F20636F5F
:102C10006E66696775726520444843502075736518
:102C200020636F6D6D616E64202775736520646825
:102C300063702700202020726573756C743A2054ED
:102C4000686520656E74657265642073746174696B
:102C500063206E6574776F726B20706172616D6551
:102C6000746572732077696C6C206265207573657A
:102C7000642062792074686520434333303030002B
:102C80002020202020203C706172616D343E206441
:102C90006E7320736572766572206970206164645A
:102CA000726573732C20652E672E20382E382E38CF
:102CB0002E38002020202020203C706172616D336E
:102CC0003E2064656661756C742067617465776128
:102CD0007920697020616464726573732C20652E9D
:102CE000672E203139322E3136382E312E310020E8
:102CF00020202020203C706172616D323E206E6584
:102D0000746D61736B2C20652E672E203235352E45
:102D10003235352E3235352E30002020202020202F
:102D20003C706172616D313E20737461746963201F
:102D3000697020616464726573732C20652E672E40
:102D4000203139322E3136382E312E3137002020C5
:102D5000203C636F6E6669673E20697320666F75FD
:102D6000722069702061646472657373207365708A
:102D70006172617465642062792073706163657348
:102D8000007374617469636970203C636F6E666977
:102D9000673E002020202020206175746F202D20A8
:102DA00064657465726D696E6520647572696E67BD
:102DB000206669727374206E6574776F726B20730E
:102DC00075636365737366756C207363616E002051
:102DD000202020202077706132202D20746865200B
:102DE0006E6574776F726B20575041322050657258
:102DF000736F6E616C2073656375726974790020FE
:102E0000202020202077706120202D2074686520EC
:102E10006E6574776F726B205750412050657273E6
:102E20006F6E616C20736563757269747900202020
:102E30002020202077657020202D20746865206E6A
:102E40006574776F726B2057455020736563757298
:102E5000697479002020202020206F70656E202D5D
:102E600020746865206E6574776F726B20697320BB
:102E7000756E73656375726564002020203C6D6F0C
:102E800064653E206973206F6E65206F663A00733B
:102E900065637572697479203C6D6F64653E0020CE
:102EA00020202020207468652053534944207468F2
:102EB0006174207468652064657669636520736851
:102EC0006F756C6420636F6E6E65637420746F2E13
:102ED000002020203C737472696E673E2069732065
:102EE000746865206E6574776F726B2070617373A0
:102EF000776F726420666F722000707764203C7375
:102F00007472696E673E002020203C737472696E93
:102F1000673E206973207468652053534944206FCD
:102F20006620746865206E6574776F726B207468B4
:102F300065206465766963652073686F756C6420CD
:102F4000636F6E6E65637420746F2E0073736964B3
:102F5000203C737472696E673E0020202020202080
:102F600070666F64202D207573652070666F6457DE
:102F7000696669436F6E6E65637420636F6E666920
:102F8000672070726F6365737320205B6E6F7420AF
:102F900079657420737570706F727465645D00205C
:102FA0002020202020736D617274636F6E666967E4
:102FB000202D2075736520736D61727420636F6EB0
:102FC0006669672070726F6365737300202020202C
:102FD0002020646972656374202D207573652070EC
:102FE0006172616D657465727320656E746572657A
:102FF0006420696E20434F4E464947206D6F6465DB
:10300000002020203C747970653E206973206F6E2B
:1030100065206F663A006D6574686F64203C747952
:1030200070653E002020202020202020202020200D
:10303000616E642069732073746F72656420696EB9
:103040002074686520454550524F4D2E00202020A9
:10305000726573756C743A202054686520656E74CF
:1030600065726564204D41432061646472657373C9
:103070002069732061737369676E656420746F20C3
:1030800074686520434333303030002020202020F6
:10309000202020202020202020202030383A61626B
:1030A0003A37333A44413A38663A303000202020EB
:1030B0003C616464726573733E2069732061204DC6
:1030C00041432061646472657373206F6620746885
:1030D0006520666F726D3A006D6163203C616464C7
:1030E000726573733E0020202020202068756D5F7C
:1030F0006F6666202020202D20726573746F7265C4
:1031000073207468652048756D69646974792072EC
:1031100065706F7274696E67206F66667365742080
:1031200066726F6D204241434B5550200020202095
:1031300020202074656D705F6F66662020202D2032
:10314000726573746F726573207468652054656D61
:103150007065726174757265207265706F727469E2
:103160006E67206F66667365742066726F6D2042AD
:1031700041434B55502000202020202020636F2009
:1031800020202020202020202D20726573746F7253
:1031900065732074686520434F2063616C696272B7
:1031A0006174696F6E20706172616D6574657273B0
:1031B0002066726F6D204241434B55502000202005
:1031C000202020206E6F3220202020202020202D43
:1031D00020726573746F72657320746865204E4F3A
:1031E000322063616C6962726174696F6E20706114
:1031F00072616D65746572732066726F6D204241F5
:10320000434B555020002020202020206B65792042
:10321000202020202020202D20726573746F72657D
:1032200073207468652050726976617465204B65FF
:10323000792066726F6D204241434B55502000202B
:10324000202020202075706461746566696C65209B
:103250002D20726573746F726573207468652055D4
:1032600070646174652066696C656E616D650020CF
:103270002020202020757064617465737276202090
:103280002D20726573746F726573207468652055A4
:10329000706461746520736572766572206E616D0D
:1032A00065002020202020206D7174746964202026
:1032B0002020202D20726573746F726573207468EE
:1032C00065204D51545420636C69656E74204944E7
:1032D000002020202020206D7174747077642020DD
:1032E00020202D20726573746F7265732074686579
:1032F000204D5154542070617373776F726420664F
:10330000726F6D204241434B5550200020202020F9
:10331000202020202020202020202020202020616C
:103320006E642061737369676E7320697420746FB3
:1033300020746865204343333030302C2076696137
:10334000206120276D61632720636F6D6D616E645E
:10335000002020202020206D6163202020202020BC
:1033600020202D20726574726965766573207468FB
:1033700065206D6163206164647265737320667299
:103380006F6D204241434B555000202020202020CB
:1033900020202020202020202020202020636C6559
:1033A00061727320746865204E6574776F726B204C
:1033B00050617373776F72642066726F6D206D65F4
:1033C0006D6F7279002020202020202020202020D6
:1033D0002020202020202020636C656172732074DF
:1033E000686520535349442066726F6D206D656D8A
:1033F0006F727900202020202020202020202020F3
:1034000020202020202020706572666F726D73204E
:1034100027726573746F726520636F270020202008
:10342000202020202020202020202020202020209C
:10343000706572666F726D732027726573746F7238
:1034400065206E6F322700202020202020202020A1
:1034500020202020202020202020706572666F729E
:103460006D732027726573746F7265206B657927A1
:10347000002020202020202020202020202020206C
:1034800020202020706572666F726D732027726530
:1034900073746F72652075706461746566696C65BC
:1034A0002700202020202020202020202020202035
:1034B0002020202020706572666F726D7320277245
:1034C0006573746F7265207570646174657372766C
:1034D0002700202020202020202020202020202005
:1034E0002020202020706572666F726D7320277215
:1034F0006573746F7265206D717474696427002040
:1035000020202020202020202020202020202020BB
:103510002020706572666F726D73202772657374F8
:103520006F7265206D71747470776427002020209D
:10353000202020202020202020202020202020208B
:10354000706572666F726D732027726573746F7227
:1035500065206D616327002020202020202020206E
:1035600020202020202020202020706572666F728D
:103570006D73202768756D5F6F666620302E30276B
:10358000002020202020202020202020202020205B
:1035900020202020706572666F726D73202774651D
:1035A0006D705F6F666620332E3527002020202047
:1035B00020202020202020202020202020202070BB
:1035C0006572666F726D7320276D717474757365A3
:1035D00072207769636B656464657669636527004B
:1035E00020202020202020202020202020202020DB
:1035F000202020706572666F726D7320276D717464
:10360000746175746820656E61626C6527002020A6
:1036100020202020202020202020202020202020AA
:1036200020706572666F726D7320276D717474708F
:103630006F7274203138383327002020202020205A
:103640002020202020202020202020202070657293
:10365000666F726D7320276D717474737276206F4C
:1036600070656E73656E736F72732E696F270020BD
:10367000202020202020202020202020202020204A
:103680002020706572666F726D73202774656D708F
:10369000756E6974204327002020202020202020E0
:1036A0002020202020202020202020706572666F9E
:1036B000726D7320276F706D6F6465206E6F726D11
:1036C000616C270020202020202020202020202086
:1036D00020202020202020706572666F726D73207C
:1036E00027757365206468637027002020202020E0
:1036F0002020202020202020202020202020706535
:1037000072666F726D732027736563757269747961
:1037100020777061322700202020202020646566F9
:1037200061756C7473202D202020706572666F7235
:103730006D7320276D6574686F64206469726563BA
:103740007427002020203C706172616D3E206973F7
:10375000206F6E65206F663A00726573746F7265D4
:10376000203C706172616D3E00202020202020737B
:103770006D617274636F6E666967202D20696E6972
:1037800074696174652074686520536D6172744357
:103790006F6E6669672070726F66696C6520637210
:1037A000656174696F6E2070726F6365737300205A
:1037B0002020202020202020202020202020202009
:1037C0002020207468652043433330303020616E00
:1037D000642073746F72657320697420696E20456C
:1037E0004550524F4D002020202020206D61632045
:1037F00020202020202020202D20726574726965F1
:1038000076657320746865206D61632061646472FD
:103810006573732066726F6D002020203C706172AA
:10382000616D3E206973206F6E65206F663A006996
:103830006E6974203C706172616D3E002020202012
:10384000202020202020206973207072696E74650A
:103850006420746F2074686520636F6E736F6C658D
:103860002E00202020726573756C743A2074686590
:103870002063757272656E742C2068756D616E2D93
:103880007265616461626C652C2076616C7565207F
:103890006F66203C706172616D3E00202020202008
:1038A0002074656D70756E6974202D2074686520B4
:1038B000756E6974206F66206D6561737572652021
:1038C00054656D70657261747572652069732072DC
:1038D00065706F7274656420696E202846206F726F
:1038E000204329002020202020206F706D6F646508
:1038F000202D20746865204F7065726174696F6E49
:10390000616C204D6F646520746865204567672091
:10391000697320636F6E6669677572656420666F90
:1039200072002020202020206B6579202D206C6FD4
:103930006C2C20736F7272792C20746861742773F9
:1039400020616C736F206E6F742068617070656E9B
:10395000696E67210020202020202068756D5F6F30
:103960006666202D2048756D6964697479207365D9
:103970006E736F72207265706F7274696E67206FFC
:103980006666736574205B255D20287375627472AA
:103990006163746564290020202020202074656DF7
:1039A000705F6F6666202D2054656D70657261745E
:1039B0007572652073656E736F72207265706F72B9
:1039C00074696E67206F6666736574205B646567F3
:1039D000435D2028737562747261637465642900A5
:1039E000202020202020636F5F6F6666202D2043FB
:1039F0004F2073656E736F7273206F6666736574A4
:103A0000205B565D00202020202020636F5F736CB8
:103A10006F7065202D20434F2073656E736F727336
:103A200020736C6F7065205B70706D2F565D002089
:103A30002020202020636F5F63616C202D20434F86
:103A40002073656E7369746976697479205B6E4161
:103A50002F70706D5D002020202020206E6F325F5F
:103A60006F6666202D204E4F322073656E736F7225
:103A700073206F6666736574205B565D002020209E
:103A80002020206E6F325F736C6F7065202D204E8A
:103A90004F322073656E736F727320736C6F706535
:103AA000205B7070622F565D002020202020206E49
:103AB0006F325F63616C202D204E4F322073656E34
:103AC0007369746976697479205B6E412F70706DCB
:103AD0005D00202020202020757064617465666977
:103AE0006C65202D205570646174652066696C6575
:103AF0006E616D6520286E6F20657874656E7369E0
:103B00006F6E29002020202020207570646174656C
:103B1000737276202D205570646174652073657210
:103B2000766572206E616D65002020202020206D5A
:103B300071747461757468202D204D515454206146
:103B4000757468656E7469636174696F6E20656E03
:103B500061626C65643F002020202020206D71741C
:103B6000746964202D204D51545420636C69656E36
:103B700074204944002020202020206D717474702E
:103B80007764202D206C6F6C2C20736F7272792CEF
:103B900020746861742773206E6F74206861707080
:103BA000656E696E67206569746865722100202002
:103BB000202020206D71747475736572202D204D46
:103BC00051545420757365726E616D65002020201C
:103BD0002020206D717474706F7274202D204D51EF
:103BE00054542073657276657220706F7274002071
:103BF00020202020206D717474737276202D204D4A
:103C000051545420736572766572206E616D650043
:103C100020202020202069706D6F6465202D207485
:103C200068652057692D46692049502D616464728A
:103C3000657373206D6F6465002020202020207341
:103C400065637572697479202D20746865205769E1
:103C50002D4669207365637572697479206D6F6490
:103C60006500202020202020707764202D206C6F9C
:103C70006C2C20736F7272792C20746861742773B6
:103C8000206E6F742068617070656E696E672100C8
:103C900020202020202073736964202D2074686503
:103CA0002057692D4669205353494420746F20637F
:103CB0006F6E6E65637420746F00202020202020BA
:103CC0006D6574686F64202D207468652057692DB8
:103CD000466920636F6E6E656374696F6E206D65F3
:103CE00074686F64002020202020206D6163202DE7
:103CF00020746865204D414320616464726573736C
:103D0000206F662074686520636333303030002094
:103D1000202020202073657474696E6773202D2025
:103D2000646973706C61797320616C6C207669656D
:103D30007761626C652073657474696E67730020C7
:103D400020203C706172616D3E206973206F6E654A
:103D5000206F663A00676574203C706172616D3E49
:103D600000202020657869747320434F4E464947F0
:103D7000206D6F646520616E6420626567696E7393
:103D8000204F5045524154494F4E414C206D6F6475
:103D9000652E0065786974002020202020202020D6
:103DA000202020666F722074686520636F6D6D61DE
:103DB0006E64206E616D6564203C6172673E002018
:103DC0002020726573756C743A2075736167652085
:103DD000696E737472756374696F6E732061726556
:103DE000207072696E746564002020203C706172DE
:103DF000616D3E20697320616E79206C6567616C2E
:103E000020636F6D6D616E64206B6579776F72648E
:103E10000068656C70203C706172616D3E00686581
:103E20006C702020202009657869742020202009EA
:103E30000020202020202020202020202066726FBB
:103E40006D20636F6E6E656374696E6720746F209A
:103E5000796F7572206E6574776F726B2E002020FB
:103E6000207761726E696E673A205573696E6720BC
:103E70007468697320636F6D6D616E6420696E6331
:103E80006F72726563746C792063616E2070726505
:103E900076656E7420796F757220646576696365E6
:103EA0000020202020202020202020202066726F4B
:103EB0006D207075626C697368696E6720646174E7
:103EC0006120746F2074686520696E7465726E6518
:103ED000742E002020207761726E696E673A20553B
:103EE00073696E67207468697320636F6D6D616EAE
:103EF0006420696E636F72726563746C79206361AC
:103F00006E2070726576656E7420796F75722064AC
:103F10006576696365002020202020202020202055
:103F2000202070726F6261626C79206E6F74206203
:103F300065207573696E67207468697320636F6D9F
:103F40006D616E642E002020206E6F74653A202013
:103F50002020556E6C65737320796F75202A726509
:103F6000616C6C792A206B6E6F77207768617420A2
:103F7000796F7527726520646F696E672C20796F81
:103F8000752073686F756C64004151453E3A20009E
:103F900022004572726F723A2045787065637469C9
:103FA0006E6720436F6E666967204D6F64652055AC
:103FB0006E6C6F636B20436F6465202822617165AE
:103FC00022292C20627574207265636569766564A8
:103FD000202200222C20627574206E6F6E6520777F
:103FE0006173207265636569766564004572726FFE
:103FF000723A20417267756D656E742065787065E0
:104000006374656420666F7220636F6D6D616E64AA
:1040100020220022004572726F723A20556E6B6E3C
:104020006F776E20636F6D6D616E6420220045783E
:104030006974696E6720434F4E464947206D6F642F
:10404000652E2E2E005761726E3A20496E7075747F
:10405000206275666665722066756C6C20616E64A0
:104060002063616E6E6F7420616363657074206E8F
:10407000657720636861726163746572732E205086
:104080007265737320656E74657220746F20636C43
:1040900065617220627566666572732E004661699D
:1040A0006C65642E004F4B2E002020534D4152541E
:1040B00020434F4E464947202020205245434F4E33
:1040C0004E454354494E47202000496E666F3A20C2
:1040D00043433330303020496E697469616C697ACA
:1040E0006174696F6E2E2E2E004661696C65642EB8
:1040F000004F4B2E00496E666F3A20434F205365A8
:104100006E736F722041444320496E697469616C1B
:10411000697A6174696F6E2E2E2E004661696C6536
:10412000642E004F4B2E00496E666F3A20434F209D
:1041300053656E736F722041464520496E697469FC
:10414000616C697A6174696F6E2E2E2E004661690A
:104150006C65642E004F4B2E00496E666F3A204E00
:104160004F322053656E736F722041444320496E75
:10417000697469616C697A6174696F6E2E2E2E00A4
:104180004661696C65642E004F4B2E00496E666F68
:104190003A204E4F322053656E736F722041464570
:1041A00020496E697469616C697A6174696F6E2EF9
:1041B0002E2E004661696C65642E004F4B2E00491F
:1041C0006E666F3A20534854323520496E697469DF
:1041D000616C697A6174696F6E2E2E2E004661697A
:1041E0006C2E004F4B2E00496E666F3A205350499B
:1041F00020466C61736820496E697469616C697AE4
:104200006174696F6E2E2E2E004F4B2E00496E6624
:104210006F3A20536C6F742053656C656374205043
:10422000696E7320496E697469616C697A61746939
:104230006F6E2E2E2E00414952205155414C49544B
:10424000592045474720004F4B2E00496E666F3A74
:104250002054696E79205761746368646F672049E0
:104260006E697469616C697A6174696F6E2E2E2E45
:1042700000204567672053657269616C204E756D3B
:104280006265723A200020436F6D70696C6564202E
:104290006F6E3A2000202B2D2D2D2D2D2D2D2D2D07
:1042A0002D2D2D2D2D2D2D2D2D2D2D2D2D2D2D2D3E
:1042B0002D2D2D2D2D2D2D2D2D2D2D2B0020202084
:1042C000202020207C00207C202020202020204630
:1042D00069726D776172652056657273696F6E20C1
:1042E00000207C202020202020204E4F32202F2014
:1042F000434F2053656E736F722053756974652048
:10430000202020202020207C00207C202020576599
:104310006C636F6D6520746F204169722051756107
:104320006C6974792045676720322E302020207C0C
:1043300000202B2D2D2D2D2D2D2D2D2D2D2D2D2DE9
:104340002D2D2D2D2D2D2D2D2D2D2D2D2D2D2D2D9D
:104350002D2D2D2D2D2D2D2B00496E666F3A2057BA
:1043600061746368646F67205065742E00496E66DF
:104370006F3A2053616D706C696E672053656E7380
:104380006F7273204020005A45524F2D494E4720EE
:1043900053454E534F52534E4F3220202D2D2D203A
:1043A00020434F202D2D2D0054454D50202D2D2DD7
:1043B00020205248202D2D2D4E4F3220202D2D2DE6
:1043C0002020434F202D2D2D004572726F723A2010
:1043D000556E61626C6520746F20636F6E6E6563ED
:1043E0007420746F204D5154542073657276657239
:1043F0000020204D51545420434F4E4E45435420ED
:104400002020202020204641494C454420202020C7
:104410002000434F4E46494720494E544547524994
:1044200054592020434845434B204641494C45447C
:104430002020004572726F723A20436F6E66696782
:1044400020496E7465677269747920436865636B8F
:10445000204661696C6564206166746572206368DA
:1044600065636B466F724669726D776172655570F0
:10447000646174657300496E666F3A204D697272AB
:104480006F72656420636F6E6669677572617469C7
:104490006F6E20616C7265616479206D6174636810
:1044A00065732063757272656E7420636F6E6669E2
:1044B0006775726174696F6E2E004572726F723A21
:1044C000204D6972726F72656420636F6E666967F2
:1044D00075726174696F6E20636F6D6D69742066AB
:1044E00061696C656420746F2076616C69646174C5
:1044F000652E004572726F723A204661696C656480
:1045000020746F20636F6E6E65637420746F206318
:104510006F6E66696775726564206E6574776F7219
:104520006B2E205265626F6F74696E672E004F505C
:1045300045524154494F4E414C204D4F4445002D6A
:104540007E3D2A20496E204F5045524154494F4EDE
:10455000414C204D6F6465202A3D7E2D00496E66DA
:104560006F3A2049646C652074696D6520657870C8
:10457000697265642C2065786974696E6720434FA1
:104580004E464947206D6F64652E0020403D3D3DFD
:104590003D3D3D3D3D3D3D3D3D3D3D3D3D3D3D3D4B
:1045A0003D3D3D3D3D3D3D3D3D3D3D3D3D3D3D3D3B
:1045B0003D3D3D3D3D3D3D3D3D3D3D3D3D3D3D3D2B
:1045C0003D3D3D3D3D3D3D3D3D3D400020232020C6
:1045D000202020616E642076657269667920746897
:1045E0006174207468652045676720636F6E6E652F
:1045F00063747320746F20796F7572206E657477A1
:104600006F726B21202020202020202300202320D7
:10461000202046696E616C6C792C2074797065205D
:1046200027657869742720746F20676F20696E741E
:104630006F204F5045524154494F4E414C206D6FB1
:1046400064652C20202020202020202023002023EF
:104650002020205468656E20747970652027676576
:10466000742073657474696E6773272026207072D6
:10467000657373203C656E7465723E20746F2072A2
:10468000657669657720636F6E6669672023002011
:10469000232020205468656E20747970652027706F
:1046A000776420796F75725F6E6574776F726B5F78
:1046B00070617373776F7264272026207072657340
:1046C00073203C656E7465723E20202020202300FC
:1046D000202320202046697273742074797065202D
:1046E000277373696420796F75725F737369645F90
:1046F000686572652720616E64202620707265737C
:1047000073203C656E7465723E202020202020239B
:104710000020232D2D2D2D2D2D2D2D2D2D2D2D2D0D
:104720002D2D2D2D2D2D2D2D2D2D2D2D2D2D2D2DB9
:104730002D2D2D2D2D2D2D2D2D2D2D2D2D2D2D2DA9
:104740002D2D2D2D2D2D2D2D2D2D2D2D2D2D2D2D99
:10475000230020232047455454494E4720535441B9
:10476000525445442020202020202020202020209A
:104770002020202020202020202020202020202039
:104780002020202020202020202020202020202029
:1047900020230020403D3D3D3D3D3D3D3D3D3D3DD7
:1047A0003D3D3D3D3D3D3D3D3D3D3D3D3D3D3D3D39
:1047B0003D3D3D3D3D3D3D3D3D3D3D3D3D3D3D3D29
:1047C0003D3D3D3D3D3D3D3D3D3D3D3D3D3D3D3D19
:1047D0003D3D40002020202020202E2E2E6F7220D4
:1047E0002768656C70203C636D643E2720666F729D
:1047F0002068656C70206F6E20612073706563693E
:1048000066696320636F6D6D616E6400456E7465EB
:1048100072202768656C702720666F722061206C9B
:10482000697374206F6620617661696C61626C6582
:1048300020636F6D6D616E64732C2000206D696E56
:104840007320776974686F757420696E7075742E43
:10485000004F5045524154494F4E414C206D6F64BA
:104860006520626567696E73206175746F6D617430
:104870006963616C6C792061667465722000202028
:10488000434F4E464947204D4F4445002D7E3D2A1B
:1048900020496E20434F4E464947204D6F646520A6
:1048A0002A3D7E2D002E2E2E00434F4E4E45435462
:1048B000205445524D494E414C464F5220434F4E95
:1048C000464947204D4F44452000207365637320BF
:1048D0006F66206E6F20696E7075742E004F5045A4
:1048E000524154494F4E414C206D6F6465206175B3
:1048F000746F6D61746963616C6C7920626567695E
:104900006E732061667465722000456E7465722056
:10491000276171652720666F7220434F4E464947D5
:10492000206D6F64652E0020202056414C494420A4
:1049300053534944202020202020205245515549DE
:104940005245442020202000496E666F3A204E6F69
:104950002076616C6964205353494420636F6E660E
:104960006967757265642C206175746F6D61746917
:1049700063616C6C792066616C6C696E6720626142
:10498000636B20746F20434F4E464947206D6F6420
:10499000652E00434F4E46494720494E54454752E5
:1049A0004954592020434845434B204641494C45F2
:1049B00044202000496E666F3A20436F6E66696737
:1049C000206D656D6F727920696E746567726974A8
:1049D0007920636865636B206661696C65642C206F
:1049E0006175746F6D61746963616C6C7920666167
:1049F0006C6C696E67206261636B20746F20434F3B
:104A00004E464947206D6F64652E00496E666F3AC9
:104A1000205374617274757020636F6E66696720CD
:104A2000696E7465677269747920636865636B2069
:104A30007061737365642C20627574206D69727285
:104A40006F72656420636F6E66696720646966666D
:104A50006572732C20617474656D7074696E672063
:104A6000746F20726573746F72652066726F6D204B
:104A70006D6972726F72656420636F6E66696775C7
:104A8000726174696F6E2E00496E666F3A205374BE
:104A9000617274757020636F6E66696720696E74E9
:104AA00065677269747920636865636B2066616904
:104AB0006C65642C20617474656D7074696E672018
:104AC000746F20726573746F72652066726F6D20EB
:104AD0006D6972726F72656420636F6E6669677567
:104AE000726174696F6E2E005F5E5F605F5E5F6013
:104AF0005F5E5F605F5E5F605F616970757778754C
:104B00006F675F5E5F605F5E6483A2C1E0FFF4D6A3
:104B1000B798795F5850474A525A605F5E5F60614C
:104B20006A71787D81848583807C766F67605F6041
:104B30005F5E5F605F5E5F63696A656000000000E2
:104B40000103080004020700090A00000000000039
:104B50000000000000000000000000000102040846
:104B6000082040081010802040801004204080025F
:104B7000010104020102040810204080040404041E
:104B800002040403040204020202030303030303F6
:104B900003020202010101010101010100002000E4
:104BA00023002600290000002200250028002B00F9
:104BB00000002100240027002A004E414E494E49A2
:104BC0005459494E46CDCCCC3D0AD7233C17B7D1DA
:104BD0003877CC2B329595E6241FB14F0A00002080
:104BE000410000C84200401C4620BCBE4CCA1B0EFF
:104BF0005AAEC59D74003F55A36867777277839856
:104C000056A5B5AC3DAD11241FBECFEFD0E4DEBF3D
:104C1000CDBF10E1A0E0B1E0ECE2FEE601E00BBFA9
:104C200002C007900D92AC3CB107D9F723E2ACEC7F
:104C3000B0E101C01D92A834B207E1F71BE4C6E061
:104C4000DCE400E006C022970109FE010BBF0E94D0
:104C50007EB0C63FD10780E00807A9F70E94C4AC28
:104C60000C9414B70C9400008627682F629568276F
:104C7000062E669566956025062E669560256770FA
:104C8000082E892F669507946795902D86270694A0
:104C900067959025862708959B01AC0168E27BE625
:104CA0008EE69EE40E94E9AD20E030E849EF53E44F
:104CB0000E94E9AD08959B01AC0160E074E284E7D5
:104CC00099E40E94E9AD20E030E048EC52E40E9413
:104CD000E9AD0895BF92CF92DF92EF92FF920F93CA
:104CE0001F93CF93DF93B62E69017A01E8012091DB
:104CF000D2113091D3112F3F310509F090F4A90161
:104D00004F5F5F4F5093D3114093D211F901EE5290
:104D1000FF4E80834115514021F41092D31110921F
:104D2000D211B11007C08091D2119091D311892B6B
:104D300009F0E1C08091CE109091CF10A091D010D9
:104D4000B091D1109F70AA27BB27892B8A2B8B2B60
:104D500051F00091D2111091D31101151105E1F418
:104D600000E011E019C080ED9BE10E94D19A811111
:104D7000FACF4091CE105091CF106091D010709129
:104D8000D11080ED9BE10E94F99B80ED9BE10E9498
:104D9000D19A8111FACFDDCF4091CE105091CF1032
:104DA0006091D0107091D11022ED30E180ED9BE147
:104DB0000E94BC9B80E091E0E2EDF0E1DF019C010C
:104DC0001D9221503040E1F78091CE109091CF108C
:104DD000A091D010B091D1109F5FAF4FBF4F809383
:104DE000CE109093CF10A093D010B093D110BB20D1
:104DF00009F481C08091C2189091C318A091C41881
:104E0000B091C518C816D906EA06FB0611F5AE0121
:104E100060E070E08091BE189091BF18A091C0181A
:104E2000B091C118481759076A077B0791F481E0D0
:104E30008093B6186FE972E089EA92E2DF91CF9130
:104E40001F910F91FF90EF90DF90CF90BF900C9447
:104E5000D8A860E872E089EA92E20E94D8A865E6E4
:104E600072E089EA92E20E9496A84091BE185091A1
:104E7000BF186091C0187091C1182AE030E089EA2B
:104E800092E20E94A7A961E572E089EA92E20E949B
:104E900096A84AE050E0BE0189EA92E20E94D8A9B1
:104EA00066E372E089EA92E20E9496A84091C218F5
:104EB0005091C3186091C4187091C5182AE030E071
:104EC00089EA92E20E94A7A962E272E089EA92E28C
:104ED0000E9496A82AE030E0B701A60189EA92E292
:104EE000DF91CF911F910F91FF90EF90DF90CF90C6
:104EF000BF900C94EEA9DF91CF911F910F91FF907D
:104F0000EF90DF90CF90BF900895CF93DF9300D0C4
:104F1000CDB7DEB7662309F455C04AE050E0BE01C4
:104F20006F5F7F4F85ED91E10E94F3B16093C218EE
:104F30007093C3188093C4189093C51889819A817F
:104F4000009789F04AE050E060E070E00E94F3B121
:104F50006093BE187093BF188093C0189093C118C7
:104F600081E08093B71865E172E089EA92E20E94DD
:104F7000EAA86EE272E089EA92E20E94BBA8409140
:104F8000C2185091C3186091C4187091C5182AE0D6
:104F900030E089EA92E20E94EEA963E472E089EAD5
:104FA00092E20E94BBA84091BE185091BF18609138
:104FB000C0187091C1182AE030E089EA92E20E949C
:104FC000EEA90CC0E091D411EF3340F491E09E0FB4
:104FD0009093D411F0E0EB52FE4E80830F900F902F
:104FE000DF91CF91089560EA7FE080E090E00C943B
:104FF00009A760ED77E080E090E00C9409A71F928C
:1050000081E08F931F921F921F9282E08F9381E322
:105010009BE09F938F931F928FE08F9381EA98E19B
:105020009F938F930E94DAB38DB79EB70C960FB6FD
:10503000F8949EBF0FBE8DBF089569E87FE389EAAB
:1050400092E20C9496A80F931F93CF93DF93FC01E9
:1050500001900020E9F73197E81BF90BEF3F2FEFA4
:10506000F20779F0EC018C010E0F1F1FC017D1075A
:1050700041F08881992787FD90950E942BB38993F1
:10508000F5CFDF91CF911F910F91089566E47FE3F3
:1050900089EA92E20E94D8A866E17FE389EA92E277
:1050A0000C94D8A863ED7EE389EA92E20E94D8A826
:1050B00061EA7EE389EA92E20C94D8A86EE57EE389
:1050C00089EA92E20E94D8A861E37EE389EA92E24B
:1050D0000C94D8A80F931F93CF93DF93EC010E94F9
:1050E00023282097A9F56EE17EE389EA92E20E94E7
:1050F00096A810E003E082E0810FC12FD0E0CC0F32
:10510000DD1FFE01E55BFE4F20813181232BC1F0C5
:10511000602F0E94F6AF911104C089EA92E20E94CA
:10512000C4A8C55BDE4F6881798189EA92E20E945A
:10513000BBA869E089EA92E20E94BDA81F5FDBCFAD
:1051400089EA92E2DF91CF911F910F910C94C4A84C
:1051500044E050E0BE018DE592E00E9496B3892BB9
:10516000A9F461E17EE389EA92E20E94D8A869EE9F
:105170007DE389EA92E20E94D8A86FEB7DE389EA99
:1051800092E20E94D8A868E97DE3F1C444E050E0CF
:10519000BE0182E692E00E9496B3892B49F463E94E
:1051A0007DE389EA92E20E94D8A861E67DE3DFC44C
:1051B00043E050E0BE0187E692E00E9496B3892B5F
:1051C00009F0B1C065E57DE389EA92E20E94D8A8C2
:1051D0006FE37DE389EA92E20E94D8A86FE07DE365
:1051E00089EA92E20E94D8A865EE7CE389EA92E21D
:1051F0000E94D8A86AEB7CE389EA92E20E94D8A8D0
:1052000060E97CE389EA92E20E94D8A862E67CE346
:1052100089EA92E20E94D8A869E37CE389EA92E2F3
:105220000E94D8A860E17CE389EA92E20E94D8A8B3
:105230006FEE7BE389EA92E20E94D8A86DEC7BE3F3
:1052400089EA92E20E94D8A86EEA7BE389EA92E2B8
:105250000E94D8A865E77BE389EA92E20E94D8A879
:1052600067E57BE389EA92E20E94D8A869E27BE3E2
:1052700089EA92E20E94D8A864E07BE389EA92E29C
:105280000E94D8A862ED7AE389EA92E20E94D8A847
:1052900069EA7AE389EA92E20E94D8A86DE77AE3A4
:1052A00089EA92E20E94D8A866E57AE389EA92E266
:1052B0000E94D8A86FE27AE389EA92E20E94D8A815
:1052C00065E07AE389EA92E20E94D8A860EE79E389
:1052D00089EA92E20E94D8A867E979E389EA92E232
:1052E0000E94D8A865E579E389EA92E20E94D8A8ED
:1052F00062E279E389EA92E20E94D8A864EE78E358
:1053000089EA92E20E94D8A86BE978E389EA92E2FE
:105310000E94D8A862E678E389EA92E20E94D8A8BF
:105320006CE378E324C444E050E0BE018BE692E0F5
:105330000E9496B3892BD9F46FE278E389EA92E26E
:105340000E94D8A869E178E389EA92E20E94D8A88D
:1053500066EE77E389EA92E20E94D8A86FEA77E3E3
:1053600089EA92E20E94D8A869E677E300C447E0A0
:1053700050E0BE0180E792E00E9496B3892B09F0CD
:10538000C9C069E577E389EA92E20E94D8A863E49C
:1053900077E389EA92E20E94D8A867E177E389EA95
:1053A00092E20E94D8A86BEE76E389EA92E20E942C
:1053B000D8A864EC76E389EA92E20E94D8A868E96A
:1053C00076E389EA92E20E94D8A86FE676E389EA5A
:1053D00092E20E94D8A86AE376E389EA92E20E9408
:1053E000D8A86EE076E389EA92E20E94D8A860EE3F
:1053F00075E389EA92E20E94D8A86CEA75E389EA2B
:1054000092E20E94D8A861E875E389EA92E20E94DC
:10541000D8A867E575E389EA92E20E94D8A86DE210
:1054200075E389EA92E20E94D8A86FEF74E389EAF3
:1054300092E20E94D8A862ED74E389EA92E20E94A7
:10544000D8A862EA74E389EA92E20E94D8A861E7E8
:1054500074E389EA92E20E94D8A867E474E389EAD7
:1054600092E20E94D8A86DE174E389EA92E20E9478
:10547000D8A864EF73E389EA92E20E94D8A865ECA9
:1054800073E389EA92E20E94D8A86AE873E389EAA2
:1054900092E20E94D8A861E573E389EA92E20E9451
:1054A000D8A86CE073E389EA92E20E94D8A861ED83
:1054B00072E389EA92E20E94D8A862EA72E389EA7A
:1054C00092E20E94D8A86FE672E389EA92E20E9413
:1054D000D8A86FE372E389EA92E20E94D8A866E056
:1054E00072E389EA92E20E94D8A86EEB71E389EA3E
:1054F00092E20E94D8A867E771E389EA92E20E94EB
:10550000D8A86DE271E389EA92E20E94D8A866EE1B
:1055100070E32DC343E050E0BE0188E792E00E94B3
:1055200096B3892BD9F468ED70E389EA92E20E9480
:10553000D8A86DEA70E389EA92E20E94D8A86BE8E5
:1055400070E389EA92E20E94D8A86DE470E389EAE8
:1055500092E20E94D8A864E270E3CBC046E050E03B
:10556000BE018CE792E00E9496B3892BD9F466E1E4
:1055700070E389EA92E20E94D8A861E070E389EAC8
:1055800092E20E94D8A86CEC7FE289EA92E20E9443
:10559000D8A86FE97FE289EA92E20E94D8A86AE57A
:1055A0007FE2A7C044E050E0BE0183E892E00E94A1
:1055B00096B3892B49F46CE47FE289EA92E20E9477
:1055C000D8A867E07FE295C043E050E0BE0188EADA
:1055D00092E00E9496B3892B79F46AEF7EE289EA21
:1055E00092E20E94D8A861ED7EE289EA92E20E94EE
:1055F000D8A86FE97EE27DC048E050E0BE0188E8AF
:1056000092E00E9496B3892B39F56FE87EE289EA31
:1056100092E20E94D8A86AE77EE289EA92E20E94BA
:10562000D8A864E57EE289EA92E20E94D8A86EE2F8
:105630007EE289EA92E20E94D8A86FEF7DE289EAD1
:1056400092E20E94D8A86FEC7DE289EA92E20E9481
:10565000D8A863E97DE24DC048E050E0BE0181E991
:1056600092E00E9496B3892B69F561E87DE289EAB0
:1056700092E20E94D8A86EE47DE289EA92E20E945A
:10568000D8A86AE17DE289EA92E20E94D8A86FEE8A
:105690007CE289EA92E20E94D8A863EB7CE289EA84
:1056A00092E20E94D8A860E87CE289EA92E20E9435
:1056B000D8A864E37CE289EA92E20E94D8A860E07C
:1056C0007CE217C043E050E0BE018AE992E00E940C
:1056D00096B3892BC1F464EF7BE289EA92E20E94DF
:1056E000D8A86EED7BE289EA92E20E94D8A865EA2A
:1056F0007BE289EA92E20E94D8A8DF91CF911F91C4
:105700000F910C945E2845E050E0BE018EE992E0D6
:105710000E9496B3892BD9F467E97BE289EA92E289
:105720000E94D8A861E87BE289EA92E20E94D8A8A8
:105730006DE47BE289EA92E20E94D8A86AE07BE20B
:1057400089EA92E20E94D8A86CEB7AE210C247E0A4
:1057500050E0BE0184EA92E00E9496B3892B79F46E
:105760006BEA7AE289EA92E20E94D8A86FE67AE2CE
:1057700089EA92E20E94D8A865E57AE25FC047E034
:1057800050E0BE018CEA92E00E9496B3892B49F466
:1057900064E47AE289EA92E20E94D8A864E17AE2BB
:1057A0004DC048E050E0BE0184EB92E00E9496B309
:1057B000892B49F462E07AE289EA92E20E94D8A851
:1057C00062EC79E23BC046E050E0BE018DEB92E036
:1057D0000E9496B3892B79F462EB79E289EA92E22E
:1057E0000E94D8A861E779E289EA92E20E94D8A8EB
:1057F00068E279E223C048E050E0BE0184EC92E028
:105800000E9496B3892B49F466E179E289EA92E233
:105810000E94D8A866EE78E211C048E050E0BE01D0
:105820008DEC92E00E9496B3892BA1F464ED78E2AE
:1058300089EA92E20E94D8A86AE978E289EA92E2CB
:105840000E94D8A80E944628DF91CF911F910F9106
:105850000C94522849E050E0BE0186ED92E00E948F
:1058600096B3892B09F567E878E289EA92E20E940B
:10587000D8A865E578E289EA92E20E94D8A862E1B8
:1058800078E289EA92E20E94D8A862EE77E289EA99
:1058900092E20E94D8A86FE977E289EA92E20E9438
:1058A000D8A862E677E263C14AE050E0BE0180EE2C
:1058B00092E00E9496B3892B09F56EE477E289EABB
:1058C00092E20E94D8A869EF76E289EA92E20E9409
:1058D000D8A866EB76E289EA92E20E94D8A866E848
:1058E00076E289EA92E20E94D8A863E476E289EA45
:1058F00092E20E94D8A866E076E239C143E050E027
:10590000BE018BEE92E00E9496B3892B69F567EF9A
:1059100075E289EA92E20E94D8A861EE75E289EA0E
:1059200092E20E94D8A865EB75E289EA92E20E94B1
:10593000D8A864E875E289EA92E20E94D8A862E5F4
:1059400075E289EA92E20E94D8A869E175E289EAE3
:1059500092E20E94D8A861EE74E289EA92E20E9483
:10596000D8A86AEB74E203C147E050E0BE0182EFC1
:1059700092E00E9496B3892B79F469EA74E289EA8D
:1059800092E20E94D8A86CE674E289EA92E20E9450
:10599000D8A862E374E2EBC049E050E0BE018AEFB0
:1059A00092E00E9496B3892B49F46FE174E289EA90
:1059B00092E20E94D8A862EE73E2D9C047E050E0BC
:1059C000BE0184E093E00E9496B3892B49F461ED17
:1059D00073E289EA92E20E94D8A867E973E2C7C03D
:1059E00046E050E0BE018CE093E00E9496B3892B24
:1059F00079F467E873E289EA92E20E94D8A86BE43E
:105A000073E289EA92E20E94D8A862E173E2AFC031
:105A100048E050E0BE0183E193E00E9496B3892BF9
:105A200049F460E073E289EA92E20E94D8A864EC4B
:105A300072E29DC046E050E0BE018CE193E00E941E
:105A400096B3892B49F464EB72E289EA92E20E94F0
:105A5000D8A86BE772E28BC048E050E0BE0183E259
:105A600093E00E9496B3892B49F469E672E289EAD1
:105A700092E20E94D8A86DE072E279C047E050E05F
:105A8000BE018CE293E00E9496B3892B49F46CEF3F
:105A900071E289EA92E20E94D8A866EA71E267C0E0
:105AA00043E050E0BE0184E393E00E9496B3892B6B
:105AB00079F469E971E289EA92E20E94D8A866E67F
:105AC00071E289EA92E20E94D8A867E271E24FC0CF
:105AD00046E050E0BE0188E393E00E9496B3892B34
