:100000000C94542D0C94A6D60C94D7D60C9408D7E7
:100010000C94832D0C94832D0C94832D0C94832DA0
:100020000C94832D0C94832D0C94832D0C94832D90
:100030000C94832D0C94832D0C94832D0C94832D80
:100040000C94832D0C94832D0C946FD50C94832DDC
:100050000C94A7DB0C94DDDB0C94832D0C94832D86
:100060000C94832D0C94832D0C943A800C94832D46
:100070000C94832D0C94832D0C94832D0C94832D40
:100080000C94832D0C94832D0C94832DBCD4BFD45D
:10009000B2D4B6D4D6D4D6D4C3D4C7D4CDD4D1D484
:1000A00007634236B79BD8A71A39685618AEBAAB61
:1000B000558C1D3CB7CC5763BD6DEDFD753EF617F5
:1000C0007231BF000000803F08000000BE9224494A
:1000D000123EABAAAA2ABECDCCCC4C3E000000807A
:1000E000BEABAAAAAA3E00000000BF000000803FED
:1000F0000000000000084178D3BB4387D1133D19AD
:100100000E3CC3BD4282AD2B3E68EC8276BED98FD9
:10011000E1A93E4C80EFFFBE01C4FF7F3F0000001D
:1001200000006E616E00696E66004F4B2E00496ED6
:10013000666F3A2045726173696E67206D697272ED
:100140006F72656420636F6E6669672E2E2E004F96
:100150004B2E00496E666F3A2057726974696E675C
:10016000206D6972726F72656420636F6E66696775
:100170002E2E2E004572726F723A204D6972726F88
:1001800072656420636F6E66696775726174696F0A
:100190006E206973206E6F742076616C69642C2008
:1001A00063616E6E6F7420726573746F7265207414
:1001B0006F206C6173742076616C696420636F6E6C
:1001C00066696775726174696F6E2E00496E666F3D
:1001D0003A20526573746F726564206C6173742089
:1001E00076616C696420636F6E66696775726174AD
:1001F000696F6E2C20627574206974277320737484
:10020000696C6C206E6F742076616C69642E004995
:100210006E666F3A205375636365737366756C6CB5
:100220007920726573746F72656420746F206C61DD
:1002300073742076616C696420636F6E666967759C
:10024000726174696F6E2E004572726F723A20434C
:100250006F6E666967204D656D6F727920697320D6
:100260006E6F7420756E6C6F636B65642C206361B8
:100270006C6C65642066726F6D206C696E65206EB3
:10028000756D6265722000496E666F3A204D697225
:10029000726F72656420636F6E66696775726174F0
:1002A000696F6E20616C7265616479206D61746341
:1002B0006865732063757272656E7420636F6E6615
:1002C000696775726174696F6E2E004572726F7224
:1002D0003A204D6972726F72656420636F6E666951
:1002E0006775726174696F6E20636F6D6D697420DC
:1002F0006661696C656420746F2076616C69646105
:1003000074652E002000496E666F3A204375727244
:10031000656E74206669726D7761726520736967B6
:100320006E61747572653A20002C204163747561AA
:100330006C2046696C6573697A653A200045727273
:100340006F723A2045787065637465642046696C05
:100350006573697A653A20002C2041637475616C7D
:1003600020436865636B73756D3A20004572726F48
:10037000723A2045787065637465642043686563EC
:100380006B73756D3A20004572726F723A20496E38
:100390007465677269747920436865636B20466190
:1003A000696C65642100496E666F3A20496E746518
:1003B000677269747920436865636B205375636362
:1003C000656564656421002220746F2049502061B6
:1003D0006464726573732000496E666F3A205265DB
:1003E000736F6C76656420220027004572726F720D
:1003F0003A20436F756C646E2774207265736F6C5E
:1004000076652027002020205245534F4C56494EF8
:100410004700534F46545741524520414C524541A5
:100420004459202020555020544F20444154452009
:1004300020200020555044415445204641494C4518
:1004400044202020205245545259204C41544552BA
:10045000202020004572726F723A204669726D77D3
:1004600061726520557064617465204661696C65D0
:10047000642E2054727920616761696E206C61740A
:10048000657220627920726573657474696E672E77
:10049000004150504C59494E472055504441544515
:1004A0005357414954204F4E45204D494E555445D0
:1004B0002000496E666F3A204669726D77617265F9
:1004C0002055706461746520436F6D706C65746550
:1004D0002E205265736574696E6720746F20617099
:1004E000706C79206368616E6765732E00496E6673
:1004F0006F3A2057726F7465204D61676963204EB3
:10050000756D626572002200496E666F3A20446F15
:10051000776E6C6F6164696E672022002020202056
:1005200020504C45415345202020202020202020D1
:10053000202057414954202020202020002E68658B
:10054000780055504441544520415641494C414260
:100550004C452020444F574E4C4F4144494E472074
:10056000202000220020646F776E6C6F6164696EDA
:1005700067202200496E666F3A20417474656D7081
:10058000742023002E63686B002020434845434BB2
:10059000494E4720464F52202020202020555044CD
:1005A00041544553202020202000496E666F3A2098
:1005B0002D2D2D2D2D2D2D2D2D2D2D2D2D2D2D2D6B
:1005C0002D2D2D2D2D2D2D2D2D2D2D2D2D2D2D2D5B
:1005D0002D2D2D2D2D004572726F723A20557064AD
:1005E0006174652053657276657220436F6E6E6527
:1005F0006374696F6E206661696C656400496E663C
:100600006F3A202D2D2D2D2D2D2D2D2D2D2D2D2DD8
:100610002D2D2D2D2D2D2D2D2D2D2D2D2D2D2D2D0A
:100620002D2D2D2D2D2D2D2D000D0A000D0A0048EC
:100630006F73743A200020485454502F312E310DDE
:100640000A00474554202F0020204C4F4747494E71
:1006500047204441544120202020544F20555342EC
:100660002D53455249414C20002020534420434102
:1006700052442046494C45202020204F50454E20D2
:100680004641494C454420202000220020204C4F68
:100690004747494E472044415441202020202054C0
:1006A0004F2053442043415244202020002C002C52
:1006B000002C002D2D2D002C002D2D2D002C002D7B
:1006C0002D2D002C002D2D2D002C006373763A204B
:1006D000002C006373763A20002057492D464920AC
:1006E0004E4554574F524B20202020202046414950
:1006F0004C5552452020202020004572726F723ADE
:100700002057692D46692052652D636F6E6E6563B3
:1007100074204661696C6564203520636F6E736573
:100720006375746976652074696D65732E20466FF4
:100730007263696E67207265626F6F742E0073005A
:1007400020636F6E73656375746976652074696D77
:1007500065005761726E3A204661696C6564207469
:100760006F20636F6E6E65637420746F2057692D00
:100770004669206E6574776F726B200020204D51A2
:1007800054542053455256455220202020202020EA
:100790004641494C55524520202020200045727288
:1007A0006F723A204D51545420436F6E6E656374DE
:1007B000204661696C6564203520636F6E736563E4
:1007C00075746976652074696D65732E20466F7245
:1007D00063696E67207265626F6F742E007300200C
:1007E000636F6E73656375746976652074696D6592
:1007F000005761726E3A204661696C656420746FBF
:1008000020636F6E6E65637420746F204D51545475
:100810002073657276657220004572726F723A209D
:100820004661696C656420746F207075626C6973D1
:100830006820434F2E004572726F723A20466169FC
:100840006C656420746F207075626C697368204EEB
:100850004F322E004572726F723A204661696C65A4
:100860006420746F207075626C6973682048756DC0
:1008700069646974792E004572726F723A2046611C
:10088000696C656420746F207075626C6973682090
:1008900054656D70657261747572652E0045727273
:1008A0006F723A204661696C656420746F207075C0
:1008B000626C697368204865617274626561742E48
:1008C000004155544F5245534554204641494C45EB
:1008D00044205245534554205245515549524544B0
:1008E00020004572726F723A205761746368646FBA
:1008F0006720466F7263652052657374617274205D
:100900006661696C65642E204D616E75616C207244
:1009100065736574206973207265717569726564A9
:100920002E00496E666F3A205475726E696E6720AC
:100930006261636B6C69676874206F6666202874F7
:10094000696D65722065787069726564292E004949
:100950006E666F3A205475726E696E6720626163CD
:100960006B6C69676874206F6E2E00496E666F3A13
:10097000204176657261676520546F756368205207
:10098000656164696E673A20004661696C65642E32
:10099000004F4B2E0041626F727465642E002E2E44
:1009A0002E00496E666F3A204D5154542070756286
:1009B0006C697368696E6720746F20746F70696307
:1009C00020004661696C65642E004F4B2E0057690C
:1009D00074686F75742041757468656E74696361BD
:1009E00074696F6E2E2E2E007573696E67204175C7
:1009F0007468656E7469636174696F6E2E2E2E0063
:100A0000222000496E666F3A20436F6E6E656374F4
:100A1000696E6720746F204D5154542042726F6B81
:100A20006572207769746820436C69656E7420492B
:100A3000442022002220746F204950206164647297
:100A40006573732000496E666F3A205265736F6C50
:100A500076656420220027004572726F723A204347
:100A60006F756C646E2774207265736F6C76652089
:100A700027002020205245534F4C56494E47005DD9
:100A8000004572726F723A2041444320526561649E
:100A9000204572726F72205B004F4B2E00457272C0
:100AA0006F723A204661696C656420746F206163DF
:100AB0007175697265204950206164647265737351
:100AC0002076696120444843502E205265626F6F42
:100AD00074696E672E002052455155455354494E56
:100AE00047204950202000496E666F3A20526571B8
:100AF0007565737420444843502E2E2E0045727243
:100B00006F723A20436F6E6E656374696F6E206D0D
:100B10006574686F64206E6F742063757272656EA1
:100B2000746C7920737570706F72746564004F4BCC
:100B30002E00496E666F3A2057616974696E6720AE
:100B4000666F7220536D617274436F6E66696720C1
:100B5000746F205265636F6E6E6563742E2E2E0067
:100B60004F4B2E004572726F723A204661696C6578
:100B70006420746F20636F6E6E65637420746F20E1
:100B800041636365737320506F696E742077697475
:100B90006820535349443A2000434F4E4E45435436
:100BA000494E4720544F20415000222E2E2E0049FE
:100BB0006E666F3A20436F6E6E656374696E672070
:100BC000746F2041636365737320506F696E742086
:100BD000776974682053534944202200496E666F38
:100BE0003A20444E53736572763A2000496E666F20
:100BF0003A20444843507372763A2000496E666F3B
:100C00003A20476174657761793A2000496E666FD2
:100C10003A204E65746D61736B3A2000496E666FC1
:100C20003A20495020416464723A20004572726F44
:100C3000723A20556E61626C6520746F2072657423
:100C40007269657665207468652049502041646446
:100C500072657373210052535349203D2000222CAA
:100C60002000496E666F3A20466F756E64204163BE
:100C70006365737320506F696E74202200206E6567
:100C800074776F726B7300496E666F3A204E6574AD
:100C9000776F726B205363616E20666F756E642090
:100CA000004572726F723A204E6574776F726B20D6
:100CB0005363616E204661696C656400496E666FBE
:100CC0003A20426567696E6E696E67204E6574777B
:100CD0006F726B205363616E2E2E2E0020534341A2
:100CE0004E4E494E472057492D464920202020206E
:100CF0002020202020202020202020200020636889
:100D00006172616374657273206C6F6E672E002070
:100D100020202020202062757420776173200045F8
:100D200072726F723A2050726976617465206B65D9
:100D300079206D7573742062652065786163746CC9
:100D40007920363420636861726163746572732040
:100D50006C6F6E672C20005D004572726F723A20D6
:100D6000496E76616C6964206865782076616C757F
:100D70006520666F756E64205B002220746F2064AE
:100D80006563696D616C206E756D6265722E0045DC
:100D900072726F723A204661696C656420746F20CC
:100DA000636F6E7665727420737472696E67202249
:100DB0000022004572726F723A20496E76616C694A
:100DC0006420706172616D657465722070726F76F7
:100DD0006964656420746F20276261636B75702796
:100DE00020636F6D6D616E64202D2022004572724C
:100DF0006F723A205570646174652066696C656E27
:100E0000616D65206D757374206265206C65737308
:100E1000207468616E20333220636861726163748C
:100E200065727320696E206C656E67746800457228
:100E3000726F723A205570646174652073657276C2
:100E40006572206E616D65206D757374206265201A
:100E50006C657373207468616E203332206368613F
:100E60007261637465727320696E206C656E67745D
:100E700068004572726F723A20496E76616C6964DF
:100E800020706172616D657465722070726F766931
:100E900064656420746F20276D717474706F727450
:100EA0002720636F6D6D616E64202D2022004572D6
:100EB000726F723A20496E76616C6964207061725B
:100EC000616D657465722070726F76696465642007
:100ED000746F20276D717474617574682720636F57
:100EE0006D6D616E64202D2022004572726F723A22
:100EF000204D51545420636C69656E742049442020
:100F00006D757374206265206C65737320626574FF
:100F10007765656E203120616E642032332063680E
:100F2000617261637465727320696E206C656E67AF
:100F30007468004572726F723A204D5154542063A8
:100F40006C69656E74204944206D75737420626508
:100F500067696E20776974682061206C65747465B8
:100F600072004572726F723A204D5154542075735D
:100F700065726E616D65206D757374206265206C9D
:100F8000657373207468616E203332206368617208
:100F900061637465727320696E206C656E67746836
:100FA000004572726F723A204D515454207365722D
:100FB000766572206E616D65206D75737420626553
:100FC000206C657373207468616E2033322063680F
:100FD000617261637465727320696E206C656E67FF
:100FE0007468004572726F723A204D5154542070EB
:100FF000617373776F7264206D75737420626520FE
:101000006C657373207468616E203332206368618D
:101010007261637465727320696E206C656E6774AB
:10102000680022002200220022004572726F723A8C
:1010300020496E76616C696420706172616D6574BF
:1010400065722070726F766964656420746F202702
:101050006C6973742720636F6D6D616E64202D2041
:1010600022004572726F723A2053442043617264C9
:10107000206973206E6F7420696E697469616C6990
:101080007A65642C2063616E2774206C6973742008
:1010900066696C65732E00090009002F00090022A3
:1010A000004572726F723A20496E76616C696420F5
:1010B000706172616D657465722070726F766964BB
:1010C000656420746F2027666F7263652720636FE5
:1010D0006D6D616E64202D202200496E666F3A208E
:1010E00045726173696E67206C61737420666C6110
:1010F00073682070616765004572726F723A2049AB
:101100006E76616C696420706172616D6574657280
:101110002070726F766964656420746F2027757320
:10112000652720636F6D6D616E64202D2022004560
:1011300072726F723A20736574444348502046615E
:10114000696C6564206F6E20434333303030004556
:1011500072726F723A207365745374617469634973
:101160005041646472657373204661696C656420E4
:101170006F6E20434333303030005D004572726F34
:10118000723A2049502041646472657373206D7512
:10119000737420636F6E7461696E20342076616CA5
:1011A0006964206F63746574732073657061726124
:1011B00074656420627920272E27205B407061725D
:1011C000616D200022004572726F723A20495020F2
:1011D00061646472657373207061727365206572F7
:1011E000726F72206F6E20696E7075742022005DC0
:1011F000004572726F723A204950206164647265D2
:101200007373206F6374657473206D7573742062DB
:101210006520696E74656765722076616C756573AB
:10122000205B40706172616D200020202020202012
:1012300020004572726F723A20546F6F2066657796
:1012400020706172616D6574657273207061737373
:10125000656420746F207374617469636970002021
:10126000202020202020004572726F723A20546F97
:101270006F206D616E7920706172616D6574657249
:10128000732070617373656420746F20737461746C
:10129000696369700027004572726F723A20746545
:1012A0006D706572617475726520756E6974206DFC
:1012B00075737420626520274327206F72202746AC
:1012C000272C2062757420726563656976656420D9
:1012D00027002020202020202076616C6964206F68
:1012E0007074696F6E73206172653A20276E6F7239
:1012F0006D616C272C20276F66666C696E65270010
:1013000022004572726F723A20496E76616C696490
:10131000206F7065726174696F6E616C206D6F64AF
:101320006520656E7465726564202D202200202082
:10133000202020202076616C6964206F7074696FB2
:101340006E73206172653A20276F70656E272C20BE
:1013500027776570272C2027777061272C20616EF6
:1013600064202777706132270022004572726F7205
:101370003A20496E76616C696420736563757269A1
:101380007479206D6F646520656E74657265642084
:101390002D2022004572726F723A204E6574776F6D
:1013A000726B2070617373776F7264206D757374E4
:1013B000206265206C657373207468616E2033321F
:1013C000206368617261637465727320696E206C5A
:1013D000656E677468004572726F723A20535349A4
:1013E00044206D757374206265206C65737320747E
:1013F00068616E2033322063686172616374657264
:101400007320696E206C656E677468002020202050
:1014100020202076616C6964206F7074696F6E7330
:10142000206172653A202764697265637427206FB2
:10143000722027736D617274636F6E66696727002F
:1014400022004572726F723A20496E76616C69644F
:1014500020636F6E6E656374696F6E206D6574686E
:101460006F6420656E7465726564202D20220046CD
:1014700061696C65642E004F4B2E00496E666F3AB1
:101480002044656C657465696E672073746F72655E
:10149000642070726F66696C65732E2E2E00457223
:1014A000726F723A204D41432061646472657373B8
:1014B000206D75737420636F6E7461696E203620C1
:1014C00062797465732C207769746820656163683C
:1014D0002073657061726174656420627920273AB7
:1014E00027004572726F723A204661696C6564200C
:1014F000746F207772697465204D41432061646484
:101500007265737320746F20434333303030002290
:10151000004572726F723A204D41432061646472DB
:10152000657373207061727365206572726F7220CB
:101530006F6E20696E70757420220020202020209C
:101540002020004572726F723A20546F6F206D61D7
:101550006E79206F63746574732070617373656452
:1015600020746F207365746D61633A20005D0045DF
:1015700072726F723A205365636F6E64206D75737B
:1015800074206265206265747765656E2030206125
:101590006E64203539205B77617320005D004572F1
:1015A000726F723A204D696E757465206D75737433
:1015B000206265206265747765656E203020616EFB
:1015C00064203539205B77617320005D00457272BD
:1015D0006F723A20486F7572206D75737420626562
:1015E000206265747765656E203020616E642032FC
:1015F00033205B77617320005D004572726F723A31
:1016000020446179206D7573742062652062657471
:101610007765656E203120616E64203331205B7701
:10162000617320005D004572726F723A204D6F6EDB
:101630007468206D757374206265206265747765C7
:10164000656E203120616E64203132205B776173DA
:1016500020005D004572726F723A205965617220F8
:101660006D757374206265206E6F206561726C69A0
:101670006572207468616E2032303135205B77618D
:101680007320004572726F723A20646174657469E8
:101690006D65206578706563747320657861637427
:1016A0006C7920362076616C756573207365706186
:1016B000726174656420627920636F6D6D61732C53
:1016C0002062757420726563656976656420002701
:1016D000004572726F723A20466F756E6420696EB3
:1016E00076616C69642063686172616374657220FD
:1016F00027004572726F723A205265706F7274697A
:101700006E6720696E74657276616C206D75737496
:1017100020626520616E20696E7465676572206D58
:10172000756C7469706C65206F66207468652053F1
:10173000616D706C696E6720696E74657276616C3C
:10174000005D004572726F723A205265706F72745C
:10175000696E6720696E74657276616C206D757351
:1017600074206265206772656174657220746861B7
:101770006E2030205B77617320002073616D706C88
:101780006573002073616D706C65732C20627574D5
:1017900020726571756972657300202020202020F9
:1017A000204D7573742072657175697265206E6F56
:1017B000206D6F7265207468616E20004572726FD3
:1017C000723A20496E73756666696369656E742046
:1017D0006D656D6F727920617661696C61626C65AF
:1017E00020666F7220617665726167696E67206935
:1017F0006E74657276616C20402073616D706C69E7
:101800006E6720696E74657276616C2E0045727227
:101810006F723A20417665726167696E6720696E02
:1018200074657276616C206D7573742062652061D9
:101830006E20696E7465676572206D756C74697071
:101840006C65206F66207468652053616D706C69EB
:101850006E6720696E74657276616C005D0045721A
:10186000726F723A20417665726167696E672069AE
:101870006E74657276616C206D757374206265207C
:1018800067726561746572207468616E2030205BD8
:1018900077617320005D004572726F723A20536168
:1018A0006D706C696E6720696E74657276616C200C
:1018B0006D7573742062652067726561746572204E
:1018C0007468616E2032205B77617320004572720C
:1018D0006F723A2073616D706C696E672065787005
:1018E000656374732065786163746C792033207646
:1018F000616C7565732073657061726174656420D5
:10190000627920636F6D6D61732C20627574207233
:1019100065636569766564200027004572726F72A1
:101920003A20466F756E6420696E76616C6964203A
:101930006368617261637465722027004572726F1B
:10194000723A20616C746974756465206D75737486
:101950002062652061206E756D65726963002200EA
:101960004572726F723A20556E6578706563746562
:101970006420706172616D61746572206E616D6565
:101980002022002020202020202020207072696F3B
:101990007220746F20657865637574696E67206165
:1019A0002027726573746F7265272E2053657474D7
:1019B000696E6720746F20302E302E005761726E72
:1019C000696E673A2048756D69646974792072653B
:1019D000706F7274696E67206F66667365742073CA
:1019E000686F756C64206265206261636B6564205A
:1019F0007570202000202020202020207072696F28
:101A00007220746F20657865637574696E672061F4
:101A10002027726573746F7265272E205365747466
:101A2000696E6720746F20332E35004572726F72B5
:101A30003A2054656D7065726174757265207265C7
:101A4000706F7274696E67206F6666736574207359
:101A5000686F756C64206265206261636B656420E9
:101A60007570202000202020202020207072696FB7
:101A70007220746F20657865637574696E67206184
:101A80002027726573746F7265272E004572726F1E
:101A9000723A20434F2063616C6962726174696FAE
:101AA0006E206D757374206265206261636B65647E
:101AB00020757020200020202020202020707269B6
:101AC0006F7220746F20657865637574696E672026
:101AD000612027726573746F7265272E00457272DC
:101AE0006F723A204E4F322063616C69627261748A
:101AF000696F6E206D757374206265206261636B1F
:101B00006564207570202000202020202020207077
:101B100072696F7220746F20657865637574696E81
:101B20006720612027726573746F7265272E0045E8
:101B300072726F723A2050726976617465206B65BB
:101B400079206D757374206265206261636B6564D2
:101B50002075702020002020202020202070726915
:101B60006F7220746F20657865637574696E672085
:101B7000612027726573746F7265272E004572723B
:101B80006F723A204D5154542050617373776F72C5
:101B900064206D757374206265206261636B656497
:101BA00020757020200020202020202020707269C5
:101BB0006F7220746F20657865637574696E672035
:101BC000612027726573746F7265272E00457272EB
:101BD0006F723A204D4143206164647265737320D3
:101BE0006D757374206265206261636B6564207536
:101BF0007020200022004572726F723A20556E6587
:101C000078706563746564205661726961626C65A1
:101C1000204E616D652022002020434F4E464947EB
:101C2000204D4F444500496E666F3A2053617665FA
:101C30006420636F6E6E656374696F6E2064657493
:101C400061696C7320616E6420636F6E6E6563748E
:101C5000656420746F20415021004572726F723AA2
:101C600020536D617274436F6E66696720437265BD
:101C7000617465204661696C65642E002020202017
:101C80005354415254494E47202020202020534D88
:101C900041525420434F4E464947202000496E662A
:101CA0006F3A2057616974696E6720666F722061B0
:101CB00020536D617274436F6E66696720636F6E47
:101CC0006E656374696F6E2E2E2E004572726F7290
:101CD0003A20436F756C64206E6F74207265747265
:101CE00069657665204D4143206164647265737354
:101CF0002066726F6D204343333030300022004540
:101D000072726F723A20556E65787065637465649F
:101D1000205661726961626C65204E616D6520229A
:101D200000202B2D2D2D2D2D2D2D2D2D2D2D2D2D1F
:101D30002D2D2D2D2D2D2D2D2D2D2D2D2D2D2D2DD3
:101D40002D2D2D2D2D2D2D2D2D2D2D2D2D2D2D2DC3
:101D50002D2D2D2D2D2D2D2D2D2D2D2D2D2D2D2DB3
:101D60002B00207C202020202072756E20276261AD
:101D7000636B757020616C6C27207768656E2079C5
:101D80006F7520617265207361746973666965643B
:101D90002020202020202020202020202020202043
:101DA000207C00207C206E6F74653A20272A272033
:101DB0006E65787420746F206C6162656C206D654F
:101DC000616E73207468652073657474696E672032
:101DD0006973206E6F74206261636B656420757037
:101DE0002E207C00202B2D2D2D2D2D2D2D2D2D2D1C
:101DF0002D2D2D2D2D2D2D2D2D2D2D2D2D2D2D2D13
:101E00002D2D2D2D2D2D2D2D2D2D2D2D2D2D2D2D02
:101E10002D2D2D2D2D2D2D2D2D2D2D2D2D2D2D2DF2
:101E20002D2D2D2B00202B2D2D2D2D2D2D2D2D2D20
:101E30002D2D2D2D2D2D2D2D2D2D2D2D2D2D2D2DD2
:101E40002D2D2D2D2D2D2D2D2D2D2D2D2D2D2D2DC2
:101E50002D2D2D2D2D2D2D2D2D2D2D2D2D2D2D2DB2
:101E60002D2D2D2D2B00207C2053656E736F72203D
:101E700043616C6962726174696F6E733A202020ED
:101E80002020202020202020202020202020202052
:101E90002020202020202020202020202020202042
:101EA00020202020207C00202B2D2D2D2D2D2D2D90
:101EB0002D2D2D2D2D2D2D2D2D2D2D2D2D2D2D2D52
:101EC0002D2D2D2D2D2D2D2D2D2D2D2D2D2D2D2D42
:101ED0002D2D2D2D2D2D2D2D2D2D2D2D2D2D2D2D32
:101EE0002D2D2D2D2D2D2B00202B2D2D2D2D2D2D60
:101EF0002D2D2D2D2D2D2D2D2D2D2D2D2D2D2D2D12
:101F00002D2D2D2D2D2D2D2D2D2D2D2D2D2D2D2D01
:101F10002D2D2D2D2D2D2D2D2D2D2D2D2D2D2D2DF1
:101F20002D2D2D2D2D2D2D2B00207C204372656411
:101F3000656E7469616C733A202020202020202077
:101F40002020202020202020202020202020202091
:101F50002020202020202020202020202020202081
:101F600020202020202020207C00202B2D2D2D2DF6
:101F70002D2D2D2D2D2D2D2D2D2D2D2D2D2D2D2D91
:101F80002D2D2D2D2D2D2D2D2D2D2D2D2D2D2D2D81
:101F90002D2D2D2D2D2D2D2D2D2D2D2D2D2D2D2D71
:101FA0002D2D2D2D2D2D2D2D2D2B00202020204DA4
:101FB00051545420436C69656E742049443A2000A2
:101FC000202020204D51545420506F72743A20002C
:101FD000202020204D515454205365727665723A6A
:101FE0002000202B2D2D2D2D2D2D2D2D2D2D2D2D6A
:101FF0002D2D2D2D2D2D2D2D2D2D2D2D2D2D2D2D11
:102000002D2D2D2D2D2D2D2D2D2D2D2D2D2D2D2D00
:102010002D2D2D2D2D2D2D2D2D2D2D2D2D2D2D2DF0
:102020002D2B00207C204D5154542053657474692D
:102030006E67733A2020202020202020202020209E
:102040002020202020202020202020202020202090
:102050002020202020202020202020202020202080
:1020600020207C00202B2D2D2D2D2D2D2D2D2D2DA7
:102070002D2D2D2D2D2D2D2D2D2D2D2D2D2D2D2D90
:102080002D2D2D2D2D2D2D2D2D2D2D2D2D2D2D2D80
:102090002D2D2D2D2D2D2D2D2D2D2D2D2D2D2D2D70
:1020A0002D2D2D2B0020202020557064617465207B
:1020B00046696C656E616D653A20002020202055D0
:1020C0007064617465205365727665723A200020F1
:1020D0002020204950204D6F64653A2000202020A8
:1020E000205365637572697479204D6F64653A2079
:1020F0000020202020535349443A20002020202053
:102100004D6574686F643A2000202B2D2D2D2D2DE8
:102110002D2D2D2D2D2D2D2D2D2D2D2D2D2D2D2DEF
:102120002D2D2D2D2D2D2D2D2D2D2D2D2D2D2D2DDF
:102130002D2D2D2D2D2D2D2D2D2D2D2D2D2D2D2DCF
:102140002D2D2D2D2D2D2D2D2B00207C204E657419
:10215000776F726B2053657474696E67733A2020D1
:10216000202020202020202020202020202020206F
:10217000202020202020202020202020202020205F
:102180002020202020202020207C00202B2D2D2DE1
:102190002D2D2D2D2D2D2D2D2D2D2D2D2D2D2D2D6F
:1021A0002D2D2D2D2D2D2D2D2D2D2D2D2D2D2D2D5F
:1021B0002D2D2D2D2D2D2D2D2D2D2D2D2D2D2D2D4F
:1021C0002D2D2D2D2D2D2D2D2D2D2B0020736563C7
:1021D0006F6E6473002020202053656E736F722031
:1021E0005265706F7274696E6720496E746572769D
:1021F000616C3A2000207365636F6E647300202069
:10220000202053656E736F72204176657261676935
:102210006E6720496E74657276616C3A2000207397
:1022200065636F6E6473002020202053656E736FAA
:10223000722053616D706C696E6720496E746572AF
:1022400076616C3A2000202020204261636B6C692B
:102250006768742053657474696E67733A20002050
:10226000202020416C7469747564653A2000202038
:10227000202054656D706572617475726520556EAD
:102280006974733A2000202020204F7065726174B9
:10229000696F6E616C204D6F64653A2000202B2DB4
:1022A0002D2D2D2D2D2D2D2D2D2D2D2D2D2D2D2D5E
:1022B0002D2D2D2D2D2D2D2D2D2D2D2D2D2D2D2D4E
:1022C0002D2D2D2D2D2D2D2D2D2D2D2D2D2D2D2D3E
:1022D0002D2D2D2D2D2D2D2D2D2D2D2D2B00207C1B
:1022E00020507265666572656E6365732F4F7074FA
:1022F000696F6E733A20202020202020202020208B
:1023000020202020202020202020202020202020CD
:10231000202020202020202020202020207C002081
:102320002B2D2D2D2D2D2D2D2D2D2D2D2D2D2D2DDF
:102330002D2D2D2D2D2D2D2D2D2D2D2D2D2D2D2DCD
:102340002D2D2D2D2D2D2D2D2D2D2D2D2D2D2D2DBD
:102350002D2D2D2D2D2D2D2D2D2D2D2D2D2D2B00DC
:10236000616C77617973204F464600616C776179C3
:1023700073204F4E004F4646206174207374617283
:10238000747570004F4E206174207374617274759F
:102390007000207365636F6E64732C2000206D6580
:1023A00074657273005D0030004572726F723A207E
:1023B000556E6B6E6F776E2074656D7065726174AB
:1023C00075726520756E697473205B3078004661A4
:1023D0006872656E686569740043656C73697573CE
:1023E000005D0030004572726F723A20556E6B6E60
:1023F0006F776E206F7065726174696F6E616C20AB
:102400006D6F6465205B3078004F66666C696E6541
:10241000004E6F726D616C00202020204D5154548D
:102420002041757468656E7469636174696F6E3A92
:102430002044697361626C656400202020204D5146
:10244000545420557365726E616D653A20002020EA
:1024500020204D5154542041757468656E74696331
:102460006174696F6E3A20456E61626C656400202C
:102470000020002A002020002E00202020444E535F
:10248000205365727665723A20202020202000209B
:10249000202044656661756C7420476174657761BE
:1024A000793A20002020204E65746D61736B3A20CC
:1024B00020202020202020200020202049502041C2
:1024C0006464726573733A20202020202000436FDB
:1024D0006E6669677572656420666F7220537461F9
:1024E0007469632049503A2000436F6E66696775CE
:1024F00072656420666F722044484350005D00306E
:10250000004572726F723A20556E6B6E6F776E2057
:102510007365637572697479206D6F646520636F8C
:102520006465205B3078004175746F6D6174696318
:10253000202D204E6F742059657420446574657297
:102540006D696E6564005750413200575041005725
:102550004550004F70656E004E6F20535349442024
:1025600063757272656E746C7920636F6E666967ED
:10257000757265642E005D0030004572726F723AAC
:1025800020556E6B6E6F776E20636F6E6E65637431
:10259000696F6E206D6574686F6420636F64652079
:1025A0005B307800536D61727420436F6E666967AB
:1025B00020436F6E6E6563740044697265637420B6
:1025C000436F6E6E656374003A00300022004572FE
:1025D000726F723A205468657265206973206E6F5D
:1025E0002068656C7020617661696C61626C652041
:1025F000666F7220636F6D6D616E64202200202013
:1026000020202020616C776179736F6666202D2011
:102610006D616B657320746865206261636B6C69C2
:1026200067687420616C77617973206F666600203B
:102630002020202020616C776179736F6E202D201F
:102640006D616B657320746865206261636B6C6992
:1026500067687420616C77617973206F6E00202049
:1026600020202020696E69746F6E202D206D616BB3
:10267000657320746865206261636B6C6967687458
:10268000206F6E2061742073746172747570002005
:102690002020202020696E69746F6666202D206DD1
:1026A000616B657320746865206261636B6C696738
:1026B0006874206F6666206174207374617274752B
:1026C00070002020202020203C7365636F6E6473AF
:1026D0003E202D207468652077686F6C65206E75CC
:1026E0006D62657220696E74657276616C2C20690A
:1026F0006E207365636F6E64732C20746F206B653E
:10270000657020746865206261636B6C69676874CA
:10271000206F6E20666F72207768656E20656E6729
:1027200061676564002020203C636F6E6669673EC8
:10273000206973206F6E65206F663A006261636B7B
:102740006C69676874203C636F6E6669673E002041
:1027500020203C6373762D646174652D74696D650A
:102760003E206973206120636F6D6D612073657019
:10277000617261746564206461746520696E20749F
:102780006865206F7264657220796561722C206DB6
:102790006F6E74682C206461792C20686F75727379
:1027A0002C206D696E757465732C207365636F6E74
:1027B0006473006461746574696D65203C6373764D
:1027C0002D646174652D74696D653E002020204E76
:1027D0006F74653A202D3120697320612073706514
:1027E0006369616C2076616C7565206D65616E69E9
:1027F0006E6720646F206E6F74206170706C79203A
:10280000707265737375726520636F6D70656E733A
:102810006174696F6E002020203C6E756D62657278
:102820003E20697320746865206865696768742054
:1028300061626F766520736561206C6576656C20DA
:1028400077686572652074686520456767206973DD
:10285000205B6D65746572735D00616C746974757D
:102860006465203C6E756D6265723E0020202020FC
:10287000202046202D207265706F72742074656D63
:10288000706572617475726520696E204661687248
:10289000656E686569740020202020202043202D6B
:1028A000207265706F72742074656D7065726174EA
:1028B00075726520696E2043656C736975730020BD
:1028C00020203C756E69743E206973206F6E652010
:1028D0006F663A0074656D70756E6974203C756E34
:1028E00069743E002020202020202020202020204D
:1028F000202020206E616D656420627920636F6EF8
:1029000076656E74696F6E20595959594D4D44441E
:102910002E6373762C20696E74656E646564207412
:102920006F206265207573656420696E20636F6E29
:102930006A756E6374696F6E20776974682052548B
:1029400043206D6F64756C65002020202020206F6F
:1029500066666C696E65202D2074686973206D6FE2
:102960006465207772697465732064617461207492
:102970006F20616E20696E7374616C6C6564206D8C
:102980006963726F534420636172642C20637265C3
:102990006174696E67206F6E652066696C65207072
:1029A0006572206461792C20002020202020206E78
:1029B0006F726D616C202D207075626C6973682078
:1029C0006461746120746F204D515454207365729A
:1029D000766572206F7665722057692D46690020F2
:1029E00020203C6D6F64653E206973206F6E65200A
:1029F0006F663A006F706D6F6465203C6D6F646543
:102A00003E00202020202020612033322D62797466
:102A10006520283235362D62697429206865786111
:102A2000646563696D616C2076616C7565206F66A5
:102A3000207468652070726976617465206B6579B1
:102A4000002020203C737472696E673E20697320F9
:102A5000612036342D63686172616374657220731E
:102A60007472696E6720726570726573656E7469E1
:102A70006E6720006B6579203C737472696E673EE7
:102A8000002020203C6E756D6265723E20697320C7
:102A900074686520646563696D616C2076616C752E
:102AA00065206F662048756D696469747920736567
:102AB0006E736F72207265706F7274696E67206FCB
:102AC0006666736574205B255D2028737562747279
:102AD0006163746564290068756D5F6F6666203C8C
:102AE0006E756D6265723E002020203C6E756D62D1
:102AF00065723E2069732074686520646563696D42
:102B0000616C2076616C7565206F662054656D7010
:102B1000657261747572652073656E736F72207271
:102B200065706F7274696E67206F66667365742076
:102B30005B646567435D20287375627472616374BA
:102B40006564290074656D705F6F6666203C6E7504
:102B50006D6265723E002020203C6E756D6265726C
:102B60003E2069732074686520646563696D616CDB
:102B70002076616C7565206F6620434F2073656E0B
:102B8000736F72206F6666736574205B565D0063B9
:102B90006F5F6F6666203C6E756D6265723E0020E9
:102BA00020203C6E756D6265723E206973207468EA
:102BB0006520646563696D616C2076616C75652064
:102BC0006F6620434F2073656E736F7220736C6F56
:102BD0007065205B70706D2F565D00636F5F736C66
:102BE0006F7065203C6E756D6265723E002020201E
:102BF0006E6F74653A20616C736F20736574732017
:102C000074686520434F20736C6F70652062617338
:102C10006564206F6E207468652073656E736974D7
:102C20006976697479002020203C6E756D6265724A
:102C30003E2069732074686520646563696D616C0A
:102C40002076616C7565206F6620434F2073656E3A
:102C50007369746976697479205B6E412F70706D49
:102C60005D00636F5F73656E203C6E756D626572AB
:102C70003E002020203C6E756D6265723E206973B7
:102C80002074686520646563696D616C2076616C91
:102C90007565206F66204E4F322073656E736F72BC
:102CA000206F6666736574205B565D006E6F325FE1
:102CB0006F6666203C6E756D6265723E0020202056
:102CC0003C6E756D6265723E206973207468652084
:102CD000646563696D616C2076616C7565206F66F3
:102CE000204E4F322073656E736F7220736C6F705D
:102CF00065205B7070622F565D006E6F325F736C83
:102D00006F7065203C6E756D6265723E00202020FC
:102D10006E6F74653A20616C736F207365747320F5
:102D2000746865204E4F3220736C6F70652062614D
:102D3000736564206F6E207468652073656E7369B7
:102D4000746976697479002020203C6E756D626527
:102D5000723E2069732074686520646563696D61E3
:102D60006C2076616C7565206F66204E4F32207343
:102D7000656E7369746976697479205B6E412F7032
:102D8000706D5D006E6F325F73656E203C6E756DA9
:102D90006265723E00202020202020616C6C202083
:102DA000202020202D20646F657320616C6C206FC3
:102DB00066207468652061626F766500202020209F
:102DC000202068756D2020202020202D2062616346
:102DD0006B73207570207468652048756D6964692F
:102DE00074792063616C6962726174696F6E2070BE
:102DF0006172616D6574657273002020202020204F
:102E000074656D7020202020202D206261636B731B
:102E1000207570207468652054656D7065726174EA
:102E20007572652063616C6962726174696F6E208E
:102E3000706172616D6574657273002020202020BE
:102E400020636F202020202020202D206261636BD2
:102E5000732075702074686520434F2063616C692E
:102E600062726174696F6E20706172616D65746504
:102E70007273002020202020206E6F32202020201E
:102E800020202D206261636B73207570207468654B
:102E9000204E4F322063616C6962726174696F6E9B
:102EA00020706172616D657465727300202020204E
:102EB00020206B65792020202020202D2062616356
:102EC0006B7320757020746865203235362D626909
:102ED000742070726976617465206B6579002020BA
:102EE000202020206D61632020202020202D2062C2
:102EF00061636B73207570207468652043433330C1
:102F00003030204D4143206164647265737300204A
:102F100020202020206D71747470776420202D2073
:102F20006261636B7320757020746865204D515425
:102F3000542070617373776F7264002020203C709E
:102F40006172616D3E206973206F6E65206F663A15
:102F5000006261636B7570203C706172616D3E0050
:102F600020202020202020202020202066726F6D2D
:102F70002067657474696E67206669726D77617227
:102F8000652075706461746573206F766572207456
:102F9000686520696E7465726E65742E002020204D
:102FA0007761726E696E673A205573696E67207437
:102FB00068697320636F6D6D616E6420696E636F05
:102FC00072726563746C792063616E2070726576CD
:102FD000656E7420796F757220646576696365002B
:102FE00020202020202020202020202070726F62AE
:102FF00061626C79206E6F74206265207573696EF2
:1030000067207468697320636F6D6D616E642E0054
:103010002020206E6F74653A20202020556E6C654C
:10302000737320796F75202A7265616C6C792A2020
:103030006B6E6F77207768617420796F7527726582
:1030400020646F696E672C20796F752073686F75C7
:103050006C64002020203C737472696E673E2069A6
:1030600073207468652066696C656E616D65207497
:103070006F206C6F61642066726F6D2074686520CC
:10308000557064617465207365727665722C206575
:1030900078636C7564696E67207468652065787400
:1030A000656E73696F6E2E00757064617465666914
:1030B0006C65203C737472696E673E00202020208E
:1030C000202020202020202066726F6D20676574EC
:1030D00074696E67206669726D77617265207570BC
:1030E0006461746573206F76657220746865206909
:1030F0006E7465726E65742E002020207761726E8A
:10310000696E673A205573696E6720746869732029
:10311000636F6D6D616E6420696E636F727265635B
:10312000746C792063616E2070726576656E7420B0
:10313000796F7572206465766963650020202020B0
:103140002020202020746F2072652D656E61626CD6
:103150006520696E7465726E6574206669726D773C
:10316000617265207570646174657320747970652F
:103170002027726573746F72652075706461746561
:1031800073727627002020206E6F74653A20746F6A
:103190002064697361626C6520696E7465726E6526
:1031A00074206669726D77617265207570646174F0
:1031B0006573207479706520277570646174657318
:1031C00072762064697361626C6527002020203C60
:1031D000737472696E673E20697320746865204459
:1031E0004E53206E616D65206F66207468652055B2
:1031F0007064617465207365727665722E007570F7
:1032000064617465737276203C737472696E673E94
:10321000002020203C6E756D6265723E206973202F
:103220007468652061206E756D62657220626574D8
:103230007765656E203120616E6420363535333513
:1032400020696E636C7573697665006D7174747056
:103250006F7274203C6E756D6265723E0020202096
:103260003C737472696E673E2069732074686520D0
:103270006F6E65206F662027656E61626C65272022
:103280006F72202764697361626C6527006D7174C9
:103290007461757468203C737472696E673E0020B7
:1032A00020202020202020202020204D75737420F5
:1032B0006265206265747765656E203120616E6499
:1032C0002032332063686172616374657273206CAD
:1032D0006F6E6720706572204D5154542076332EE6
:1032E0003120737065632E002020203C7374726956
:1032F0006E673E2069732074686520436C69656E53
:1033000074204944207573656420746F20636F6E68
:103310006E65637420746F20746865204D51545439
:10332000207365727665722E006D71747469642005
:103330003C737472696E673E002020203C73747287
:10334000696E673E206973207468652075736572C5
:103350006E616D65207573656420746F20636F6E98
:103360006E65637420746F20746865204D515454E9
:10337000207365727665722E006D71747475736555
:1033800072203C737472696E673E002020203C738B
:103390007472696E673E2069732074686520444EBC
:1033A00053206E616D65206F6620746865204D51F5
:1033B0005454207365727665722E006D7174747347
:1033C0007276203C737472696E673E002020202064
:1033D0002020746F20746865204D5154542073650B
:1033E000727665722E002020203C737472696E67BD
:1033F0003E206973207468652070617373776F7203
:103400006420746865206465766963652077696CFB
:103410006C2075736520746F20636F6E6E656374C6
:1034200020006D717474707764203C737472696EDF
:10343000673E002020203C7265706F7274696E6771
:103440005F696E74657276616C3E20697320746882
:1034500065206475726174696F6E2062657477654A
:10346000656E2073656E736F72207265706F727413
:10347000732028776966692F636F6E736F6C652F91
:1034800073642F6574632E292C20696E2073656325
:103490006F6E647320286D756C7469706C65206F35
:1034A000662073616D706C6520696E7465727661FB
:1034B0006C29002020203C617665726167696E6727
:1034C0005F696E74657276616C3E20697320746802
:1034D00065206475726174696F6E20746861742010
:1034E000697320617665726167656420696E207218
:1034F00065706F7274696E672C20696E20736563E6
:103500006F6E647320286D756C7469706C65206FC4
:10351000662073616D706C6520696E74657276618A
:103520006C29002020203C73616D706C696E675FB0
:10353000696E74657276616C3E206973207468658B
:10354000206475726174696F6E2062657477656559
:103550006E2073656E736F722073616D706C65732E
:103560002C20696E20696E746567657220736563CF
:103570006F6E647320286174206C656173742033EE
:10358000290073616D706C696E67203C73616D70AA
:103590006C696E675F696E74657276616C3E2C2033
:1035A0003C617665726167696E675F696E746572AA
:1035B00076616C3E2C203C7265706F7274696E6728
:1035C0005F696E74657276616C3E00202020202059
:1035D00020202020202020202020616E642073687D
:1035E0006F756C6420696E697469617465206669C1
:1035F000726D7761726520757064617465206166B3
:1036000074657220636F6E6E656374696E67207493
:103610006F2077692D66692E002020202020202031
:103620002020202020202020636F6E66696775723D
:10363000657320666F72206E6F726D616C206D6FA6
:1036400064652C20616E6420657869747320636FF3
:103650006E666967206D6F64652C20002020202035
:103660002020757064617465202D20696E76616C10
:1036700069646174657320746865206669726D772A
:10368000617265207369676E61747572652C2000C4
:103690002020203C706172616D3E206973206F6E46
:1036A00065206F663A00666F726365203C706172D8
:1036B000616D3E0020202064656C65746573207424
:1036C0006865206E616D65642066696C6520667250
:1036D0006F6D2074686520534420636172642E000E
:1036E00064656C657465203C66696C656E616D65CA
:1036F0003E002020207072696E747320746865200B
:10370000636F6E74656E7473206F662074686520D5
:103710006E616D65642066696C6520746F207468E5
:103720006520636F6E736F6C652E00646F776E6CCF
:103730006F6164203C66696C656E616D653E00205A
:10374000202020202066696C6573202D206C697311
:10375000747320616C6C2066696C6573206F6E20D9
:103760007468652073642063617264202869662030
:10377000696E73657274656429002020203C706155
:1037800072616D3E206973206F6E65206F663A002E
:103790006C697374203C706172616D3E0020202062
:1037A00020202064686370202D2077697065732065
:1037B00074686520537461746963204950206164A2
:1037C00064726573732066726F6D2074686520453E
:1037D0004550524F4D002020203C706172616D3E7B
:1037E000206973206F6E65206F663A0075736520DF
:1037F0003C706172616D3E002020206E6F74653AEE
:10380000202020546F20636F6E6669677572652093
:10381000444843502075736520636F6D6D616E641D
:10382000202775736520646863702700202020724C
:103830006573756C743A2054686520656E746572A2
:10384000656420737461746963206E6574776F7248
:103850006B20706172616D65746572732077696C3D
:103860006C206265207573656420627920746865D8
:1038700020434333303030002020202020203C7073
:103880006172616D343E20646E732073657276657B
:103890007220697020616464726573732C20652ED8
:1038A000672E20382E382E382E3800202020202059
:1038B000203C706172616D333E2064656661756C99
:1038C0007420676174657761792069702061646430
:1038D000726573732C20652E672E203139322E319C
:1038E00036382E312E31002020202020203C7061DF
:1038F00072616D323E206E65746D61736B2C206554
:103900002E672E203235352E3235352E3235352E76
:1039100030002020202020203C706172616D313EFB
:1039200020737461746963206970206164647265D6
:1039300073732C20652E672E203139322E313638A4
:103940002E312E3137002020203C636F6E66696770
:103950003E20697320666F7572206970206164640F
:1039600072657373657320736570617261746564E9
:103970002062792073706163657300737461746988
:10398000636970203C636F6E6669673E002020208B
:103990002020206175746F202D2064657465726D20
:1039A000696E6520647572696E67206669727374EA
:1039B000206E6574776F726B2073756363657373C4
:1039C00066756C207363616E0020202020202077B4
:1039D000706132202D20746865206E6574776F7277
:1039E0006B205750413220506572736F6E616C20AE
:1039F0007365637572697479002020202020207718
:103A0000706120202D20746865206E6574776F7258
:103A10006B2057504120506572736F6E616C20733C
:103A200065637572697479002020202020207765F5
:103A30007020202D20746865206E6574776F726B1E
:103A40002057455020736563757269747900202092
:103A5000202020206F70656E202D20746865206EF8
:103A60006574776F726B20697320756E736563750B
:103A7000726564002020203C6D6F64653E20697390
:103A8000206F6E65206F663A0073656375726974A6
:103A900079203C6D6F64653E00202020202020743A
:103AA00068652053534944207468617420746865C4
:103AB000206465766963652073686F756C64206344
:103AC0006F6E6E65637420746F2E002020203C732F
:103AD0007472696E673E20697320746865206E6534
:103AE00074776F726B2070617373776F7264206686
:103AF0006F722000707764203C737472696E673E49
:103B0000002020203C737472696E673E2069732028
:103B10007468652053534944206F6620746865209B
:103B20006E6574776F726B20746865206465766962
:103B300063652073686F756C6420636F6E6E656378
:103B40007420746F2E0073736964203C73747269FF
:103B50006E673E00202020202020736D6172746308
:103B60006F6E666967202D2075736520736D6172B5
:103B70007420636F6E6669672070726F636573731C
:103B800000202020202020646972656374202D208D
:103B900075736520706172616D65746572732065FF
:103BA0006E746572656420696E20434F4E464947C6
:103BB000206D6F6465002020203C747970653E2084
:103BC0006973206F6E65206F663A006D6574686F6B
:103BD00064203C747970653E002020202020202045
:103BE0002020202020616E642069732073746F721E
:103BF000656420696E2074686520454550524F4DBC
:103C00002E00202020726573756C743A2020546851
:103C10006520656E7465726564204D414320616462
:103C200064726573732069732061737369676E656D
:103C30006420746F20746865204343333030300053
:103C40002020202020202020202020202020202074
:103C500030383A61623A37333A44413A38663A305A
:103C600030002020203C616464726573733E2069DB
:103C7000732061204D414320616464726573732039
:103C80006F662074686520666F726D3A006D6163BF
:103C9000203C616464726573733E00202020202004
:103CA0002068756D5F6F6666202020202D2072656C
:103CB00073746F726573207468652048756D6964EC
:103CC000697479207265706F7274696E67206F66AF
:103CD000667365742066726F6D204241434B555088
:103CE000200020202020202074656D705F6F6666A4
:103CF0002020202D20726573746F726573207468A4
:103D0000652054656D7065726174757265207265A9
:103D1000706F7274696E67206F6666736574206673
:103D2000726F6D204241434B5550200020202020CF
:103D30002020636F2020202020202020202D207292
:103D40006573746F7265732074686520434F2063D8
:103D5000616C6962726174696F6E20706172616D0D
:103D600065746572732066726F6D204241434B55D6
:103D70005020002020202020206E6F322020202084
:103D8000202020202D20726573746F72657320745B
:103D90006865204E4F322063616C6962726174699C
:103DA0006F6E20706172616D6574657273206672EA
:103DB0006F6D204241434B55502000202020202091
:103DC000206B657920202020202020202D20726566
:103DD00073746F72657320746865205072697661C0
:103DE0007465204B65792066726F6D204241434BAC
:103DF00055502000202020202020757064617465BB
:103E000066696C65202D20726573746F726573200E
:103E1000746865205570646174652066696C656EB0
:103E2000616D65002020202020207570646174651C
:103E300073727620202D20726573746F7265732003
:103E40007468652055706461746520736572766569
:103E500072206E616D65002020202020206D71741D
:103E600074696420202020202D20726573746F7285
:103E7000657320746865204D51545420636C6965E6
:103E80006E74204944002020202020206D7174741D
:103E9000707764202020202D20726573746F726506
:103EA0007320746865204D5154542070617373778A
:103EB0006F72642066726F6D204241434B555020F3
:103EC0000020202020202020202020202020202012
:103ED00020202020616E642061737369676E7320F7
:103EE000697420746F207468652043433330303028
:103EF0002C20766961206120276D61632720636F24
:103F00006D6D616E64002020202020206D61632093
:103F1000202020202020202D207265747269657673
:103F2000657320746865206D6163206164647265E7
:103F300073732066726F6D204241434B55500020D1
:103F40002020202020202020202020202020202071
:103F50002020636C6561727320746865204E6574FF
:103F6000776F726B2050617373776F726420667223
:103F70006F6D206D656D6F727900202020202020EC
:103F800020202020202020202020202020636C655D
:103F90006172732074686520535349442066726FC0
:103FA0006D206D656D6F727900202020202020200B
:103FB00020202020202020202020202070657266D4
:103FC0006F726D732027726573746F726520636FF3
:103FD00027002020202020202020202020202020FA
:103FE0002020202020706572666F726D732027720A
:103FF0006573746F7265206E6F3227002020202059
:104000002020202020202020202020202020207060
:104010006572666F726D732027726573746F726557
:10402000206B6579270020202020202020202020C0
:10403000202020202020202020706572666F726D65
:10404000732027726573746F726520757064617474
:104050006566696C65270020202020202020202014
:1040600020202020202020202020706572666F7282
:104070006D732027726573746F726520757064614B
:1040800074657372762700202020202020202020B5
:1040900020202020202020202020706572666F7252
:1040A0006D732027726573746F7265206D717474FF
:1040B000696427002020202020202020202020208C
:1040C00020202020202020706572666F726D732082
:1040D00027726573746F7265206D71747470776484
:1040E00027002020202020202020202020202020E9
:1040F0002020202020706572666F726D73202772F9
:104100006573746F7265206D616327002020202025
:10411000202020202020202020202020202020704F
:104120006572666F726D732027726573746F726546
:104130002068756D5F6F6666270020202020202094
:104140002020202020202020202020202070657288
:10415000666F726D732027726573746F7265207459
:10416000656D705F6F66662700202020202020206C
:104170002020202020202020202020207065726612
:104180006F726D73202773616D706C696E67203577
:104190002C203136302C20352700202020202020D4
:1041A0002020202020202020202020202070657228
:1041B000666F726D7320276D7174747573657220EC
:1041C0007769636B656464657669636527002020A1
:1041D00020202020202020202020202020202020DF
:1041E00020706572666F726D7320276D71747461D3
:1041F00075746820656E61626C6527002020202040
:10420000202020202020202020202020202020705E
:104210006572666F726D7320276D717474706F7242
:1042200074203138383327002020202020202020FF
:104230002020202020202020202020706572666F02
:10424000726D7320276D717474737276206F706550
:104250006E73656E736F72732E696F270020202056
:10426000202020202020202020202020202020204E
:10427000706572666F726D7320276261636B6C6923
:1042800067687420696E69746F6E27002020202093
:1042900020202020202020202020202020202070CE
:1042A0006572666F726D7320276261636B6C6967FC
:1042B0006874203630270020202020202020202055
:1042C00020202020202020202020706572666F7220
:1042D0006D732027616C746974756465202D3100DD
:1042E00020202020202020202020202020202020CE
:1042F000202020706572666F726D73202774656D63
:1043000070756E6974204327002020202020202013
:104310002020202020202020202020207065726670
:104320006F726D7320276F706D6F6465206E6F7292
:104330006D616C27002020202020202020202020BC
:104340002020202020202020706572666F726D73FF
:104350002027757365206468637027002020202063
:1043600020202020202020202020202020202070FD
:104370006572666F726D73202773656375726974F9
:10438000792077706132270020202020202064656A
:104390006661756C7473202D202020706572666FC5
:1043A000726D7320276D6574686F6420646972652F
:1043B000637427002020203C706172616D3E20698B
:1043C00073206F6E65206F663A00726573746F724A
:1043D00065203C706172616D3E002020202020200D
:1043E000736D617274636F6E666967202D20696EEC
:1043F0006974696174652074686520536D617274B5
:10440000436F6E6669672070726F66696C652063C2
:1044100072656174696F6E2070726F63657373008B
:10442000202020202020202020202020202020208C
:1044300020202020746865204343333030302061D1
:104440006E642073746F72657320697420696E20C6
:10445000454550524F4D002020202020206D6163A3
:104460002020202020202020202D207265747269B9
:104470006576657320746865206D6163206164648E
:10448000726573732066726F6D002020203C70612E
:1044900072616D3E206973206F6E65206F663A0011
:1044A000696E6974203C706172616D3E002020204D
:1044B00020202020202020206973207072696E74D3
:1044C000656420746F2074686520636F6E736F6C11
:1044D000652E00202020726573756C743A20746814
:1044E000652063757272656E742C2068756D616EDF
:1044F0002D7265616461626C652C2076616C7565F6
:10450000206F66203C706172616D3E00202020208B
:104510002020616C746974756465202D2074686551
:1045200020616C746974756465206F6620746865B9
:104530002073656E736F7220696E206D657465728D
:10454000732061626F766520736561206C657665A6
:104550006C00202020202020617667696E74202D59
:10456000207468652073656E736F72206176657262
:104570006167696E6720696E74657276616C206927
:104580006E207365636F6E647300202020202020EE
:104590007265706F7274696E74202D207468652066
:1045A0007265706F7274696E672073616D706C698B
:1045B0006E6720696E74657276616C20696E207317
:1045C00065636F6E64730020202020202073616D6E
:1045D000706C65696E74202D207468652073656E3B
:1045E000736F722073616D706C696E6720696E7491
:1045F000657276616C20696E207365636F6E64739B
:104600000020202020202074696D657374616D7016
:10461000202D207468652063757272656E74207435
:10462000696D657374616D7020696E2074686520B2
:10463000666F726D6174206D2F642F7920683A6DFA
:104640003A73002020202020206261636B6C696730
:104650006874202D20746865206261636B6C6967E3
:104660006874206265686176696F7220736574741E
:10467000696E677320286475726174696F6E2C208F
:104680006D6F6465290020202020202074656D70E6
:10469000756E6974202D2074686520756E697420AC
:1046A0006F66206D6561737572652054656D706508
:1046B000726174757265206973207265706F7274AF
:1046C000656420696E202846206F722043290020EF
:1046D00020202020206F706D6F6465202D2074686D
:1046E00065204F7065726174696F6E616C204D6FEB
:1046F0006465207468652045676720697320636F6F
:104700006E6669677572656420666F72002020208E
:104710002020206B6579202D206C6F6C2C20736F0E
:104720007272792C2074686174277320616C736FC6
:10473000206E6F742068617070656E696E6721000D
:1047400020202020202068756D5F6F6666202D2058
:1047500048756D69646974792073656E736F722032
:104760007265706F7274696E67206F6666736574C8
:10477000205B255D202873756274726163746564C3
:10478000290020202020202074656D705F6F6666F0
:10479000202D2054656D706572617475726520738B
:1047A000656E736F72207265706F7274696E6720C8
:1047B0006F6666736574205B646567435D2028736C
:1047C0007562747261637465642900202020202062
:1047D00020636F5F6F6666202D20434F2073656EE8
:1047E000736F7273206F6666736574205B565D002D
:1047F000202020202020636F5F736C6F7065202D58
:1048000020434F2073656E736F727320736C6F70EB
:1048100065205B70706D2F565D00202020202020C9
:10482000636F5F73656E202D20434F2073656E7339
:1048300069746976697479205B6E412F70706D5D63
:10484000002020202020206E6F325F6F6666202DB2
:10485000204E4F322073656E736F7273206F6666E1
:10486000736574205B565D002020202020206E6F31
:10487000325F736C6F7065202D204E4F3220736550
:104880006E736F727320736C6F7065205B707062F3
:104890002F565D002020202020206E6F325F736530
:1048A0006E202D204E4F322073656E7369746976C9
:1048B000697479205B6E412F70706D5D002020203F
:1048C00020202075706461746566696C65202D20F8
:1048D0005570646174652066696C656E616D6520F4
:1048E000286E6F20657874656E73696F6E2900207D
:1048F0002020202020757064617465737276202DED
:104900002055706461746520736572766572206EDF
:10491000616D65002020202020206D717474617508
:104920007468202D204D5154542061757468656E53
:104930007469636174696F6E20656E61626C656431
:104940003F002020202020206D7174746964202D88
:10495000204D51545420636C69656E7420494400A5
:104960002020202020206D717474707764202D2009
:104970006C6F6C2C20736F7272792C207468617468
:104980002773206E6F742068617070656E696E6742
:104990002065697468657221002020202020206D28
:1049A00071747475736572202D204D5154542075A7
:1049B0007365726E616D65002020202020206D716E
:1049C0007474706F7274202D204D5154542073658F
:1049D0007276657220706F72740020202020202073
:1049E0006D717474737276202D204D515454207360
:1049F0006572766572206E616D6500202020202032
:104A00002069706D6F6465202D207468652057697A
:104A10002D46692049502D61646472657373206D61
:104A20006F64650020202020202073656375726903
:104A30007479202D207468652057692D466920738C
:104A400065637572697479206D6F6465002020203C
:104A5000202020707764202D206C6F6C2C20736FC9
:104A60007272792C20746861742773206E6F7420C1
:104A700068617070656E696E6721002020202020BB
:104A80002073736964202D207468652057692D4652
:104A900069205353494420746F20636F6E6E6563C1
:104AA0007420746F002020202020206D6574686FB2
:104AB00064202D207468652057692D466920636F36
:104AC0006E6E656374696F6E206D6574686F6400E7
:104AD0002020202020206D6163202D207468652017
:104AE0004D41432061646472657373206F66207466
:104AF0006865206363333030300020202020202080
:104B000073657474696E6773202D20646973706CAB
:104B100061797320616C6C207669657761626C6580
:104B20002073657474696E6773002020203C706187
:104B300072616D3E206973206F6E65206F663A006A
:104B4000676574203C706172616D3E0020202065B5
:104B50007869747320434F4E464947206D6F6465F2
:104B600020616E6420626567696E73204F50455204
:104B70004154494F4E414C206D6F64652E0065785D
:104B80006974002020202020202020202020666F13
:104B9000722074686520636F6D6D616E64206E6154
:104BA0006D6564203C6172673E0020202072657351
:104BB000756C743A20757361676520696E737472E1
:104BC000756374696F6E7320617265207072696EAF
:104BD000746564002020203C706172616D3E206924
:104BE0007320616E79206C6567616C20636F6D6DF9
:104BF000616E64206B6579776F72640068656C70B4
:104C0000203C706172616D3E0068656C70202020F0
:104C100020096578697420202020090020202020A8
:104C2000202020202020202066726F6D20636F6E70
:104C30006E656374696E6720746F20796F7572207A
:104C40006E6574776F726B2E002020207761726E14
:104C5000696E673A205573696E67207468697320BE
:104C6000636F6D6D616E6420696E636F72726563F0
:104C7000746C792063616E2070726576656E742045
:104C8000796F757220646576696365002020202045
:104C9000202020202020202066726F6D20707562F9
:104CA0006C697368696E67206461746120746F2039
:104CB00074686520696E7465726E65742E002020BC
:104CC000207761726E696E673A205573696E67204E
:104CD0007468697320636F6D6D616E6420696E63C3
:104CE0006F72726563746C792063616E2070726597
:104CF00076656E7420796F75722064657669636578
:104D00000020202020202020202020202070726FD2
:104D10006261626C79206E6F7420626520757369C0
:104D20006E67207468697320636F6D6D616E642EA9
:104D3000002020206E6F74653A20202020556E6C74
:104D400065737320796F75202A7265616C6C792A9E
:104D5000206B6E6F77207768617420796F7527728A
:104D60006520646F696E672C20796F752073686F9A
:104D7000756C64004151453E3A2000220045727234
:104D80006F723A20457870656374696E6720436F6F
:104D90006E666967204D6F646520556E6C6F636B3E
:104DA00020436F646520282261716522292C2062CE
:104DB0007574207265636569766564202200222C13
:104DC00020627574206E6F6E652077617320726546
:104DD000636569766564004572726F723A2041724C
:104DE00067756D656E7420657870656374656420A1
:104DF000666F7220636F6D6D616E64202200220009
:104E00004572726F723A20556E6B6E6F776E2063CB
:104E10006F6D6D616E6420220045786974696E67FC
:104E200020434F4E464947206D6F64652E2E2E005D
:104E30005761726E3A20496E7075742062756666AD
:104E400065722066756C6C20616E642063616E6EA5
:104E50006F7420616363657074206E65772063688A
:104E600061726163746572732E2050726573732072
:104E7000656E74657220746F20636C656172206268
:104E80007566666572732E004661696C65642E00F6
:104E90004F4B2E002020534D41525420434F4E463D
:104EA0004947202020205245434F4E4E4543544908
:104EB0004E47202000496E666F3A2043433330301E
:104EC0003020496E697469616C697A6174696F6ECA
:104ED0002E2E2E004661696C2E004F4B2E00496E1F
:104EE000666F3A2052544320496E697469616C6957
:104EF0007A6174696F6E2E2E2E004661696C65644E
:104F00002E004F4B2E00496E666F3A20434F2053C0
:104F1000656E736F722041444320496E6974696104
:104F20006C697A6174696F6E2E2E2E004661696C11
:104F300065642E004F4B2E00496E666F3A20434F3A
:104F40002053656E736F722041464520496E697427
:104F500069616C697A6174696F6E2E2E2E004661EC
:104F6000696C65642E004F4B2E00496E666F3A20C7
:104F70004E4F322053656E736F7220414443204977
:104F80006E697469616C697A6174696F6E2E2E2E18
:104F9000004661696C65642E004F4B2E00496E66B9
:104FA0006F3A204E4F322053656E736F7220414628
:104FB0004520496E697469616C697A6174696F6EC4
:104FC0002E2E2E004661696C65642E004F4B2E001C
:104FD000496E666F3A20534854323520496E6974E1
:104FE00069616C697A6174696F6E2E2E2E0046615C
:104FF000696C2E004F4B2E00496E666F3A20534469
:10500000204361726420496E697469616C697A61D8
:1050100074696F6E2E2E2E004661696C2E004F4B08
:105020002E00496E666F3A2053504920466C6173DA
:105030006820496E697469616C697A6174696F6E20
:105040002E2E2E004F4B2E00496E666F3A20536C69
:105050006F742053656C6563742050696E732049CA
:105060006E697469616C697A6174696F6E2E2E2E37
:1050700000414952205155414C4954592045474718
:1050800020004F4B2E00496E666F3A2054696E79AE
:10509000205761746368646F6720496E6974696141
:1050A0006C697A6174696F6E2E2E2E0020456767D9
:1050B0002053657269616C204E756D6265723A208D
:1050C0000020436F6D70696C6564206F6E3A20003C
:1050D000202B2D2D2D2D2D2D2D2D2D2D2D2D2D2D0F
:1050E0002D2D2D2D2D2D2D2D2D2D2D2D2D2D2D2DF0
:1050F0002D2D2D2D2D2D2B00202020202020207C1B
:1051000000207C202020202020204669726D7761BD
:1051100072652056657273696F6E2000207C2020B6
:1051200020202020204E4F32202F20434F20536537
:105130006E736F72205375697465202020202020C3
:1051400020207C00207C20202057656C636F6D65DB
:1051500020746F20416972205175616C69747920E7
:1051600045676720322E302020207C00202B2D2DFB
:105170002D2D2D2D2D2D2D2D2D2D2D2D2D2D2D2D5F
:105180002D2D2D2D2D2D2D2D2D2D2D2D2D2D2D2D4F
:105190002D2D2B00496E666F3A2057617463686449
:1051A0006F67205065742E00496E666F3A20536118
:1051B0006D706C696E672053656E736F72732040FB
:1051C000200054454D50202D2D2D20205248202DBB
:1051D0002D2D4E4F3220202D2D2D2020434F202DC0
:1051E0002D2D004572726F723A20556E61626C65AA
:1051F00020746F20636F6E6E65637420746F204D32
:10520000515454207365727665720020204D5154BC
:105210005420434F4E4E4543542020202020202030
:105220004641494C4544202020202000434F4E4613
:10523000494720494E544547524954592020434834
:1052400045434B204641494C45442020004572725D
:105250006F723A20436F6E66696720496E746567A6
:105260007269747920436865636B204661696C6577
:105270006420616674657220636865636B466F7253
:105280004669726D7761726555706461746573000B
:105290004572726F723A204661696C656420746F62
:1052A00020636F6E6E65637420746F20636F6E662B
:1052B000696775726564206E6574776F726B2E20F6
:1052C0005265626F6F74696E672E004F5045524190
:1052D00054494F4E414C204D4F4445002D7E3D2AB0
:1052E00020496E204F5045524154494F4E414C2069
:1052F0004D6F6465202A3D7E2D00496E666F3A2011
:1053000049646C652074696D6520657870697265A3
:10531000642C2065786974696E6720434F4E464956
:1053200047206D6F64652E0020403D3D3D3D3D3D75
:105330003D3D3D3D3D3D3D3D3D3D3D3D3D3D3D3D9D
:105340003D3D3D3D3D3D3D3D3D3D3D3D3D3D3D3D8D
:105350003D3D3D3D3D3D3D3D3D3D3D3D3D3D3D3D7D
:105360003D3D3D3D3D3D3D4000202320202020206F
:10537000616E642076657269667920746861742054
:105380007468652045676720636F6E6E656374732C
:1053900020746F20796F7572206E6574776F726BF1
:1053A00021202020202020202300202320202046F0
:1053B000696E616C6C792C20747970652027657832
:1053C00069742720746F20676F20696E746F204F97
:1053D0005045524154494F4E414C206D6F64652CED
:1053E00020202020202020202023002023202020D7
:1053F0005468656E20747970652027676574207322
:10540000657474696E6773272026207072657373E4
:10541000203C656E7465723E20746F2072657669FB
:10542000657720636F6E6669672023002023202044
:10543000205468656E207479706520277077642029
:10544000796F75725F6E6574776F726B5F70617381
:1054500073776F7264272026207072657373203C07
:10546000656E7465723E20202020202300202320BA
:1054700020204669727374207479706520277373D5
:10548000696420796F75725F737369645F686572B0
:10549000652720616E642026207072657373203C3E
:1054A000656E7465723E202020202020230020237A
:1054B0002D2D2D2D2D2D2D2D2D2D2D2D2D2D2D2D1C
:1054C0002D2D2D2D2D2D2D2D2D2D2D2D2D2D2D2D0C
:1054D0002D2D2D2D2D2D2D2D2D2D2D2D2D2D2D2DFC
:1054E0002D2D2D2D2D2D2D2D2D2D2D2D2D23002030
:1054F000232047455454494E472053544152544564
:105500004420202020202020202020202020202077
:10551000202020202020202020202020202020208B
:105520002020202020202020202020202020230098
:1055300020403D3D3D3D3D3D3D3D3D3D3D3D3D3DB5
:105540003D3D3D3D3D3D3D3D3D3D3D3D3D3D3D3D8B
:105550003D3D3D3D3D3D3D3D3D3D3D3D3D3D3D3D7B
:105560003D3D3D3D3D3D3D3D3D3D3D3D3D3D3D4068
:10557000002020202020202E2E2E6F7220276865EC
:105580006C70203C636D643E2720666F72206865F6
:105590006C70206F6E20612073706563696669634B
:1055A00020636F6D6D616E6400456E7465722027B7
:1055B00068656C702720666F722061206C69737457
:1055C000206F6620617661696C61626C6520636F33
:1055D0006D6D616E64732C2000206D696E73207791
:1055E0006974686F757420696E7075742E004F5001
:1055F00045524154494F4E414C206D6F64652062C5
:105600006567696E73206175746F6D61746963613C
:105610006C6C7920616674657220002020434F4EC7
:10562000464947204D4F4445002D7E3D2A20496E76
:1056300020434F4E464947204D6F6465202A3D7EEA
:105640002D002E2E2E00434F4E4E454354205445E0
:10565000524D494E414C464F5220434F4E464947CA
:10566000204D4F444520002073656373206F6620F2
:105670006E6F20696E7075742E004F504552415404
:10568000494F4E414C206D6F6465206175746F6D9C
:1056900061746963616C6C7920626567696E7320FF
:1056A00061667465722000456E74657220276171B1
:1056B000652720666F7220434F4E464947206D6F25
:1056C00064652E00434F4E46494720494E54454796
:1056D000524954592020434845434B204641494CA8
:1056E0004544202000496E666F3A20436F6E66691C
:1056F00067206D656D6F727920696E746567726978
:10570000747920636865636B206661696C65642CDD
:10571000206175746F6D61746963616C6C7920666A
:10572000616C6C696E67206261636B20746F2043EB
:105730004F4E464947206D6F64652E00504C4541E1
:10574000534520434F4E4649475552454E455457C1
:105750004F524B2053455454494E475300496E66AF
:105760006F3A204E6F2076616C6964205353494430
:1057700020636F6E666967757265642C206175744D
:105780006F6D61746963616C6C792066616C6C69C2
:105790006E67206261636B20746F20434F4E4649F1
:1057A00047206D6F64652E00496E666F3A20537412
:1057B000617274757020636F6E66696720696E74BC
:1057C00065677269747920636865636B20706173C3
:1057D0007365642C20627574206D6972726F7265D6
:1057E0006420636F6E6669672064696666657273BC
:1057F0002C20617474656D7074696E6720746F20FD
:10580000726573746F72652066726F6D206D697258
:10581000726F72656420636F6E666967757261741A
:10582000696F6E2E00496E666F3A20537461727410
:10583000757020636F6E66696720696E7465677244
:1058400069747920636865636B206661696C65645F
:105850002C20617474656D7074696E6720746F209C
:10586000726573746F72652066726F6D206D6972F8
:10587000726F72656420636F6E66696775726174BA
:10588000696F6E2E005F5E5F605F5E5F605F5E5F90
:10589000605F5E5F605F616970757778756F675F85
:1058A0005E5F605F5E6483A2C1E0FFF4D6B7987963
:1058B0005F5850474A525A605F5E5F60616A717814
:1058C0007D81848583807C766F67605F605F5E5FCB
:1058D000605F5E5F63696A65601F1C1F1E1F1E1F7D
:1058E0001F1E1F1E1F000000000103080004020706
:1058F00000090A0000000000000000000000000095
:105900000000000000010204080820400810108078
:1059100020408010042040800201010402010204A2
:105920000810204080040404040204040304020458
:105930000202020303030303030302020201010143
:1059400001010101010000200023002600290000C0
:10595000002200250028002B000000210024002741
:10596000002A004E414E494E495459494E46CDCC2D
:10597000CC3D0AD7233C17B7D13877CC2B3295953D
:10598000E6241FB14F0A000020410000C842004039
:105990001C4620BCBE4CCA1B0E5AAEC59D740040AE
:1059A0007A10F35A00A0724E18090010A5D4E8002E
:1059B00000E87648170000E40B54020000CA9A3B46
:1059C000000000E1F50500008096980000004042CC
:1059D0000F000000A086010000001027000000005A
:1059E000E803000000006400000000000A0000005E
:1059F00000000100000000002C76D888DC674F080A
:105A000023DFC1DFAE59E1B1B796E5E3E453C63A0F
:105A1000E651997696E8E6C28426EB898C9B62ED86
:105A2000407C6FFCEFBC9C9F40F2BAA56FA5F49040
:105A3000055A2AF75C936B6CF9676DC11BFCE0E4B7
:105A40000D47FEF520E6B500D0ED902E030094350D
:105A500077050080841E080000204E0A000000C860
:105A60000C333333330F986E12831141EF8D2114B1
:105A7000893BE65516CFFEE6DB18D1844B381BF781
:105A80007C1D901DA4BBE424203284725E22810020
:105A9000C9F124ECA1E53D272966587F638E6E8EFF
:105AA0007BC735D489DB11DC11241FBECFEFD0E4D6
:105AB000DEBFCDBF13E1A0E0B1E0ECE4FEEC01E01D
:105AC0000BBF02C007900D92A234B107D9F72AE3A9
:105AD000A2E4B3E101C01D92A030B207E1F71AE5DC
