:100000000C9442260C944DA80C947EA80C94AFA896
:100010000C9471260C9471260C9471260C94712604
:100020000C9471260C9471260C9471260C947126F4
:100030000C9471260C9471260C9471260C947126E4
:100040000C9471260C9471260C9419A70C947126AB
:100050000C945CAD0C9492AD0C9471260C947126AA
:100060000C9471260C9471260C940E6A0C947126D3
:100070000C9471260C9471260C9471260C947126A4
:100080000C9471260C9471260C94712666A669A6B0
:100090005CA660A680A680A66DA671A677A67BA6A4
:1000A0004F4B2E00496E666F3A2045726173696E40
:1000B00067206D6972726F72656420636F6E666926
:1000C000672E2E2E004F4B2E00496E666F3A20573A
:1000D000726974696E67206D6972726F72656420EF
:1000E000636F6E6669672E2E2E004572726F723ACC
:1000F000204D6972726F72656420636F6E66696706
:1001000075726174696F6E206973206E6F742076EA
:10011000616C69642C2063616E6E6F74207265730C
:10012000746F726520746F206C6173742076616CDB
:10013000696420636F6E66696775726174696F6E5A
:100140002E00496E666F3A20526573746F72656453
:10015000206C6173742076616C696420636F6E66D5
:10016000696775726174696F6E2C2062757420699D
:10017000742773207374696C6C206E6F74207661C1
:100180006C69642E00496E666F3A2053756363652F
:10019000737366756C6C7920726573746F726564C5
:1001A00020746F206C6173742076616C69642063C5
:1001B0006F6E66696775726174696F6E2E00457245
:1001C000726F723A20436F6E666967204D656D6F7E
:1001D0007279206973206E6F7420756E6C6F636B1B
:1001E00065642C2063616C6C65642066726F6D20A1
:1001F0006C696E65206E756D626572200020004925
:100200006E666F3A2043757272656E74206669720D
:100210006D77617265207369676E61747572653A96
:1002200020002C2041637475616C2046696C6573F5
:10023000697A653A20004572726F723A204578708B
:1002400065637465642046696C6573697A653A20F4
:10025000002C2041637475616C20436865636B7387
:10026000756D3A20004572726F723A20457870655C
:100270006374656420436865636B73756D3A200031
:100280004572726F723A20496E746567726974794B
:1002900020436865636B204661696C656421004991
:1002A0006E666F3A20496E7465677269747920438F
:1002B0006865636B205375636365656465642100DD
:1002C0002220746F2049502061646472657373202A
:1002D00000496E666F3A205265736F6C76656420D4
:1002E000220027004572726F723A20436F756C646A
:1002F0006E2774207265736F6C766520270020204E
:10030000205245534F4C56494E4700534F46545781
:1003100041524520414C52454144592020205550DE
:1003200020544F2044415445202020002055504463
:10033000415445204641494C454420202020524507
:10034000545259204C41544552202020004572728D
:100350006F723A204669726D7761726520557064DC
:10036000617465204661696C65642E205472792041
:10037000616761696E206C617465722062792072B8
:100380006573657474696E672E004150504C59490D
:100390004E47205550444154455357414954204FEE
:1003A0004E45204D494E5554452000496E666F3AE2
:1003B000204669726D77617265205570646174655D
:1003C00020436F6D706C6574652E20526573657483
:1003D000696E6720746F206170706C79206368614A
:1003E0006E6765732E00496E666F3A2057726F74A0
:1003F00065204D61676963204E756D6265720022EC
:1004000000496E666F3A20446F776E6C6F61646965
:100410006E672022002020202020504C454153456B
:100420002020202020202020202020574149542017
:100430002020202020002E6865780055504441542B
:100440004520415641494C41424C452020444F579C
:100450004E4C4F4144494E4720202000220020644A
:100460006F776E6C6F6164696E67202200496E66FB
:100470006F3A20417474656D70742023002E636898
:100480006B002020434845434B494E4720464F527E
:100490002020202020205550444154455320202026
:1004A000202000496E666F3A202D2D2D2D2D2D2DEB
:1004B0002D2D2D2D2D2D2D2D2D2D2D2D2D2D2D2D6C
:1004C0002D2D2D2D2D2D2D2D2D2D2D2D2D2D004571
:1004D00072726F723A205570646174652053657250
:1004E00076657220436F6E6E656374696F6E206609
:1004F00061696C656400496E666F3A202D2D2D2D63
:100500002D2D2D2D2D2D2D2D2D2D2D2D2D2D2D2D1B
:100510002D2D2D2D2D2D2D2D2D2D2D2D2D2D2D2D0B
:100520002D000D0A000D0A00486F73743A20002058
:10053000485454502F312E310D0A00474554202F76
:10054000002C002D2D2D002C002D2D2D002C002DEC
:100550002D2D002C002D2D2D002C006373763A20BC
:10056000002C006373763A2054696D657374616D75
:10057000705B6D696C6C697365636F6E64735D2C21
:1005800054656D70657261747572655B646567430F
:100590005D2C48756D69646974795B70657263651B
:1005A0006E745D2C4E4F325B7070625D2C434F5BFE
:1005B00070706D5D002D2D2D2C2D2D2D2C2D2D2DA4
:1005C0002C2D2D2D002C002C002C002C002D2D2D41
:1005D0002C2D2D2D2C2D2D2D2C2D2D2D002C002CAA
:1005E000002C002057492D4649204E4554574F5264
:1005F0004B2020202020204641494C5552452020A8
:10060000202020004572726F723A2057692D46698A
:100610002052652D636F6E6E656374204661696C50
:100620006564203520636F6E7365637574697665E4
:100630002074696D65732E20466F7263696E672042
:100640007265626F6F742E00730020636F6E736546
:100650006375746976652074696D65005761726EA3
:100660003A204661696C656420746F20636F6E6E1A
:1006700065637420746F2057692D4669206E657418
:10068000776F726B200020204D51545420534552F7
:10069000564552202020202020204641494C5552CA
:1006A000452020202020004572726F723A204D5163
:1006B000545420436F6E6E656374204661696C65A7
:1006C00064203520636F6E73656375746976652089
:1006D00074696D65732E20466F7263696E67207250
:1006E00065626F6F742E00730020636F6E736563B5
:1006F00075746976652074696D65005761726E3A2C
:10070000204661696C656420746F20636F6E6E654E
:10071000637420746F204D51545420736572766554
:100720007220004572726F723A204661696C65648E
:1007300020746F207075626C69736820434F2E00BF
:100740004572726F723A204661696C656420746FFD
:10075000207075626C697368204E4F322E004572AE
:10076000726F723A204661696C656420746F207004
:1007700075626C6973682048756D69646974792E57
:10078000004572726F723A204661696C656420742C
:100790006F207075626C6973682054656D70657246
:1007A00061747572652E004572726F723A204661EF
:1007B000696C656420746F207075626C6973682061
:1007C0004865617274626561742E004155544F52E0
:1007D00045534554204641494C45442052455345D4
:1007E0005420524551554952454420004572726F7C
:1007F000723A205761746368646F6720466F726352
:10080000652052657374617274206661696C6564F9
:100810002E204D616E75616C207265736574206960
:10082000732072657175697265642E00496E666F1A
:100830003A205475726E696E67206261636B6C69F1
:10084000676874206F6666202874696D657220651C
:10085000787069726564292E00496E666F3A20547B
:1008600075726E696E67206261636B6C696768742C
:10087000206F6E2E00496E666F3A20417665726178
:10088000676520546F7563682052656164696E679F
:100890003A20004661696C65642E004F4B2E002E95
:1008A0002E2E004D515454207075626C6973686926
:1008B0006E6720746F20746F7069632000466169F1
:1008C0006C65642E004F4B2E00576974686F757409
:1008D0002041757468656E7469636174696F6E2E0A
:1008E0002E2E007573696E672041757468656E748D
:1008F00069636174696F6E2E2E2E00222000496E8E
:10090000666F3A20436F6E6E656374696E6720741C
:100910006F204D5154542042726F6B65722077697D
:10092000746820436C69656E74204944202200225B
:1009300020746F20495020616464726573732000D5
:10094000496E666F3A205265736F6C76656420223B
:100950000027004572726F723A20436F756C646EA7
:100960002774207265736F6C766520270020202025
:100970005245534F4C56494E47005D004572726FC9
:10098000723A204144432052656164204572726F7F
:1009900072205B004F4B2E004572726F723A2046F8
:1009A00061696C656420746F20616371756972653B
:1009B00020495020616464726573732076696120F8
:1009C000444843502E205265626F6F74696E672EE3
:1009D000002052455155455354494E472049502017
:1009E0002000496E666F3A205265717565737420F8
:1009F000444843502E2E2E004572726F723A2043A7
:100A00006F6E6E656374696F6E206D6574686F6478
:100A1000206E6F742063757272656E746C792073CA
:100A20007570706F72746564004F4B2E00496E666E
:100A30006F3A2057616974696E6720666F72205340
:100A40006D617274436F6E66696720746F205265C2
:100A5000636F6E6E6563742E2E2E004F4B2E004515
:100A600072726F723A204661696C656420746F20FF
:100A7000636F6E6E65637420746F2041636365738A
:100A80007320506F696E74207769746820535349DE
:100A9000443A2000434F4E4E454354494E4720545C
:100AA0004F20415000222E2E2E00496E666F3A20B4
:100AB000436F6E6E656374696E6720746F20416367
:100AC0006365737320506F696E7420776974682052
:100AD00053534944202200496E666F3A20444E53D6
:100AE000736572763A2000496E666F3A2044484337
:100AF000507372763A2000496E666F3A20476174EF
:100B0000657761793A2000496E666F3A204E6574C8
:100B10006D61736B3A2000496E666F3A2049502030
:100B2000416464723A20004572726F723A20556EC9
:100B300061626C6520746F20726574726965766598
:100B40002074686520495020416464726573732184
:100B50000052535349203D2000222C2000496E664C
:100B60006F3A20466F756E6420416363657373202E
:100B7000506F696E74202200206E6574776F726BFF
:100B80007300496E666F3A204E6574776F726B2002
:100B90005363616E20666F756E6420004572726FDC
:100BA000723A204E6574776F726B205363616E20CA
:100BB0004661696C656400496E666F3A20426567FC
:100BC000696E6E696E67204E6574776F726B205325
:100BD00063616E2E2E2E00205343414E4E494E47E8
:100BE0002057492D46492020202020202020202049
:100BF000202020202020200020636861726163741F
:100C0000657273206C6F6E672E00202020202020DC
:100C1000206275742077617320004572726F723A9A
:100C20002050726976617465206B6579206D7573EB
:100C3000742062652065786163746C792036342095
:100C400063686172616374657273206C6F6E672C88
:100C500020005D004572726F723A20496E76616CB9
:100C60006964206865782076616C756520666F75AB
:100C70006E64205B002220746F20646563696D617F
:100C80006C206E756D6265722E004572726F723ADD
:100C9000204661696C656420746F20636F6E7665B1
:100CA000727420737472696E672022004572726FCD
:100CB000723A20496E76616C696420706172616D70
:100CC000657465722070726F766964656420746FF4
:100CD00020276261636B75702720636F6D6D616E95
:100CE00064202D2022004572726F723A2055706484
:100CF0006174652066696C656E616D65206D7573E4
:100D000074206265206C657373207468616E203393
:100D100032206368617261637465727320696E204A
:100D20006C656E677468004572726F723A20557018
:100D30006461746520736572766572206E616D659D
:100D4000206D757374206265206C65737320746800
:100D5000616E2033322063686172616374657273FF
:100D600020696E206C656E677468004572726F72E0
:100D70003A20496E76616C696420706172616D65BC
:100D80007465722070726F766964656420746F2078
:100D9000276D717474706F72742720636F6D6D614D
:100DA0006E64202D2022004572726F723A20496EC7
:100DB00076616C696420706172616D657465722022
:100DC00070726F766964656420746F20276D71742A
:100DD00074617574682720636F6D6D616E64202D7A
:100DE0002022004572726F723A204D515454206394
:100DF0006C69656E74204944206D7573742062655A
:100E0000206C657373206265747765656E20312090
:100E1000616E64203233206368617261637465724D
:100E20007320696E206C656E677468004572726F1E
:100E3000723A204D51545420636C69656E74204998
:100E400044206D75737420626567696E20776974DC
:100E5000682061206C6574746572004572726F72EF
:100E60003A204D51545420757365726E616D652042
:100E70006D757374206265206C657373207468618E
:100E80006E2033322063686172616374657273200F
:100E9000696E206C656E677468004572726F723A95
:100EA000204D51545420736572766572206E616DC9
:100EB00065206D757374206265206C657373207492
:100EC00068616E2033322063686172616374657299
:100ED0007320696E206C656E677468004572726F6E
:100EE000723A204D5154542070617373776F72645D
:100EF000206D757374206265206C6573732074684F
:100F0000616E20333220636861726163746572734D
:100F100020696E206C656E677468004572726F722E
:100F20003A20496E76616C696420706172616D650A
:100F30007465722070726F766964656420746F20C6
:100F400027666F7263652720636F6D6D616E642025
:100F50002D202200496E666F3A2045726173696EDA
:100F600067206C61737420666C61736820706167C0
:100F700065004572726F723A20496E76616C6964E1
:100F800020706172616D657465722070726F766930
:100F900064656420746F20277573652720636F6D07
:100FA0006D616E64202D2022004572726F723A20AE
:100FB00073657444434850204661696C6564206FD2
:100FC0006E20434333303030004572726F723A20E6
:100FD00073657453746174696349504164647265E4
:100FE0007373204661696C6564206F6E20434333E0
:100FF000303030005D004572726F723A20495020E7
:1010000041646472657373206D75737420636F6ED1
:101010007461696E20342076616C6964206F63743A
:1010200065747320736570617261746564206279A0
:1010300020272E27205B40706172616D2000220006
:101040004572726F723A2049502061646472657310
:1010500073207061727365206572726F72206F6E9B
:1010600020696E7075742022005D004572726F7287
:101070003A2049502061646472657373206F637411
:10108000657473206D75737420626520696E746574
:101090006765722076616C756573205B4070617264
:1010A000616D200020202020202020004572726FDA
:1010B000723A20546F6F2066657720706172616D9F
:1010C00065746572732070617373656420746F203A
:1010D00073746174696369700020202020202020CF
:1010E000004572726F723A20546F6F206D616E7995
:1010F00020706172616D65746572732070617373C5
:10110000656420746F20737461746963697000276B
:10111000004572726F723A2074656D706572617409
:1011200075726520756E6974206D757374206265C3
:1011300020274327206F72202746272C20627574B2
:101140002072656365697665642027002020202071
:1011500020202076616C6964206F7074696F6E73F3
:10116000206172653A20276E6F726D616C272C20AA
:10117000277A65726F270022004572726F723A20DB
:10118000496E76616C6964206F7065726174696F15
:101190006E616C206D6F646520656E746572656448
:1011A000202D2022002020202020202076616C6924
:1011B00064206F7074696F6E73206172653A2027C6
:1011C0006F70656E272C2027776570272C20277776
:1011D0007061272C20616E642027777061322700B0
:1011E00022004572726F723A20496E76616C6964B2
:1011F000207365637572697479206D6F646520650D
:101200006E7465726564202D2022004572726F72C3
:101210003A204E6574776F726B2070617373776FCD
:101220007264206D757374206265206C6573732021
:101230007468616E20333220636861726163746523
:10124000727320696E206C656E67746800457272F7
:101250006F723A2053534944206D75737420626550
:10126000206C657373207468616E2033322063686C
:10127000617261637465727320696E206C656E675C
:101280007468002020202020202076616C69642072
:101290006F7074696F6E73206172653A202764699C
:1012A00072656374272C2027736D617274636F6E8F
:1012B000666967272C20616E64202770666F64273B
:1012C0000022004572726F723A20496E76616C6935
:1012D0006420636F6E6E656374696F6E206D6574F4
:1012E000686F6420656E7465726564202D2022002D
:1012F0004661696C65642E004F4B2E00496E666F27
:101300003A2044656C657465696E672073746F720A
:1013100065642070726F66696C65732E2E2E0045B1
:1013200072726F723A204D4143206164647265733A
:1013300073206D75737420636F6E7461696E2036EF
:101340002062797465732C20776974682065616305
:10135000682073657061726174656420627920270A
:101360003A27004572726F723A204661696C656473
:1013700020746F207772697465204D414320616449
:10138000647265737320746F2043433330303000D0
:1013900022004572726F723A204D414320616464AD
:1013A00072657373207061727365206572726F72FB
:1013B000206F6E20696E707574202200202020201E
:1013C000202020004572726F723A20546F6F206D9A
:1013D000616E79206F6374657473207061737365D7
:1013E0006420746F207365746D61633A200022007D
:1013F0004572726F723A20556E65787065637465D8
:101400006420706172616D61746572206E616D65DA
:10141000202200202020202020207072696F72205E
:10142000746F20657865637574696E672061202725
:10143000726573746F7265272E004572726F723A0F
:101440002048756D6964697479207265706F727473
:10145000696E67206F6666736574206D757374209E
:101460006265206261636B656420757020200020D6
:101470002020202020207072696F7220746F2065F8
:101480007865637574696E6720612027726573746F
:101490006F7265272E004572726F723A2054656D27
:1014A0007065726174757265207265706F727469AF
:1014B0006E67206F6666736574206D757374206245
:1014C00065206261636B65642075702020002020B8
:1014D00020202020207072696F7220746F20657840
:1014E00065637574696E6720612027726573746F18
:1014F0007265272E004572726F723A20434F206347
:10150000616C6962726174696F6E206D75737420AD
:101510006265206261636B65642075702020002025
:101520002020202020207072696F7220746F206547
:101530007865637574696E672061202772657374BE
:101540006F7265272E004572726F723A204E4F32CD
:101550002063616C6962726174696F6E206D75736E
:1015600074206265206261636B6564207570202061
:1015700000202020202020207072696F7220746F5C
:1015800020657865637574696E67206120277265D0
:1015900073746F7265272E004572726F723A205015
:1015A000726976617465206B6579206D757374203E
:1015B0006265206261636B65642075702020002085
:1015C0002020202020207072696F7220746F2065A7
:1015D0007865637574696E6720612027726573741E
:1015E0006F7265272E004572726F723A204D51540A
:1015F000542050617373776F7264206D757374201B
:101600006265206261636B65642075702020002034
:101610002020202020207072696F7220746F206556
:101620007865637574696E672061202772657374CD
:101630006F7265272E004572726F723A204D4143DA
:101640002061646472657373206D757374206265C4
:10165000206261636B656420757020200022004564
:1016600072726F723A20556E657870656374656446
:10167000205661726961626C65204E616D65202241
:10168000002020434F4E464947204D4F44450049D6
:101690006E666F3A20536176656420636F6E6E6587
:1016A0006374696F6E2064657461696C7320616E28
:1016B0006420636F6E6E656374656420746F20418F
:1016C0005021004572726F723A20536D61727443FB
:1016D0006F6E666967204372656174652046616953
:1016E0006C65642E00202020205354415254494EF2
:1016F00047202020202020534D41525420434F4E5C
:10170000464947202000496E666F3A205761697448
:10171000696E6720666F72206120536D6172744339
:101720006F6E66696720636F6E6E656374696F6E56
:101730002E2E2E004572726F723A20436F756C64C4
:10174000206E6F74207265747269657665204D41F4
:101750004320616464726573732066726F6D204309
:1017600043333030300022004572726F723A205598
:101770006E65787065637465642056617269616234
:101780006C65204E616D65202200202B2D2D2D2DA6
:101790002D2D2D2D2D2D2D2D2D2D2D2D2D2D2D2D79
:1017A0002D2D2D2D2D2D2D2D2D2D2D2D2D2D2D2D69
:1017B0002D2D2D2D2D2D2D2D2D2D2D2D2D2D2D2D59
:1017C0002D2D2D2D2D2D2D2D2D2B00207C2020205D
:1017D000202072756E20276261636B757020616CCA
:1017E0006C27207768656E20796F7520617265209F
:1017F000736174697366696564202020202020204D
:10180000202020202020202020207C00207C206EF2
:101810006F74653A20272A27206E65787420746FCC
:10182000206C6162656C206D65616E732074686503
:101830002073657474696E67206973206E6F7420FD
:101840006261636B65642075702E207C00202B2DF7
:101850002D2D2D2D2D2D2D2D2D2D2D2D2D2D2D2DB8
:101860002D2D2D2D2D2D2D2D2D2D2D2D2D2D2D2DA8
:101870002D2D2D2D2D2D2D2D2D2D2D2D2D2D2D2D98
:101880002D2D2D2D2D2D2D2D2D2D2D2D2B00202BC6
:101890002D2D2D2D2D2D2D2D2D2D2D2D2D2D2D2D78
:1018A0002D2D2D2D2D2D2D2D2D2D2D2D2D2D2D2D68
:1018B0002D2D2D2D2D2D2D2D2D2D2D2D2D2D2D2D58
:1018C0002D2D2D2D2D2D2D2D2D2D2D2D2D2B002084
:1018D0007C2053656E736F722043616C6962726124
:1018E00074696F6E733A2020202020202020202051
:1018F00020202020202020202020202020202020E8
:1019000020202020202020202020202020207C009B
:10191000202B2D2D2D2D2D2D2D2D2D2D2D2D2D2D06
:101920002D2D2D2D2D2D2D2D2D2D2D2D2D2D2D2DE7
:101930002D2D2D2D2D2D2D2D2D2D2D2D2D2D2D2DD7
:101940002D2D2D2D2D2D2D2D2D2D2D2D2D2D2D2BC9
:1019500000202B2D2D2D2D2D2D2D2D2D2D2D2D2DF3
:101960002D2D2D2D2D2D2D2D2D2D2D2D2D2D2D2DA7
:101970002D2D2D2D2D2D2D2D2D2D2D2D2D2D2D2D97
:101980002D2D2D2D2D2D2D2D2D2D2D2D2D2D2D2D87
:101990002B00207C2043726564656E7469616C73F2
:1019A0003A2020202020202020202020202020201D
:1019B0002020202020202020202020202020202027
:1019C0002020202020202020202020202020202017
:1019D000207C00202B2D2D2D2D2D2D2D2D2D2D2D31
:1019E0002D2D2D2D2D2D2D2D2D2D2D2D2D2D2D2D27
:1019F0002D2D2D2D2D2D2D2D2D2D2D2D2D2D2D2D17
:101A00002D2D2D2D2D2D2D2D2D2D2D2D2D2D2D2D06
:101A10002D2D2B00202020204D51545420436C6943
:101A2000656E742049443A2000202020204D5154F6
:101A30005420506F72743A2000202020204D5154C1
:101A400054205365727665723A2000202B2D2D2D7F
:101A50002D2D2D2D2D2D2D2D2D2D2D2D2D2D2D2DB6
:101A60002D2D2D2D2D2D2D2D2D2D2D2D2D2D2D2DA6
:101A70002D2D2D2D2D2D2D2D2D2D2D2D2D2D2D2D96
:101A80002D2D2D2D2D2D2D2D2D2D2B00207C204D60
:101A90005154542053657474696E67733A20202042
:101AA0002020202020202020202020202020202036
:101AB0002020202020202020202020202020202026
:101AC00020202020202020202020207C00202B2DC2
:101AD0002D2D2D2D2D2D2D2D2D2D2D2D2D2D2D2D36
:101AE0002D2D2D2D2D2D2D2D2D2D2D2D2D2D2D2D26
:101AF0002D2D2D2D2D2D2D2D2D2D2D2D2D2D2D2D16
:101B00002D2D2D2D2D2D2D2D2D2D2D2D2B0020204E
:101B100020205570646174652046696C656E616D46
:101B2000653A2000202020205570646174652053A0
:101B300065727665723A2000202020204950204DA1
:101B40006F64653A20002020202053656375726918
:101B50007479204D6F64653A200020202020535373
:101B600049443A2000202020204D6574686F643A73
:101B70002000202B2D2D2D2D2D2D2D2D2D2D2D2DDE
:101B80002D2D2D2D2D2D2D2D2D2D2D2D2D2D2D2D85
:101B90002D2D2D2D2D2D2D2D2D2D2D2D2D2D2D2D75
:101BA0002D2D2D2D2D2D2D2D2D2D2D2D2D2D2D2D65
:101BB0002D2B00207C204E6574776F726B2053654F
:101BC0007474696E67733A20202020202020202022
:101BD0002020202020202020202020202020202005
:101BE00020202020202020202020202020202020F5
:101BF00020207C00202B2D2D2D2D2D2D2D2D2D2D1C
:101C00002D2D2D2D2D2D2D2D2D2D2D2D2D2D2D2D04
:101C10002D2D2D2D2D2D2D2D2D2D2D2D2D2D2D2DF4
:101C20002D2D2D2D2D2D2D2D2D2D2D2D2D2D2D2DE4
:101C30002D2D2D2B002020202054656D70657261A4
:101C40007475726520556E6974733A2000202020E7
:101C5000204F7065726174696F6E616C204D6F64A6
:101C6000653A2000202B2D2D2D2D2D2D2D2D2D2DA8
:101C70002D2D2D2D2D2D2D2D2D2D2D2D2D2D2D2D94
:101C80002D2D2D2D2D2D2D2D2D2D2D2D2D2D2D2D84
:101C90002D2D2D2D2D2D2D2D2D2D2D2D2D2D2D2D74
:101CA0002D2D2D2B00207C20507265666572656E8F
:101CB0006365732F4F7074696F6E733A2020202014
:101CC0002020202020202020202020202020202014
:101CD0002020202020202020202020202020202004
:101CE000202020207C00202B2D2D2D2D2D2D2D2D45
:101CF0002D2D2D2D2D2D2D2D2D2D2D2D2D2D2D2D14
:101D00002D2D2D2D2D2D2D2D2D2D2D2D2D2D2D2D03
:101D10002D2D2D2D2D2D2D2D2D2D2D2D2D2D2D2DF3
:101D20002D2D2D2D2D2B005D0030004572726F7210
:101D30003A20556E6B6E6F776E2074656D706572AC
:101D4000617475726520756E697473205B307800FC
:101D500046616872656E686569740043656C736995
:101D60007573005D0030004572726F723A20556ED7
:101D70006B6E6F776E206F7065726174696F6E61E4
:101D80006C206D6F6465205B3078005A65726F69F6
:101D90006E67004E6F726D616C00202020204D51E7
:101DA00054542041757468656E7469636174696F19
:101DB0006E3A2044697361626C65640020202020C3
:101DC0004D51545420557365726E616D653A200013
:101DD000202020204D5154542041757468656E7444
:101DE00069636174696F6E3A20456E61626C656407
:101DF00000200020002A002020002E002020204467
:101E00004E53205365727665723A202020202020A0
:101E10000020202044656661756C742047617465FC
:101E20007761793A20002020204E65746D61736BD4
:101E30003A2020202020202020200020202049504F
:101E400020416464726573733A20202020202000B2
:101E5000436F6E6669677572656420666F722053A2
:101E600074617469632049503A2000436F6E66695B
:101E7000677572656420666F722044484350005D48
:101E80000030004572726F723A20556E6B6E6F773C
:101E90006E207365637572697479206D6F64652057
:101EA000636F6465205B3078004175746F6D617499
:101EB0006963202D204E6F74205965742044657429
:101EC00065726D696E65640057504132005750412C
:101ED00000574550004F70656E004E6F20535349B8
:101EE000442063757272656E746C7920636F6E66E0
:101EF0006967757265642E005D0030004572726F0F
:101F0000723A20556E6B6E6F776E20636F6E6E65E2
:101F10006374696F6E206D6574686F6420636F64AD
:101F200065205B30780050666F642057692D4669E4
:101F300020436F6E6E656374205B6E6F74206375F3
:101F40007272656E746C7920737570706F727465DF
:101F5000645D00536D61727420436F6E6669672023
:101F6000436F6E6E656374004469726563742043E9
:101F70006F6E6E656374003A003000220045727225
:101F80006F723A205468657265206973206E6F2005
:101F900068656C7020617661696C61626C65206651
:101FA0006F7220636F6D6D616E64202200202020AF
:101FB00020202046202D207265706F727420746579
:101FC0006D706572617475726520696E2046616816
:101FD00072656E68656974002020202020204320EF
:101FE0002D207265706F72742074656D70657261FA
:101FF0007475726520696E2043656C736975730032
:102000002020203C756E69743E206973206F6E65D8
:10201000206F663A0074656D70756E6974203C754A
:102020006E69743E002020202020202020202020C7
:1020300020204E6F74653A20546869732070726F67
:1020400063657373206D61792074616B65207365BE
:10205000766572616C20686F75727320746F20638F
:102060006F6D706C6574652066726F6D20636F6C48
:10207000642073746172742E002020202020207A46
:1020800065726F202D20706572666F726D207365AA
:102090006E736F72207A65726F2D696E6720667538
:1020A0006E6374696F6E2C20616E64207265737547
:1020B0006D65206E6F726D616C206D6F6465207749
:1020C00068656E20636F6D706C6574652E002020EE
:1020D000202020206E6F726D616C202D2070756243
:1020E0006C697368206461746120746F204D515471
:1020F0005420736572766572206F76657220576919
:102100002D4669002020203C6D6F64653E20697378
:10211000206F6E65206F663A006F706D6F6465208A
:102120003C6D6F64653E002020202020206120331C
:10213000322D6279746520283235362D6269742912
:102140002068657861646563696D616C2076616C97
:102150007565206F66207468652070726976617499
:1021600065206B6579002020203C737472696E676E
:102170003E20697320612036342D6368617261638B
:1021800074657220737472696E672072657072650F
:1021900073656E74696E6720006B6579203C73749B
:1021A00072696E673E002020203C6E756D6265721C
:1021B0003E2069732074686520646563696D616C95
:1021C0002076616C7565206F662048756D6964695D
:1021D00074792073656E736F72207265706F72749C
:1021E000696E67206F6666736574205B255D2028C5
:1021F00073756274726163746564290068756D5FDC
:102200006F6666203C6E756D6265723E0020202010
:102210003C6E756D6265723E20697320746865203E
:10222000646563696D616C2076616C7565206F66AD
:102230002054656D70657261747572652073656E8A
:10224000736F72207265706F7274696E67206F664B
:1022500066736574205B646567435D2028737562EF
:1022600074726163746564290074656D705F6F6674
:1022700066203C6E756D6265723E002020203C6ECB
:10228000756D6265723E20697320746865206465AF
:1022900063696D616C2076616C7565206F662043A3
:1022A0004F2073656E736F72206F6666736574205E
:1022B0005B565D00636F5F6F6666203C6E756D6296
:1022C00065723E002020203C6E756D6265723E2076
:1022D00069732074686520646563696D616C20763C
:1022E000616C7565206F6620434F2073656E736F58
:1022F0007220736C6F7065205B70706D2F565D007F
:10230000636F5F736C6F7065203C6E756D62657294
:102310003E002020206E6F74653A20616C736F2040
:10232000736574732074686520434F20736C6F70FD
:1023300065206261736564206F6E20746865207328
:10234000656E7369746976697479002020203C6E2B
:10235000756D6265723E20697320746865206465DE
:1023600063696D616C2076616C7565206F662043D2
:102370004F2073656E7369746976697479205B6E3A
:10238000412F70706D5D00636F5F63616C203C6E08
:10239000756D6265723E002020203C6E756D626531
:1023A000723E2069732074686520646563696D619D
:1023B0006C2076616C7565206F66204E4F322073FD
:1023C000656E736F72206F6666736574205B565D11
:1023D000006E6F325F6F6666203C6E756D6265726F
:1023E0003E002020203C6E756D6265723E20697350
:1023F0002074686520646563696D616C2076616C2A
:102400007565206F66204E4F322073656E736F7254
:1024100020736C6F7065205B7070622F565D006E6C
:102420006F325F736C6F7065203C6E756D626572A4
:102430003E002020206E6F74653A20616C736F201F
:102440007365747320746865204E4F3220736C6F0F
:102450007065206261736564206F6E20746865200A
:1024600073656E7369746976697479002020203C05
:102470006E756D6265723E206973207468652064B4
:102480006563696D616C2076616C7565206F66208F
:102490004E4F322073656E73697469766974792062
:1024A0005B6E412F70706D5D006E6F325F63616CAB
:1024B000203C6E756D6265723E0020202020202039
:1024C000616C6C2020202020202D20646F657320FB
:1024D000616C6C206F66207468652061626F766540
:1024E0000020202020202068756D20202020202022
:1024F0002D206261636B73207570207468652048BD
:10250000756D69646974792063616C696272617464
:10251000696F6E20706172616D6574657273002001
:10252000202020202074656D7020202020202D2068
:102530006261636B73207570207468652054656DEB
:1025400070657261747572652063616C6962726135
:1025500074696F6E20706172616D6574657273006D
:10256000202020202020636F202020202020202DCC
:10257000206261636B732075702074686520434F1F
:102580002063616C6962726174696F6E2070617240
:10259000616D6574657273002020202020206E6FAD
:1025A000322020202020202D206261636B73207553
:1025B0007020746865204E4F322063616C696272CE
:1025C0006174696F6E20706172616D65746572739C
:1025D000002020202020206B657920202020202032
:1025E0002D206261636B73207570207468652032E2
:1025F00035362D6269742070726976617465206B5E
:102600006579002020202020206D6163202020207B
:1026100020202D206261636B7320757020746865C3
:1026200020434333303030204D4143206164647295
:10263000657373002020202020206D7174747077E2
:102640006420202D206261636B7320757020746894
:1026500065204D5154542070617373776F7264001C
:102660002020203C706172616D3E206973206F6E86
:1026700065206F663A006261636B7570203C706123
:1026800072616D3E0020202020202020202020206C
:102690002066726F6D2067657474696E6720666965
:1026A000726D776172652075706461746573206FF7
:1026B0007665722074686520696E7465726E6574E3
:1026C0002E002020207761726E696E673A20557364
:1026D000696E67207468697320636F6D6D616E64E5
:1026E00020696E636F72726563746C792063616ECA
:1026F0002070726576656E7420796F7572206465DE
:1027000076696365002020202020202020202020C2
:102710002070726F6261626C79206E6F74206265E6
:10272000207573696E67207468697320636F6D6DBF
:10273000616E642E002020206E6F74653A20202088
:1027400020556E6C65737320796F75202A726561F0
:102750006C6C792A206B6E6F7720776861742079B2
:102760006F7527726520646F696E672C20796F75AD
:102770002073686F756C64002020203C737472694C
:102780006E673E206973207468652066696C656EAB
:10279000616D6520746F206C6F61642066726F6D6F
:1027A0002074686520557064617465207365727665
:1027B00065722C206578636C7564696E6720746837
:1027C0006520657874656E73696F6E2E0075706430
:1027D00061746566696C65203C737472696E673EEE
:1027E0000020202020202020202020202066726F22
:1027F0006D2067657474696E67206669726D7761B4
:1028000072652075706461746573206F76657220DF
:1028100074686520696E7465726E65742E00202080
:10282000207761726E696E673A205573696E672012
:102830007468697320636F6D6D616E6420696E6387
:102840006F72726563746C792063616E207072655B
:1028500076656E7420796F7572206465766963653C
:102860000020202020202020202020202070726F97
:102870006261626C79206E6F742062652075736985
:102880006E67207468697320636F6D6D616E642E6E
:10289000002020206E6F74653A20202020556E6C39
:1028A00065737320796F75202A7265616C6C792A63
:1028B000206B6E6F77207768617420796F7527724F
:1028C0006520646F696E672C20796F752073686F5F
:1028D000756C64002020203C737472696E673E2022
:1028E00069732074686520444E53206E616D6520C5
:1028F0006F66207468652055706461746520736527
:10290000727665722E0075706461746573727620DC
:102910003C737472696E673E002020203C6E756DBA
:102920006265723E206973207468652061206E754F
:102930006D626572206265747765656E2031206115
:102940006E6420363535333520696E636C75736976
:102950007665006D717474706F7274203C6E756D65
:102960006265723E002020203C737472696E673E7F
:1029700020697320746865206F6E65206F6620275C
:10298000656E61626C6527206F72202764697361D0
:10299000626C6527006D71747461757468203C7396
:1029A0007472696E673E00202020202020202020A5
:1029B0002020204D757374206265206265747765F0
:1029C000656E203120616E6420323320636861724D
:1029D000616374657273206C6F6E6720706572201E
:1029E0004D5154542076332E3120737065632E0080
:1029F0002020203C737472696E673E2069732074D6
:102A0000686520436C69656E742049442075736560
:102A10006420746F20636F6E6E65637420746F2022
:102A2000746865204D515454207365727665722E1A
:102A3000006D7174746964203C737472696E673ED2
:102A4000002020203C737472696E673E20697320F9
:102A500074686520757365726E616D652075736548
:102A60006420746F20636F6E6E65637420746F20D2
:102A7000746865204D515454207365727665722ECA
:102A8000006D71747475736572203C737472696E35
:102A9000673E002020203C737472696E673E206997
:102AA000732074686520444E53206E616D65206FFD
:102AB0006620746865204D515454207365727665A4
:102AC000722E006D717474737276203C7374726927
:102AD0006E673E00202020202020746F20746865DF
:102AE000204D515454207365727665722E0020205B
:102AF000203C737472696E673E2069732074686548
:102B00002070617373776F726420746865206465E8
:102B1000766963652077696C6C2075736520746FC6
:102B200020636F6E6E65637420006D7174747077CE
:102B300064203C737472696E673E00202020202060
:102B400020202020202020202020616E6420736817
:102B50006F756C6420696E6974696174652066695B
:102B6000726D77617265207570646174652061664D
:102B700074657220636F6E6E656374696E6720742E
:102B80006F2077692D66692E0020202020202020CC
:102B90002020202020202020636F6E6669677572D8
:102BA000657320666F72206E6F726D616C206D6F41
:102BB00064652C20616E6420657869747320636F8E
:102BC0006E666967206D6F64652C200020202020D0
:102BD0002020757064617465202D20696E76616CAB
:102BE00069646174657320746865206669726D77C5
:102BF000617265207369676E61747572652C20005F
:102C00002020203C706172616D3E206973206F6EE0
:102C100065206F663A00666F726365203C70617272
:102C2000616D3E0020202020202064686370202DEC
:102C300020776970657320746865205374617469C6
:102C40006320495020616464726573732066726FFB
:102C50006D2074686520454550524F4D002020205E
:102C60003C706172616D3E206973206F6E65206FEC
:102C7000663A00757365203C706172616D3E00209C
:102C800020206E6F74653A202020546F20636F6E91
:102C900066696775726520444843502075736520E6
:102CA000636F6D6D616E6420277573652064686362
:102CB000702700202020726573756C743A20546868
:102CC0006520656E746572656420737461746963F0
:102CD000206E6574776F726B20706172616D6574C0
:102CE0006572732077696C6C20626520757365640A
:102CF00020627920746865204343333030300020EF
:102D000020202020203C706172616D343E20646E72
:102D100073207365727665722069702061646472D5
:102D20006573732C20652E672E20382E382E382E92
:102D300038002020202020203C706172616D333EDD
:102D40002064656661756C7420676174657761796C
:102D500020697020616464726573732C20652E672E
:102D60002E203139322E3136382E312E31002020AE
:102D7000202020203C706172616D323E206E6574AF
:102D80006D61736B2C20652E672E203235352E3207
:102D900035352E3235352E30002020202020203CA5
:102DA000706172616D313E20737461746963206972
:102DB0007020616464726573732C20652E672E2009
:102DC0003139322E3136382E312E31370020202045
:102DD0003C636F6E6669673E20697320666F75722B
:102DE000206970206164647265737320736570611B
:102DF0007261746564206279207370616365730029
:102E00007374617469636970203C636F6E6669678F
:102E10003E002020202020206175746F202D20642A
:102E2000657465726D696E6520647572696E672080
:102E30006669727374206E6574776F726B20737538
:102E4000636365737366756C207363616E00202025
:102E50002020202077706132202D20746865206E3C
:102E60006574776F726B20575041322050657273D2
:102E70006F6E616C207365637572697479002020D0
:102E80002020202077706120202D20746865206E1E
:102E90006574776F726B2057504120506572736F65
:102EA0006E616C20736563757269747900202020EF
:102EB00020202077657020202D20746865206E65A5
:102EC00074776F726B205745502073656375726914
:102ED0007479002020202020206F70656E202D2026
:102EE000746865206E6574776F726B2069732075E6
:102EF0006E73656375726564002020203C6D6F649D
:102F0000653E206973206F6E65206F663A007365B9
:102F1000637572697479203C6D6F64653E00202092
:102F20002020202074686520535349442074686130
:102F30007420746865206465766963652073686FC2
:102F4000756C6420636F6E6E65637420746F2E0001
:102F50002020203C737472696E673E206973207470
:102F60006865206E6574776F726B2070617373771C
:102F70006F726420666F722000707764203C7374F7
:102F800072696E673E002020203C737472696E6720
:102F90003E206973207468652053534944206F664E
:102FA00020746865206E6574776F726B2074686535
:102FB000206465766963652073686F756C6420634F
:102FC0006F6E6E65637420746F2E00737369642076
:102FD0003C737472696E673E0020202020202070B0
:102FE000666F64202D207573652070666F64576965
:102FF0006669436F6E6E65637420636F6E666967A2
:103000002070726F6365737320205B6E6F7420791C
:10301000657420737570706F727465645D00202034
:1030200020202020736D617274636F6E6669672063
:103030002D2075736520736D61727420636F6E66E9
:1030400069672070726F63657373002020202020F1
:1030500020646972656374202D207573652070612A
:1030600072616D657465727320656E7465726564F6
:1030700020696E20434F4E464947206D6F646500BE
:103080002020203C747970653E206973206F6E6546
:10309000206F663A006D6574686F64203C747970C7
:1030A000653E00202020202020202020202020619C
:1030B0006E642069732073746F72656420696E207A
:1030C00074686520454550524F4D2E0020202072D7
:1030D0006573756C743A202054686520656E74655C
:1030E000726564204D41432061646472657373208E
:1030F00069732061737369676E656420746F2074EF
:1031000068652043433330303000202020202020C9
:103110002020202020202020202030383A61623AD0
:1031200037333A44413A38663A3030002020203C68
:10313000616464726573733E2069732061204D4140
:10314000432061646472657373206F6620746865E0
:1031500020666F726D3A006D6163203C6164647239
:103160006573733E0020202020202068756D5F6FFE
:103170006666202020202D20726573746F7265733F
:10318000207468652048756D69646974792072657A
:10319000706F7274696E67206F66667365742066FF
:1031A000726F6D204241434B55502000202020205B
:1031B000202074656D705F6F66662020202D207260
:1031C0006573746F726573207468652054656D70E3
:1031D00065726174757265207265706F7274696E64
:1031E00067206F66667365742066726F6D2042415A
:1031F000434B55502000202020202020636F2020AA
:10320000202020202020202D20726573746F72658D
:10321000732074686520434F2063616C696272613A
:1032200074696F6E20706172616D65746572732070
:1032300066726F6D204241434B5550200020202084
:103240002020206E6F3220202020202020202D20C2
:10325000726573746F72657320746865204E4F32A7
:103260002063616C6962726174696F6E2070617253
:10327000616D65746572732066726F6D20424143A3
:103280004B555020002020202020206B65792020E5
:103290002020202020202D20726573746F726573AA
:1032A000207468652050726976617465204B657979
:1032B0002066726F6D204241434B55502000202004
:1032C0002020202075706461746566696C65202D0E
:1032D00020726573746F7265732074686520557011
:1032E000646174652066696C656E616D650020209F
:1032F0002020202075706461746573727620202D03
:1033000020726573746F72657320746865205570E0
:103310006461746520736572766572206E616D6597
:10332000002020202020206D7174746964202020EA
:1033300020202D20726573746F7265732074686528
:10334000204D51545420636C69656E7420494400CB
:103350002020202020206D7174747077642020203C
:10336000202D20726573746F7265732074686520F8
:103370004D5154542070617373776F72642066727C
:103380006F6D204241434B555020002020202020CB
:103390002020202020202020202020202020616E9E
:1033A000642061737369676E7320697420746F2081
:1033B000746865204343333030302C2076696120B7
:1033C0006120276D61632720636F6D6D616E6400FE
:1033D0002020202020206D6163202020202020201C
:1033E000202D207265747269657665732074686536
:1033F000206D616320616464726573732066726F0F
:103400006D204241434B5550002020202020202099
:10341000202020202020202020202020636C656197
:10342000727320746865204E6574776F726B2050DC
:10343000617373776F72642066726F6D206D656D56
:103440006F727900202020202020202020202020A2
:1034500020202020202020636C6561727320746816
:103460006520535349442066726F6D206D656D6F02
:1034700072790020202020202020202020202020C1
:10348000202020202020706572666F726D732027C7
:10349000726573746F726520636F2700202020208F
:1034A00020202020202020202020202020202070CC
:1034B0006572666F726D732027726573746F7265C3
:1034C000206E6F3227002020202020202020202066
:1034D000202020202020202020706572666F726DD1
:1034E000732027726573746F7265206B657927008E
:1034F00020202020202020202020202020202020CC
:10350000202020706572666F726D7320277265735C
:10351000746F72652075706461746566696C652787
:1035200000202020202020202020202020202020BB
:1035300020202020706572666F726D73202772657F
:1035400073746F7265207570646174657372762729
:10355000002020202020202020202020202020208B
:1035600020202020706572666F726D73202772654F
:1035700073746F7265206D71747469642700202004
:10358000202020202020202020202020202020203B
:1035900020706572666F726D732027726573746F29
:1035A0007265206D7174747077642700202020206C
:1035B00020202020202020202020202020202070BB
:1035C0006572666F726D732027726573746F7265B2
:1035D000206D616327002020202020202020202033
:1035E000202020202020202020706572666F726DC0
:1035F00073202768756D5F6F666620302E30270058
:1036000020202020202020202020202020202020BA
:10361000202020706572666F726D73202774656D4F
:10362000705F6F666620332E352700202020202013
:1036300020202020202020202020202020207065F5
:1036400072666F726D7320276D7174747573657215
:10365000207769636B65646465766963652700201C
:10366000202020202020202020202020202020205A
:103670002020706572666F726D7320276D7174748F
:103680006175746820656E61626C6527002020207A
:10369000202020202020202020202020202020202A
:1036A000706572666F726D7320276D717474706FC0
:1036B0007274203138383327002020202020202029
:1036C00020202020202020202020202070657266CD
:1036D0006F726D7320276D717474737276206F70C2
:1036E000656E73656E736F72732E696F270020208D
:1036F00020202020202020202020202020202020CA
:1037000020706572666F726D73202774656D7075B9
:103710006E697420432700202020202020202020B4
:1037200020202020202020202020706572666F72CB
:103730006D7320276F706D6F6465206E6F726D61A1
:103740006C27002020202020202020202020202046
:10375000202020202020706572666F726D732027F4
:103760007573652064686370270020202020202066
:103770002020202020202020202020202070657262
:10378000666F726D73202773656375726974792033
:103790007770613227002020202020206465666138
:1037A000756C7473202D202020706572666F726DA9
:1037B0007320276D6574686F642064697265637433
:1037C00027002020203C706172616D3E20697320CB
:1037D0006F6E65206F663A00726573746F72652054
:1037E0003C706172616D3E00202020202020736DAE
:1037F000617274636F6E666967202D20696E6974EB
:10380000696174652074686520536D617274436FDB
:103810006E6669672070726F66696C652063726599
:103820006174696F6E2070726F636573730020201E
:103830002020202020202020202020202020202088
:1038400020207468652043433330303020616E643B
:103850002073746F72657320697420696E2045450A
:1038600050524F4D002020202020206D61632020E9
:10387000202020202020202D20726574726965761A
:10388000657320746865206D61632061646472658E
:1038900073732066726F6D002020203C706172612E
:1038A0006D3E206973206F6E65206F663A00696E09
:1038B0006974203C706172616D3E002020202020E0
:1038C0002020202020206973207072696E74656446
:1038D00020746F2074686520636F6E736F6C652E43
:1038E00000202020726573756C743A20746865201E
:1038F00063757272656E742C2068756D616E2D72C1
:1039000065616461626C652C2076616C7565206F01
:1039100066203C706172616D3E00202020202020D6
:1039200074656D70756E6974202D207468652075DE
:103930006E6974206F66206D6561737572652054C1
:10394000656D70657261747572652069732072654A
:10395000706F7274656420696E202846206F722033
:103960004329002020202020206F706D6F64652087
:103970002D20746865204F7065726174696F6E6187
:103980006C204D6F64652074686520456767206909
:103990007320636F6E6669677572656420666F7207
:1039A000002020202020206B6579202D206C6F6C5A
:1039B0002C20736F7272792C2074686174277320C5
:1039C000616C736F206E6F742068617070656E69D2
:1039D0006E67210020202020202068756D5F6F66B3
:1039E00066202D2048756D69646974792073656E51
:1039F000736F72207265706F7274696E67206F6684
:103A000066736574205B255D20287375627472612E
:103A100063746564290020202020202074656D7067
:103A20005F6F6666202D2054656D706572617475D8
:103A300072652073656E736F72207265706F727439
:103A4000696E67206F6666736574205B64656743A3
:103A50005D20287375627472616374656429002047
:103A60002020202020636F5F6F6666202D20434F4B
:103A70002073656E736F7273206F66667365742052
:103A80005B565D00202020202020636F5F736C6FE9
:103A90007065202D20434F2073656E736F72732005
:103AA000736C6F7065205B70706D2F565D00202009
:103AB00020202020636F5F63616C202D20434F2006
:103AC00073656E7369746976697479205B6E412FD2
:103AD00070706D5D002020202020206E6F325F6F9F
:103AE0006666202D204E4F322073656E736F7273A1
:103AF000206F6666736574205B565D002020202071
:103B000020206E6F325F736C6F7065202D204E4FDA
:103B1000322073656E736F727320736C6F706520E3
:103B20005B7070622F565D002020202020206E6F79
:103B3000325F63616C202D204E4F322073656E73AF
:103B400069746976697479205B6E412F70706D5D60
:103B50000020202020202075706461746566696CE7
:103B600065202D205570646174652066696C656EF2
:103B7000616D6520286E6F20657874656E73696F5E
:103B80006E290020202020202075706461746573E8
:103B90007276202D2055706461746520736572768D
:103BA0006572206E616D65002020202020206D71DF
:103BB000747461757468202D204D515454206175C2
:103BC0007468656E7469636174696F6E20656E6197
:103BD000626C65643F002020202020206D71747489
:103BE0006964202D204D51545420636C69656E74B6
:103BF000204944002020202020206D7174747077AB
:103C000064202D206C6F6C2C20736F7272792C20C5
:103C1000746861742773206E6F74206861707065BA
:103C20006E696E67206569746865722100202020C6
:103C30002020206D71747475736572202D204D5194
:103C4000545420757365726E616D650020202020CC
:103C500020206D717474706F7274202D204D51543A
:103C6000542073657276657220706F727400202024
:103C7000202020206D717474737276202D204D5198
:103C8000545420736572766572206E616D650020F4
:103C9000202020202069706D6F6465202D207468BD
:103CA000652057692D46692049502D61646472650D
:103CB0007373206D6F6465002020202020207365C1
:103CC000637572697479202D207468652057692D99
:103CD0004669207365637572697479206D6F6465D8
:103CE00000202020202020707764202D206C6F6C15
:103CF0002C20736F7272792C207468617427732082
:103D00006E6F742068617070656E696E6721002047
:103D1000202020202073736964202D207468652082
:103D200057692D4669205353494420746F20636FAF
:103D30006E6E65637420746F002020202020206D3B
:103D40006574686F64202D207468652057692D465E
:103D50006920636F6E6E656374696F6E206D657444
:103D6000686F64002020202020206D6163202D20BA
:103D7000746865204D4143206164647265737320EB
:103D80006F66207468652063633330303000202014
:103D90002020202073657474696E6773202D206461
:103DA0006973706C61797320616C6C2076696577DA
:103DB00061626C652073657474696E67730020209E
:103DC000203C706172616D3E206973206F6E6520CA
:103DD0006F663A00676574203C706172616D3E00E9
:103DE000202020657869747320434F4E4649472050
:103DF0006D6F646520616E6420626567696E732013
:103E00004F5045524154494F4E414C206D6F6465AF
:103E10002E0065786974002020202020202020209A
:103E20002020666F722074686520636F6D6D616E0F
:103E300064206E616D6564203C6172673E002020E5
:103E400020726573756C743A2075736167652069BB
:103E50006E737472756374696F6E7320617265201E
:103E60007072696E746564002020203C706172611C
:103E70006D3E20697320616E79206C6567616C20EE
:103E8000636F6D6D616E64206B6579776F7264002E
:103E900068656C70203C706172616D3E0068656C95
:103EA00070202020200965786974202020200900D6
:103EB00020202020202020202020202066726F6DCE
:103EC00020636F6E6E656374696E6720746F20790E
:103ED0006F7572206E6574776F726B2E00202020D4
:103EE0007761726E696E673A205573696E672074E8
:103EF00068697320636F6D6D616E6420696E636FB6
:103F000072726563746C792063616E20707265767D
:103F1000656E7420796F75722064657669636500DB
:103F200020202020202020202020202066726F6D5D
:103F3000207075626C697368696E67206461746172
:103F400020746F2074686520696E7465726E657484
:103F50002E002020207761726E696E673A205573BB
:103F6000696E67207468697320636F6D6D616E643C
:103F700020696E636F72726563746C792063616E21
:103F80002070726576656E7420796F757220646535
:103F9000766963650020202020202020202020201A
:103FA0002070726F6261626C79206E6F742062653E
:103FB000207573696E67207468697320636F6D6D17
:103FC000616E642E002020206E6F74653A202020E0
:103FD00020556E6C65737320796F75202A72656148
:103FE0006C6C792A206B6E6F77207768617420790A
:103FF0006F7527726520646F696E672C20796F7505
:104000002073686F756C64004151453E3A20002270
:10401000004572726F723A20457870656374696EFC
:104020006720436F6E666967204D6F646520556E2B
:104030006C6F636B20436F64652028226171652279
:10404000292C206275742072656365697665642029
:104050002200222C20627574206E6F6E65207761BD
:1040600073207265636569766564004572726F726C
:104070003A20417267756D656E742065787065636E
:1040800074656420666F7220636F6D6D616E64206D
:10409000220022004572726F723A20556E6B6E6F6D
:1040A000776E20636F6D6D616E64202200457869C4
:1040B00074696E6720434F4E464947206D6F6465B3
:1040C0002E2E2E005761726E3A20496E7075742044
:1040D0006275666665722066756C6C20616E642020
:1040E00063616E6E6F7420616363657074206E65CA
:1040F0007720636861726163746572732E205072F9
:1041000065737320656E74657220746F20636C65CF
:10411000617220627566666572732E004661696C15
:1041200065642E004F4B2E002020534D41525420E9
:10413000434F4E464947202020205245434F4E4E84
:10414000454354494E47202000496E666F3A20434C
:10415000433330303020496E697469616C697A612B
:1041600074696F6E2E2E2E004661696C65642E0098
:104170004F4B2E00496E666F3A20434F2053656EB9
:10418000736F722041444320496E697469616C69A0
:104190007A6174696F6E2E2E2E004661696C6564BB
:1041A0002E004F4B2E00496E666F3A20434F20532E
:1041B000656E736F722041464520496E697469616E
:1041C0006C697A6174696F6E2E2E2E004661696C7F
:1041D00065642E004F4B2E00496E666F3A204E4F9D
:1041E000322053656E736F722041444320496E69DB
:1041F0007469616C697A6174696F6E2E2E2E004647
:1042000061696C65642E004F4B2E00496E666F3AF3
:10421000204E4F322053656E736F72204146452009
:10422000496E697469616C697A6174696F6E2E2E6A
:104230002E004661696C65642E004F4B2E00496E5E
:10424000666F3A20534854323520496E697469616B
:104250006C697A6174696F6E2E2E2E004661696CEE
:104260002E004F4B2E00496E666F3A205350492066
:10427000466C61736820496E697469616C697A6122
:1042800074696F6E2E2E2E004F4B2E00496E666F96
:104290003A20536C6F742053656C656374205069C9
:1042A0006E7320496E697469616C697A6174696FB3
:1042B0006E2E2E2E00414952205155414C495459E1
:1042C0002045474720004F4B2E00496E666F3A202D
:1042D00054696E79205761746368646F6720496E12
:1042E000697469616C697A6174696F6E2E2E2E0033
:1042F000204567672053657269616C204E756D6259
:1043000065723A200020436F6D70696C6564206FA0
:104310006E3A2000202B2D2D2D2D2D2D2D2D2D2DC8
:104320002D2D2D2D2D2D2D2D2D2D2D2D2D2D2D2DBD
:104330002D2D2D2D2D2D2D2D2D2D2B002020202010
:104340002020207C00207C20202020202020466966
:10435000726D776172652056657273696F6E2000A9
:10436000207C202020202020204E4F32202F204350
:104370004F2053656E736F722053756974652020EA
:104380002020202020207C00207C20202057656CCD
:10439000636F6D6520746F20416972205175616C87
:1043A0006974792045676720322E302020207C00F8
:1043B000202B2D2D2D2D2D2D2D2D2D2D2D2D2D2D3C
:1043C0002D2D2D2D2D2D2D2D2D2D2D2D2D2D2D2D1D
:1043D0002D2D2D2D2D2D2B00496E666F3A20576106
:1043E000746368646F67205065742E00496E666F51
:1043F0003A2053616D706C696E672053656E736F00
:104400007273204020005A45524F2D494E47205389
:10441000454E534F52534E4F3220202D2D2D2020EC
:10442000434F202D2D2D0054454D50202D2D2D2056
:10443000205248202D2D2D4E4F3220202D2D2D2065
:1044400020434F202D2D2D004572726F723A20555A
:104450006E61626C6520746F20636F6E6E6563744D
:1044600020746F204D51545420736572766572002C
:1044700020204D51545420434F4E4E45435420204C
:1044800020202020204641494C4544202020202047
:1044900000434F4E46494720494E544547524954E0
:1044A000592020434845434B204641494C45442030
:1044B00020004572726F723A20436F6E6669672002
:1044C000496E7465677269747920436865636B200F
:1044D0004661696C65642061667465722063686515
:1044E000636B466F724669726D7761726555706471
:1044F0006174657300496E666F3A204D6972726F20
:1045000072656420636F6E66696775726174696F46
:104510006E20616C7265616479206D617463686599
:10452000732063757272656E7420636F6E6669675F
:1045300075726174696F6E2E004572726F723A20E7
:104540004D6972726F72656420636F6E666967751C
:10455000726174696F6E20636F6D6D69742066613E
:10456000696C656420746F2076616C696461746540
:104570002E004572726F723A204661696C65642044
:10458000746F20636F6E6E65637420746F20636F49
:104590006E66696775726564206E6574776F726B9D
:1045A0002E205265626F6F74696E672E004F504502
:1045B000524154494F4E414C204D4F4445002D7EB1
:1045C0003D2A20496E204F5045524154494F4E419B
:1045D0004C204D6F6465202A3D7E2D00496E666F2C
:1045E0003A2049646C652074696D6520657870694E
:1045F0007265642C2065786974696E6720434F4E3C
:10460000464947206D6F64652E0020403D3D3D3D8D
:104610003D3D3D3D3D3D3D3D3D3D3D3D3D3D3D3DCA
:104620003D3D3D3D3D3D3D3D3D3D3D3D3D3D3D3DBA
:104630003D3D3D3D3D3D3D3D3D3D3D3D3D3D3D3DAA
:104640003D3D3D3D3D3D3D3D3D4000202320202062
:104650002020616E642076657269667920746861D5
:1046600074207468652045676720636F6E6E6563AC
:10467000747320746F20796F7572206E6574776F14
:10468000726B2120202020202020230020232020A6
:104690002046696E616C6C792C20747970652027D6
:1046A000657869742720746F20676F20696E746F56
:1046B000204F5045524154494F4E414C206D6F643C
:1046C000652C2020202020202020202300202320B3
:1046D00020205468656E20747970652027676574A2
:1046E0002073657474696E67732720262070726565
:1046F0007373203C656E7465723E20746F20726522
:104700007669657720636F6E6669672023002023D2
:104710002020205468656E2074797065202770779A
:104720006420796F75725F6E6574776F726B5F70FE
:10473000617373776F7264272026207072657373BC
:10474000203C656E7465723E2020202020230020CE
:1047500023202020466972737420747970652027A5
:104760007373696420796F75725F737369645F68CE
:104770006572652720616E642026207072657373F0
:10478000203C656E7465723E20202020202023008E
:1047900020232D2D2D2D2D2D2D2D2D2D2D2D2D2D60
:1047A0002D2D2D2D2D2D2D2D2D2D2D2D2D2D2D2D39
:1047B0002D2D2D2D2D2D2D2D2D2D2D2D2D2D2D2D29
:1047C0002D2D2D2D2D2D2D2D2D2D2D2D2D2D2D2323
:1047D0000020232047455454494E4720535441520A
:1047E000544544202020202020202020202020204C
:1047F00020202020202020202020202020202020B9
:1048000020202020202020202020202020202020A8
:10481000230020403D3D3D3D3D3D3D3D3D3D3D3D39
:104820003D3D3D3D3D3D3D3D3D3D3D3D3D3D3D3DB8
:104830003D3D3D3D3D3D3D3D3D3D3D3D3D3D3D3DA8
:104840003D3D3D3D3D3D3D3D3D3D3D3D3D3D3D3D98
:104850003D40002020202020202E2E2E6F72202769
:1048600068656C70203C636D643E2720666F722023
:1048700068656C70206F6E20612073706563696677
:10488000696320636F6D6D616E6400456E7465725F
:10489000202768656C702720666F722061206C6924
:1048A0007374206F6620617661696C61626C65204B
:1048B000636F6D6D616E64732C2000206D696E7383
:1048C00020776974686F757420696E7075742E0036
:1048D0004F5045524154494F4E414C206D6F6465D5
:1048E00020626567696E73206175746F6D617469AC
:1048F00063616C6C792061667465722000202043CE
:104900004F4E464947204D4F4445002D7E3D2A20BD
:10491000496E20434F4E464947204D6F6465202A1B
:104920003D7E2D002E2E2E00434F4E4E45435420EB
:104930005445524D494E414C464F5220434F4E46EE
:104940004947204D4F444520002073656373206F15
:1049500066206E6F20696E7075742E004F50455240
:104960004154494F4E414C206D6F64652061757410
:104970006F6D61746963616C6C7920626567696EE3
:10498000732061667465722000456E74657220271D
:104990006171652720666F7220434F4E464947205C
:1049A0006D6F64652E0020202056414C49442053F1
:1049B000534944202020202020205245515549525F
:1049C00045442020202000496E666F3A204E6F201B
:1049D00076616C6964205353494420636F6E666945
:1049E00067757265642C206175746F6D617469639D
:1049F000616C6C792066616C6C696E6720626163C2
:104A00006B20746F20434F4E464947206D6F64659D
:104A10002E00434F4E46494720494E544547524980
:104A200054592020434845434B204641494C454476
:104A3000202000496E666F3A20436F6E66696720DA
:104A40006D656D6F727920696E74656772697479CE
:104A500020636865636B206661696C65642C206106
:104A600075746F6D61746963616C6C792066616CDB
:104A70006C696E67206261636B20746F20434F4ED8
:104A8000464947206D6F64652E00496E666F3A2077
:104A90005374617274757020636F6E666967206904
:104AA0006E7465677269747920636865636B2070E2
:104AB00061737365642C20627574206D6972726F06
:104AC00072656420636F6E666967206469666665F7
:104AD00072732C20617474656D7074696E672074D4
:104AE0006F20726573746F72652066726F6D206DD2
:104AF0006972726F72656420636F6E666967757242
:104B00006174696F6E2E00496E666F3A205374614E
:104B10007274757020636F6E66696720696E746564
:104B2000677269747920636865636B206661696C7C
:104B300065642C20617474656D7074696E6720748F
:104B40006F20726573746F72652066726F6D206D71
:104B50006972726F72656420636F6E6669677572E1
:104B60006174696F6E2E005F5E5F605F5E5F605FA5
:104B70005E5F605F5E5F605F616970757778756FBB
:104B8000675F5E5F605F5E6483A2C1E0FFF4D6B7DB
:104B900098795F5850474A525A605F5E5F60616A19
:104BA00071787D81848583807C766F67605F605FCC
:104BB0005E5F605F5E5F63696A65600000000001C0
:104BC00003080004020700090A00000000000000BA
:104BD00000000000000000000000000102040808BE
:104BE00020400810108020408010042040800201E6
:104BF000010402010204081020408004040404029D
:104C00000404030402040202020303030303030374
:104C10000202020101010101010101000020002343
:104C2000002600290000002200250028002B00009B
:104C3000002100240027002A004E414E494E4954CD
:104C400059494E46CDCCCC3D0AD7233C17B7D13875
:104C500077CC2B329595E6241FB14F0A00002041F6
:104C60000000C84200401C4620BCBE4CCA1B0E5A65
:104C7000AEC59D74C8552C69F077FB770C99DFA5FC
:104C80003EADC6AD11241FBECFEFD0E4DEBFCDBF19
:104C900010E1A0E0B1E0EEE3FFE601E00BBF02C0EF
:104CA00007900D92AE3EB107D9F723E2AEEEB0E128
:104CB00001C01D92AA36B207E1F71CE4C4E8DCE4A7
:104CC00000E006C022970109FE010BBF0E9407B158
:104CD000C437D10780E00807A9F70E944DAD0C94B6
:104CE0009DB70C9400008627682F62956827062ED2
:104CF000669566956025062E669560256770082E78
:104D0000892F669507946795902D86270694679559
:104D10009025862708959B01AC0168E27BE68EE62C
:104D20009EE40E9472AE20E030E849EF53E40E9416
:104D300072AE08959B01AC0160E074E284E799E4EF
:104D40000E9472AE20E030E048EC52E40E9472AE65
:104D50000895BF92CF92DF92EF92FF920F931F932D
:104D6000CF93DF93B62E69017A01E8012091F41107
:104D70003091F5112F3F310509F090F4A9014F5FF3
:104D80005F4F5093F5114093F411F901EC50FF4E31
:104D900080834115514021F41092F5111092F411C5
:104DA000B11007C08091F4119091F511892B09F091
:104DB000E1C08091F0109091F110A091F210B091AB
:104DC000F3109F70AA27BB27892B8A2B8B2B51F0BE
:104DD0000091F4111091F51101151105E1F400E0B5
:104DE00011E019C082EF9BE10E945A9B8111FACF1A
:104DF0004091F0105091F1106091F2107091F31009
:104E000082EF9BE10E94829C82EF9BE10E945A9B71
:104E10008111FACFDDCF4091F0105091F1106091E7
:104E2000F2107091F31024EF30E182EF9BE10E94C9
:104E3000459C80E091E0E4EFF0E1DF019C011D92F0
:104E400021503040E1F78091F0109091F110A09145
:104E5000F210B091F3109F5FAF4FBF4F8093F010EF
:104E60009093F110A093F210B093F310BB2009F4CB
:104E700081C08091E4189091E518A091E618B09156
:104E8000E718C816D906EA06FB0611F5AE0160E080
:104E900070E08091E0189091E118A091E218B09133
:104EA000E318481759076A077B0791F481E080935C
:104EB000D8186FE972E08BEC92E2DF91CF911F91ED
:104EC0000F91FF90EF90DF90CF90BF900C9461A96D
:104ED00060E872E08BEC92E20E9461A965E672E004
:104EE0008BEC92E20E941FA94091E0185091E118CA
:104EF0006091E2187091E3182AE030E08BEC92E2C6
:104F00000E9430AA61E572E08BEC92E20E941FA938
:104F10004AE050E0BE018BEC92E20E9461AA66E397
:104F200072E08BEC92E20E941FA94091E41850912C
:104F3000E5186091E6187091E7182AE030E08BECF4
:104F400092E20E9430AA62E272E08BEC92E20E944E
:104F50001FA92AE030E0B701A6018BEC92E2DF91B5
:104F6000CF911F910F91FF90EF90DF90CF90BF9066
:104F70000C9477AADF91CF911F910F91FF90EF9042
:104F8000DF90CF90BF900895CF93DF9300D0CDB73F
:104F9000DEB7662309F455C04AE050E0BE016F5FFA
:104FA0007F4F87EF91E10E947CB26093E418709389
:104FB000E5188093E6189093E71889819A81009705
:104FC00089F04AE050E060E070E00E947CB26093BB
:104FD000E0187093E1188093E2189093E31881E051
:104FE0008093D91865E172E08BEC92E20E9473A97C
:104FF0006EE272E08BEC92E20E9444A94091E418C8
:105000005091E5186091E6187091E7182AE030E0B9
:105010008BEC92E20E9477AA63E472E08BEC92E25E
:105020000E9444A94091E0185091E1186091E21863
:105030007091E3182AE030E08BEC92E20E9477AAAC
:105040000CC0E091F611EF3340F491E09E0F909385
:10505000F611F0E0E950FE4E80830F900F90DF9143
:10506000CF91089560EA7FE080E090E00C9492A7F1
:1050700060ED77E080E090E00C9492A71F9281E0D1
:105080008F931F921F921F9282E08F9383E59BE084
:105090009F938F931F928FE08F9383EC98E19F9360
:1050A0008F930E9463B48DB79EB70C960FB6F89499
:1050B0009EBF0FBE8DBF089568E070E48BEC92E256
:1050C0000C941FA90F931F93CF93DF93FC010190C2
:1050D0000020E9F73197E81BF90BEF3F2FEFF207BC
:1050E00079F0EC018C010E0F1F1FC017D10741F0A2
:1050F0008881992787FD90950E94B4B38993F5CF55
:10510000DF91CF911F910F91089565EC7FE38BECB8
:1051100092E20E9461A965E97FE38BEC92E20C9434
:1051200061A962E57FE38BEC92E20E9461A960E2F3
:105130007FE38BEC92E20C9461A96DED7EE38BEC46
:1051400092E20E9461A960EB7EE38BEC92E20C9408
:1051500061A90F931F93CF93DF93EC010E94622804
:105160002097A9F56DE97EE38BEC92E20E941FA9DE
:1051700010E003E082E0810FC12FD0E0CC0FDD1FF3
:10518000FE01E55BFE4F20813181232BC1F0602FB2
:105190000E947FB0911104C08BEC92E20E944DA955
:1051A000C55BDE4F688179818BEC92E20E9444A955
:1051B00069E08BEC92E20E9446A91F5FDBCF8BEC8B
:1051C00092E2DF91CF911F910F910C944DA944E091
:1051D00050E0BE018DE592E00E941FB4892BA9F436
:1051E00060E97EE38BEC92E20E9461A968E67EE3CF
:1051F0008BEC92E20E9461A96EE37EE38BEC92E27B
:105200000E9461A967E17EE3FDC444E050E0BE0175
:1052100082E692E00E941FB4892B49F462E17EE3AA
:105220008BEC92E20E9461A960EE7DE3EBC443E067
:1052300050E0BE0187E692E00E941FB4892B09F07E
:10524000B1C064ED7DE38BEC92E20E9461A96EEB4C
:105250007DE38BEC92E20E9461A96EE87DE38BEC2A
:1052600092E20E9461A964E67DE38BEC92E20E94E7
:1052700061A969E37DE38BEC92E20E9461A96FE092
:105280007DE38BEC92E20E9461A961EE7CE38BEC02
:1052900092E20E9461A968EB7CE38BEC92E20E94AF
:1052A00061A96FE87CE38BEC92E20E9461A96EE653
:1052B0007CE38BEC92E20E9461A96CE47CE38BECD2
:1052C00092E20E9461A96DE27CE38BEC92E20E9483
:1052D00061A964EF7BE38BEC92E20E9461A966ED29
:1052E0007BE38BEC92E20E9461A968EA7BE38BECA2
:1052F00092E20E9461A963E87BE38BEC92E20E9458
:1053000061A961E57BE38BEC92E20E9461A968E20E
:105310007BE38BEC92E20E9461A96CEF7AE38BEC69
:1053200092E20E9461A965ED7AE38BEC92E20E9421
:1053300061A96EEA7AE38BEC92E20E9461A964E8CB
:105340007AE38BEC92E20E9461A96FE57AE38BEC41
:1053500092E20E9461A966E17AE38BEC92E20E94FC
:1053600061A964ED79E38BEC92E20E9461A961EAA4
:1053700079E38BEC92E20E9461A963E679E38BEC1E
:1053800092E20E9461A96AE179E38BEC92E20E94C9
:1053900061A961EE78E38BEC92E20E9461A96BEB6C
:1053A00078E330C444E050E0BE018BE692E00E9416
:1053B0001FB4892BD9F46EEA78E38BEC92E20E9459
:1053C00061A968E978E38BEC92E20E9461A965E645
:1053D00078E38BEC92E20E9461A96EE278E38BECB9
:1053E00092E20E9461A968EE77E30CC447E050E0C6
:1053F000BE0180E792E00E941FB4892B09F0C9C06A
:1054000068ED77E38BEC92E20E9461A962EC77E3AE
:105410008BEC92E20E9461A966E977E38BEC92E261
:105420000E9461A96AE677E38BEC92E20E9461A98F
:1054300063E477E38BEC92E20E9461A967E177E392
:105440008BEC92E20E9461A96EEE76E38BEC92E225
:105450000E9461A969EB76E38BEC92E20E9461A95C
:105460006DE876E38BEC92E20E9461A96FE576E34A
:105470008BEC92E20E9461A96BE276E38BEC92E204
:105480000E9461A960E076E38BEC92E20E9461A940
:1054900066ED75E38BEC92E20E9461A96CEA75E31C
:1054A0008BEC92E20E9461A96EE775E38BEC92E2CD
:1054B0000E9461A961E575E38BEC92E20E9461A90B
:1054C00061E275E38BEC92E20E9461A960EF74E304
:1054D0008BEC92E20E9461A966EC74E38BEC92E2A1
:1054E0000E9461A96CE974E38BEC92E20E9461A9CD
:1054F00063E774E38BEC92E20E9461A964E474E3D5
:105500008BEC92E20E9461A969E074E38BEC92E279
:105510000E9461A960ED73E38BEC92E20E9461A9A5
:105520006BE873E38BEC92E20E9461A960E573E3A0
:105530008BEC92E20E9461A961E273E38BEC92E250
:105540000E9461A96EEE72E38BEC92E20E9461A967
:105550006EEB72E38BEC92E20E9461A965E872E364
:105560008BEC92E20E9461A96DE372E38BEC92E214
:105570000E9461A966EF71E38BEC92E20E9461A93F
:105580006CEA71E38BEC92E20E9461A965E671E33B
:1055900039C343E050E0BE0188E792E00E941FB4A7
:1055A000892BD9F467E571E38BEC92E20E9461A943
:1055B0006CE271E38BEC92E20E9461A96AE071E314
:1055C0008BEC92E20E9461A96CEC70E38BEC92E2AE
:1055D0000E9461A963EA70E3CBC046E050E0BE01DF
:1055E0008CE792E00E941FB4892BD9F465E970E33F
:1055F0008BEC92E20E9461A960E870E38BEC92E28E
:105600000E9461A96BE470E38BEC92E20E9461A9B5
:105610006EE170E38BEC92E20E9461A969ED7FE29A
:10562000A7C044E050E0BE0183E892E00E941FB4AE
:10563000892B49F46BEC7FE28BEC92E20E9461A92A
:1056400066E87FE295C043E050E0BE0188EA92E060
:105650000E941FB4892B79F469E77FE28BEC92E218
:105660000E9461A960E57FE28BEC92E20E9461A951
:105670006EE17FE27DC048E050E0BE0188E892E044
:105680000E941FB4892B39F56EE07FE28BEC92E229
:105690000E9461A969EF7EE28BEC92E20E9461A90F
:1056A00063ED7EE28BEC92E20E9461A96DEA7EE2FC
:1056B0008BEC92E20E9461A96EE77EE28BEC92E2B3
:1056C0000E9461A96EE47EE28BEC92E20E9461A9E5
:1056D00062E17EE24DC048E050E0BE0181E992E027
:1056E0000E941FB4892B69F560E07EE28BEC92E2A8
:1056F0000E9461A96DEC7DE28BEC92E20E9461A9AF
:1057000069E97DE28BEC92E20E9461A96EE67DE29E
:105710008BEC92E20E9461A962E37DE28BEC92E263
:105720000E9461A96FEF7CE28BEC92E20E9461A97A
:1057300063EB7CE28BEC92E20E9461A96FE77CE272
:1057400017C043E050E0BE018AE992E00E941FB416
:10575000892BC1F463E77CE28BEC92E20E9461A9A1
:105760006DE57CE28BEC92E20E9461A964E27CE24E
:105770008BEC92E20E9461A9DF91CF911F910F9172
:105780000C949D2845E050E0BE018EE992E00E9415
:105790001FB4892BD9F466E17CE28BEC92E20E9483
:1057A00061A960E07CE28BEC92E20E9461A96CEC62
:1057B0007BE28BEC92E20E9461A969E87BE28BECD0
:1057C00092E20E9461A96BE37BE21CC247E050E0D9
:1057D000BE0184EA92E00E941FB4892B79F46AE248
:1057E0007BE28BEC92E20E9461A96EEE7AE28BEC96
:1057F00092E20E9461A964ED7AE25FC047E050E066
:10580000BE018CEA92E00E941FB4892B49F463EC3C
:105810007AE28BEC92E20E9461A963E97AE24DC0E0
:1058200048E050E0BE0184EB92E00E941FB4892B57
:1058300049F461E87AE28BEC92E20E9461A961E4AA
:105840007AE23BC046E050E0BE018DEB92E00E9460
:105850001FB4892B79F461E37AE28BEC92E20E9427
:1058600061A960EF79E28BEC92E20E9461A967EA9C
:1058700079E223C048E050E0BE0184EC92E00E944F
:105880001FB4892B49F465E979E28BEC92E20E941E
:1058900061A965E679E211C048E050E0BE018DECF7
:1058A00092E00E941FB4892BA1F463E579E28BECAE
:1058B00092E20E9461A969E179E28BEC92E20E9496
:1058C00061A90E948528DF91CF911F910F910C94BF
:1058D000912849E050E0BE0186ED92E00E941FB49D
:1058E000892B09F566E079E28BEC92E20E9461A9CE
:1058F00064ED78E28BEC92E20E9461A961E978E2C2
:105900008BEC92E20E9461A961E678E28BEC92E274
:105910000E9461A96EE178E28BEC92E20E9461A99B
:1059200061EE77E26FC14AE050E0BE0180EE92E0A6
:105930000E941FB4892B09F56DEC77E28BEC92E2A3
:105940000E9461A968E777E28BEC92E20E9461A96C
:1059500065E377E28BEC92E20E9461A965E077E271
:105960008BEC92E20E9461A962EC76E28BEC92E20F
:105970000E9461A965E876E245C143E050E0BE01BE
:105980008BEE92E00E941FB4892BC9F566E776E2A0
:105990008BEC92E20E9461A960E676E28BEC92E2E7
:1059A0000E9461A964E376E28BEC92E20E9461A915
:1059B00063E076E28BEC92E20E9461A961ED75E210
:1059C0008BEC92E20E9461A968E975E28BEC92E2AD
:1059D0000E9461A960E675E28BEC92E20E9461A9E7
:1059E0006FE175E28BEC92E20E9461A961EE74E2D4
:1059F0008BEC92E20E9461A96AEB74E203C147E07A
:105A000050E0BE0182EF92E00E941FB4892B79F42E
:105A100069EA74E28BEC92E20E9461A96CE674E29E
:105A20008BEC92E20E9461A962E374E2EBC049E070
:105A300050E0BE018AEF92E00E941FB4892B49F426
:105A40006FE174E28BEC92E20E9461A962EE73E274
:105A5000D9C047E050E0BE0184E093E00E941FB44B
:105A6000892B49F461ED73E28BEC92E20E9461A90B
:105A700067E973E2C7C046E050E0BE018CE093E006
:105A80000E941FB4892B79F467E873E28BEC92E2F1
:105A90000E9461A96BE473E28BEC92E20E9461A91F
:105AA00062E173E2AFC048E050E0BE0183E193E001
:105AB0000E941FB4892B49F460E073E28BEC92E200
:105AC0000E9461A964EC72E29DC046E050E0BE0114
:105AD0008CE193E00E941FB4892B49F464EB72E2DD
